:1000000000800020590B00008F0B0000910B0000B6
:10001000930B0000950B0000970B00008D0B000068
:100020008D0B00008D0B00008D0B0000990B000064
:100030009B0B00008D0B00009D0B0000C102000017
:10004000A10B0000A30B0000A50B0000A70B0000F4
:10005000A90B0000AB0B0000AD0B0000AF0B0000C4
:10006000B10B0000B30B0000B50B0000B70B000094
:10007000B90B0000BB0B0000BD0B0000BF0B000064
:10008000C10B0000C30B0000C50B0000C70B000034
:10009000C90B0000CB0B0000CD0B0000CF0B000004
:1000A000D10B0000D30B0000D50B0000D70B0000D4
:1000B000D90B0000DB0B0000DD0B0000DF0B0000A4
:1000C000E10B0000E30B0000E50B0000E70B000074
:1000D000E90B0000EB0B0000ED0B0000EF0B000044
:1000E0000000000000000000000000000000000010
:1000F0000000000000000000000000000000000000
:1001000010B5054C237833B9044B13B10448AFF351
:1001100000800123237010BD70000020000000004B
:10012000C811000008B5064B1BB106480649AFF3DD
:1001300000800648036813B1054B03B1984708BD1A
:1001400000000000C81100007400002070000020B2
:1001500000000000154B002B08BF134B9D46A3F574
:10016000803A00218B460F461348144A121A00F0B9
:1001700091FF0F4B002B00D098470E4B002B00D067
:1001800098470020002104000D000D48002802D0EF
:100190000C48AFF3008000F057FF2000290000F06A
:1001A00065F800F03DFF00BF00000800008000205F
:1001B00000000000000000007000002094000020FB
:1001C000000000000000000080B483B000AF0346D0
:1001D0003960FB7197F90730002B0BDA0D49FB7979
:1001E00003F00F03043B3A68D2B25201D2B20B447F
:1001F0001A7609E0084997F907303A68D2B25201F5
:10020000D2B20B4483F800230C37BD465DF8047B63
:10021000704700BF00ED00E000E100E080B582B073
:1002200000AF78607B68013BB3F1807F01D301238D
:100230000FE00A4B7A68013A5A604FF0FF3007210D
:10024000FFF7C2FF054B00229A60044B07221A6099
:10025000002318460837BD4680BD00BF10E000E00F
:1002600080B400AFBD465DF8047B704780B500AF39
:10027000FFF7F6FF00F0C0FE0F4800F011FA02464B
:100280000E4BA3FB02139B091846FFF7C7FF03465B
:10029000002B00D0FEE700F0D1FD002000F0FCFDB7
:1002A000002000F01BFE012000F018FE4FF47A70D1
:1002B00000F014F8F4E700BF20000400D34D6210F2
:1002C00080B400AF044B1B685A1C034B1A60BD4638
:1002D0005DF8047B704700BF8C00002080B485B0BF
:1002E00000AF7860074B1B68FB6000BF054B1A68C6
:1002F000FB68D21A7B689A42F8D31437BD465DF882
:10030000047B70478C00002080B483B000AF78601D
:100310003960FEE780B487B000AFF860B9607A60FA
:10032000FB6803F10473DA00BB6813449B007B6134
:100330007B697A681A601C37BD465DF8047B70479C
:1003400080B586B000AF78607B68002B03D07B68F7
:10035000B3F5004F03D90A48BB21FFF7D5FF7B68EF
:100360003B613B69B3FA83F3FB60FB68DBB2C3F12B
:100370001F037B617B6918461837BD4680BD00BFEF
:10038000C010000080B582B000AF104800F08EFAB7
:100390000346FB70FB78032B07D0082B09D0022BF8
:1003A0000BD100F0F3FC78600AE000F0DBFC786031
:1003B00006E000F04FFC786002E000237B6000BFA5
:1003C0007B6818460837BD4680BD00BF05231C006A
:1003D00080B483B000AF1A4B5B6903F4E063B3F5FC
:1003E000007F14D0B3F5007F05D8002B15D0B3F5EE
:1003F000807F0FD01AE0B3F5C06F14D0B3F5E06F73
:100400000ED0B3F5407F11D10E4B7B6011E00E4B47
:100410007B600EE00D4B7B600BE00D4B7B6008E0DA
:100420000C4B7B6005E00C4B7B6002E000237B60A3
:1004300000BF7B6818460C37BD465DF8047B7047EB
:1004400000800C4040420F00C0CF6A00C0D8A70017
:10045000809FD500406F4001003FAB0180B582B066
:1004600000AF144800F022FA0346FB70FB78072B1C
:100470000FD0082B11D100F0EDFB78600E4B1B68FC
:1004800003F4E0339B0B01337A68B2FBF3F37B6038
:100490000BE0FFF79DFF786007E008484FF4CA7152
:1004A000FFF732FF00237B6000BF7B6818460837E8
:1004B000BD4680BD0400180000800C40C010000044
:1004C00080B584B000AF78607B68002B07D07B6874
:1004D000012B04D0284840F2AB11FFF715FF274B42
:1004E0009A6A7B685B0022FA03F303F00303032B91
:1004F0003AD801A252F823F049050000090500008E
:10050000110500001905000000F02CFCF8602EE039
:1005100000F03CFCF8602AE0184B5B6803F4807341
:10052000002B05D1154B1B6803F08043002B05D031
:1005300000F06CFB03469B08FB6018E000F066FBD4
:1005400003465B08FB6012E00C4B9A6A7B6804333D
:100550009B0022FA03F3002B03D000F00DFCF8609F
:1005600005E00023FB6002E00023FB6000BFFB68A6
:1005700018461037BD4680BDC010000000800C40FA
:1005800080B483B000AF7860094B5B6D03F001036A
:10059000002B00D006E000BF054B1A6D7B681340AE
:1005A000002BF9D10C37BD465DF8047B704700BFC6
:1005B00000800C4080B586B000AF78600B46FB70C1
:1005C00000233B617B681B0A03F00F03013B052BF3
:1005D00036D801A252F823F0F1050000F70500001B
:1005E000FD05000027060000310600003B06000064
:1005F000204B7B612AE0204B7B6127E01F4B7B6116
:100600001F4800F04DF802461E4B9A420AD91E4878
:100610001E210122FFF77EFE1C4808210122FFF760
:1006200079FE13E012E01A4B7B6101233B610DE080
:10063000184B7B6110233B6108E0174B7B6105E0A1
:10064000164840F23E41FFF75FFE10E07B681B0B4F
:1006500003F01F03FB603B69002B02D03869FFF7F2
:100660008FFFFB787869F9681A46FFF753FE183751
:10067000BD4680BD08800C4044800C4040800C404A
:100680002000040000366E0100800C4004800C4005
:1006900058800C4060800C4078800C40C0100000F6
:1006A00090B585B000AF78607B6803F47813B3F53C
:1006B000602F00F09980B3F5602F18D8B3F5C02FE4
:1006C0005ED0B3F5C02F08D8B3F5003F3ED0B3F5E8
:1006D000802F51D0002B2BD0D6E0B3F5202F62D045
:1006E000B3F5402F6DD0B3F5002F4ED0CCE0B3F56D
:1006F000B01F00F0AF80B3F5B01F0CD8B3F5901F5A
:1007000000F09680B3F5A01F00F09780B3F5801F2E
:1007100000F08180B8E0B3F5D01F00F0AD80B3F5F4
:10072000E01F00F0AD80B3F5C01F00F0A180ABE08A
:1007300000F090FAF8605B4B1B6803F4E0339B0B0E
:100740000133FA68B2FBF3F3FB60A5E000F082FA34
:10075000F860544B1B6803F4E0339B0B0133FA68D9
:10076000B2FBF3F3FB604F4B9B6803F00F03FA6897
:1007700022FA03F3FB608FE000F048FAF8608BE0A8
:100780000020FFF79DFEF86086E00020FFF798FE4E
:10079000F860444B9B6E03F0F0031B09FA6822FAE1
:1007A00003F3FB6078E00020FFF78AFEF8603D4B22
:1007B0009B6E03F470631B0AFA6822FA03F3FB6072
:1007C0006AE00020FFF77CFEF860364B9B6E03F476
:1007D00040531C0B1020FFF7B3FD03462344FA6877
:1007E00022FA03F3FB6057E00020FFF769FEF86090
:1007F0002C4B9B6E03F440531B0BFA6822FA03F355
:10080000FB60284BDB6F03F007030133FA68B2FB90
:10081000F3F3FB6040E00020FFF752FEF860214B4D
:100820009B6E03F00303FA6822FA03F3FB6033E0E4
:100830000120FFF745FEF8602EE00120FFF740FEA3
:10084000F860184B1B6F03F00303FA6822FA03F3F6
:10085000FB6021E00120FFF733FEF860114B1B6FB6
:1008600003F030031B09FA6822FA03F3FB6013E07C
:10087000FFF7F4FDF8600FE0FFF7AAFDF8600BE06A
:10088000FFF780FDF86007E007484FF49D61FFF730
:100890003BFD0023FB6000BFFB6818461437BD46D4
:1008A00090BD00BF00800C40C010000080B584B037
:1008B00000AF78600123FB737B6803F00F03BB601C
:1008C000BB68013B042B00F28F8001A252F823F099
:1008D000E50800001B09000057090000930900000B
:1008E000B5090000474BDB6A03F47053B3F5805F32
:1008F00009D0B3F5005F03D0B3F5006F06D008E070
:100900000223FB7308E00323FB7305E00423FB735E
:1009100002E00523FB7300BF6EE03A4B9B6A03F0D5
:100920000303022B06D0032B07D0012B08D103238E
:10093000FB730FE00223FB730CE00623FB7309E05B
:10094000304B9B6A03F48033002B02D00923FB73E6
:1009500000E000BF50E02B4B9B6A03F00C03082B18
:1009600006D00C2B07D0042B08D10323FB730FE018
:100970000223FB730CE00623FB7309E0214B9B6A07
:1009800003F48013002B02D00923FB7300E000BFA7
:1009900032E01C4B1B6803F08053002B03D0B3F1F3
:1009A000805F03D028E00723FB7302E00823FB737A
:1009B00000BF21E0134BDB6A03F46033B3F5803FE3
:1009C00008D0B3F5003F08D0B3F5004F08D1082395
:1009D000FB7308E00223FB7305E00323FB7302E0D3
:1009E0000123FB7300BF07E0074840F28751FFF780
:1009F0008BFC0023FB7300BFFB7B18461037BD4602
:100A000080BD00BF00800C40C010000090B585B0D4
:100A100000AFB9607B600346FB731346BB73FB7B7F
:100A2000052B02D8BB680F2B03D94948CC21FFF70F
:100A30006BFCBB7B002B1FD07B68002B0ED0454886
:100A4000FA7BBB68012101FA03F319461346DB0068
:100A500013449B000344103319600DE03D48FA7BBA
:100A6000BB68012101FA03F319461346DB00134466
:100A70009B00034410335960BB68072B1DD83548D1
:100A8000FA7B344CF97B0B46DB000B449B00234480
:100A90005968BB689B000F2404FA03F3DB43194039
:100AA000BC7BBB689B0004FA03F319431346DB00CD
:100AB00013449B000344596024E02648FA7B254CEC
:100AC000F97B0B46DB000B449B0023440833196879
:100AD000BB6803F18043083B9B000F2404FA03F337
:100AE000DB431940BC7BBB6803F18043083B9B00A0
:100AF00004FA03F319431346DB0013449B00034439
:100B000008331960BB7B002B1FD17B68002B0ED0F4
:100B10001048FA7BBB68012101FA03F3194613461A
:100B2000DB0013449B000344103319600DE00948B7
:100B3000FA7BBB68012101FA03F319461346DB0077
:100B400013449B000344103359601437BD4690BDD5
:100B50001011000000600040074880470749084A1C
:100B6000084B9B1A40F30580043BC858D0503FF710
:100B7000FBAF054800470000450D0000D411000000
:100B8000000000207000002055010000FEE7FEE795
:100B9000FEE7FEE7FEE7FEE7FEE7FEE7FEE7FEE72D
:100BA000FEE7FEE7FEE7FEE7FEE7FEE7FEE7FEE71D
:100BB000FEE7FEE7FEE7FEE7FEE7FEE7FEE7FEE70D
:100BC000FEE7FEE7FEE7FEE7FEE7FEE7FEE7FEE7FD
:100BD000FEE7FEE7FEE7FEE7FEE7FEE7FEE7FEE7ED
:100BE000FEE7FEE7FEE7FEE7FEE7FEE7FEE7FEE7DD
:100BF00080B400AF044BDB6C1B0EDBB21846BD4665
:100C00005DF8047B704700BFB081E00F80B582B013
:100C100000AF00F01FF878600C4B1B6803F4E03362
:100C20009B0B01337A68B2FBF3F37B60074B5B6885
:100C300003F00F037A6822FA03F37B60044B7A68AF
:100C40001A607B6818460837BD4680BD00800C409E
:100C50009000002080B582B000AF2F4BDB6A03F418
:100C60007053B3F5805F0AD0B3F5005F03D0B3F5DE
:100C7000006F08D00BE0294B1B687B6047E04FF406
:100C800000437B6043E0264B1B687B603FE0224BC8
:100C9000DB6803F4E063B3F5007F1BD0B3F5007F9E
:100CA00005D8002B24D0B3F5807F16D02BE0B3F508
:100CB000806F09D0B3F5A06F03D0B3F5407F06D0A5
:100CC00021E0184B7B6021E0174B7B601EE0174B47
:100CD0007B601BE0164B7B6018E0FFF789FF034643
:100CE000122B02D9134B7B6010E0134B7B600DE09D
:100CF000FFF77EFF0346122B02D9104B7B6005E005
:100D00000F4B7B6002E000237B6000BF00BF7B686D
:100D100018460837BD4680BD00800C400400002006
:100D200000000020003FAB01406F4001809FD500D4
:100D3000C0D8A70040B56400C0CF6A00804F120041
:100D400040420F0080B400AF054B054AD2F888201E
:100D500042F47002C3F88820BD465DF8047B7047FA
:100D600000ED00E080B400AF4FF400431846BD46EC
:100D70005DF8047B704700BF80B400AF4FF47A7316
:100D80001846BD465DF8047B704700BF80B400AFD5
:100D9000034B1B681846BD465DF8047B704700BFD7
:100DA0000400002080B582B000AF03463960FB71BB
:100DB000FB79052B02D83B680F2B04D90A4840F277
:100DC0000B21FFF7A1FA0948FA793B68012101FAE2
:100DD00003F319461346DB0013449B00034410330E
:100DE00019600837BD4680BD6011000000600040FA
:100DF00080B582B000AF03463960FB71FB79052BEB
:100E000002D83B680F2B04D90A4840F22221FFF791
:100E10007BFA0948FA793B68012101FA03F3194684
:100E20001346DB0013449B00034418331960083752
:100E3000BD4680BD601100000060004080B582B0FA
:100E400000AF12480121FFF7B5FB11480121FFF760
:100E5000B1FB00237B6011E00E4B7A6813F832205F
:100E60000C497B68DB000B445B6810461946042282
:100E70000023FFF7CBFD7B6801337B607B68012B90
:100E8000EADD002318460837BD4680BD1081020008
:100E900000D20200B011000080B582B000AF7860CF
:100EA0007B68002B11DB7B68012B0EDC0A4B7A6818
:100EB00013F8322008497B68DB000B445B6810465E
:100EC0001946FFF76FFF002301E04FF0FF3318468C
:100ED0000837BD4680BD00BFB011000080B582B0AC
:100EE00000AF78607B68002B11DB7B68012B0EDC88
:100EF0000A4B7A6813F8322008497B68DB000B4400
:100F00005B6810461946FFF773FF002301E04FF0BE
:100F1000FF3318460837BD4680BD00BFB011000042
:100F200080B400AF2C4B2C4A526C42F400525A64ED
:100F30002A4B2A4AD2F8202142F00402C3F8202189
:100F4000264B264AD2F8202122F44072C3F82021F1
:100F5000224B224AD2F8B82022F47062C3F8B8209B
:100F60001E4B1E4AD2F8B82042F48062C3F8B82063
:100F7000194B10221A6200BF174BDB6A03F02003E3
:100F8000002BF9D0164BDB6803F08073002B1ED1C9
:100F9000134B134AD26842F08072DA60114B124A46
:100FA0001A60124B0F221A61104B0222C3F8F02074
:100FB0000E4B4FF48072C3F804234FF060430C4A89
:100FC000C3F8B02F4FF060430A4AC3F8802EBD46E5
:100FD0005DF8047B704700BF00800C40006000405B
:100FE000F0ED00E0001000E0FF130140000004E01D
:100FF00055CEACC50900010080B582B000AF4FF0FE
:101000007E637B607B681B68002B01D1002302E0BC
:10101000FFF786FF012318460837BD4680BD00BF95
:1010200008B5074B044613B10021AFF30080054B10
:101030001868836A03B19847204600F033F800BF70
:1010400000000000C411000070B50E4B0E4DED1AEB
:10105000AD1000241E46AC4204D056F82420904720
:101060000134F8E700F020F8084D094BED1AAD10F7
:1010700000241E46AC4204D056F824209047013488
:10108000F8E770BD68000020680000206C000020B8
:101090006800002002440346934202D003F8011B7B
:1010A000FAE77047FEE700BFF8B500BFF8BC08BC20
:1010B0009E467047F8B500BFF8BC08BC9E46704716
:1010C000433A2F53696C69636F6E4C6162732F539F
:1010D000696D706C696369747953747564696F2F95
:1010E00076322F646576656C6F7065722F73646BF2
:1010F000732F65666D33322F76322F656D6C6962A2
:101100002F7372632F656D5F636D752E6300000032
:10111000433A2F53696C69636F6E4C6162732F534E
:10112000696D706C696369747953747564696F2F44
:1011300076322F646576656C6F7065722F73646BA1
:10114000732F65666D33322F76322F656D6C696251
:101150002F7372632F656D5F6770696F2E63000078
:10116000433A5C53696C69636F6E4C6162735C53A4
:10117000696D706C696369747953747564696F5CC7
:1011800076325C646576656C6F7065725C73646BF7
:10119000735C65666D33325C76322F656D6C6962A7
:1011A0002F696E632F656D5F6770696F2E68000031
:1011B0000400000002000000040000000300000022
:0C11C000430000000800002000000000B8
:0811CC0088EFFF7F0100000025
:1011D400006CDC0200800000000000000000000041
:1011E40000000000000000000000000000000000FB
:1011F4000000000000000000C0110000000000001A
:1012040000000000000000000000000000000000DA
:1012140000000000000000000000000000000000CA
:1012240000000000000000000000000000000000BA
:101234000000000000000000250100000101000082
:0400000300000B5995
:00000001FF
