:1000000000800020251600005B1600005D16000031
:100010005F1600006116000063160000591600000C
:100020005916000059160000591600006516000008
:100030006716000059160000691600008D0D0000BB
:100040006D1600006F160000711600007316000098
:100050007516000077160000791600007B16000068
:100060007D1600007F160000811600008316000038
:100070008516000087160000891600008B16000008
:100080008D1600008F1600009116000093160000D8
:100090009516000097160000991600009B160000A8
:1000A0009D1600009F160000A1160000A316000078
:1000B000A5160000A7160000A9160000AB16000048
:1000C000AD160000AF160000B1160000B316000018
:1000D000B5160000B7160000B9160000BB160000E8
:1000E0000000000000000000000000000000000010
:1000F0000000000000000000000000000000000000
:1001000010B5054C237833B9044B13B10448AFF351
:1001100000800123237010BD70000020000000004B
:10012000EC1F000008B5064B1BB106480649AFF3AB
:1001300000800648036813B1054B03B1984708BD1A
:1001400000000000EC1F0000740000207000002080
:1001500000000000154B002B08BF134B9D46A3F574
:10016000803A00218B460F461348144A121A01F0B8
:10017000F7FC0F4B002B00D098470E4B002B00D004
:1001800098470020002104000D000D48002802D0EF
:100190000C48AFF3008001F0BDFC2000290000F006
:1001A000BDFD01F0A3FC00BF00000800008000209E
:1001B00000000000000000007000002098000020F7
:1001C000000000000000000080B582B000AF0346D0
:1001D0003960FB71FB79052B02D83B680F2B04D9E2
:1001E0000A4840F2DF1100F0F5FD0948FA793B6852
:1001F000012101FA03F319461346DB0013449B0067
:100200000344103359600837BD4680BD8C1B000085
:100210000060004080B582B000AF03463960FB71DA
:10022000FB79052B02D83B680F2B04D90A4840F212
:100230000B2100F0CFFD0948FA793B68012101FA52
:1002400003F319461346DB0013449B0003441033A9
:1002500019600837BD4680BD8C1B0000006000405F
:1002600080B582B000AF13460246FA710A46BA71F1
:100270007B717B79002B06D1BB79FA791046194640
:10028000FFF7A2FF05E0BB79FA7910461946FFF7A0
:10029000C1FF0837BD4680BD80B500AF03200F21E8
:1002A0000422012301F018F903200E210422012366
:1002B00001F012F903200D210422012301F00CF9B1
:1002C00003200C210422012301F006F903200B2155
:1002D0000422012301F000F903200A210422012352
:1002E00001F0FAF8032009210422012301F0F4F8B7
:1002F000032008210422012301F0EEF80320072146
:100300000422012301F0E8F803200621042201233E
:1003100001F0E2F8032005210422012301F0DCF8BA
:10032000032004210422012301F0D6F80320032135
:100330000422012301F0D0F803200221042201232A
:1003400001F0CAF8032001210422012301F0C4F8BE
:10035000032000210422012301F0BEF880BD00BF6C
:1003600080B500AF03200F210022FFF779FF0320A3
:100370000E210022FFF774FF03200D210022FFF75A
:100380006FFF03200C210022FFF76AFF03200B21DF
:100390000022FFF765FF03200A210022FFF760FF1C
:1003A000032009210022FFF75BFF03200821002220
:1003B000FFF756FF032007210022FFF751FF03201C
:1003C00006210022FFF74CFF032005210022FFF742
:1003D00047FF032004210022FFF742FF03200321EF
:1003E0000022FFF73DFF032002210022FFF738FF24
:1003F000032001210022FFF733FF03200021002208
:10040000FFF72EFF80BD00BF80B582B000AF03466E
:10041000FB80FB88DB0B9BB2DBB203F00103DBB29A
:1004200003200F211A46FFF71BFFFB889B0B9BB293
:10043000DBB203F00103DBB203200E211A46FFF703
:100440000FFFFB885B0B9BB2DBB203F00103DBB257
:1004500003200D211A46FFF703FFFB881B0B9BB2FD
:10046000DBB203F00103DBB203200C211A46FFF7D5
:10047000F7FEFB88DB0A9BB2DBB203F00103DBB2C1
:1004800003200B211A46FFF7EBFEFB889B0A9BB269
:10049000DBB203F00103DBB203200A211A46FFF7A7
:1004A000DFFEFB885B0A9BB2DBB203F00103DBB229
:1004B000032009211A46FFF7D3FEFB881B0A9BB2D3
:1004C000DBB203F00103DBB2032008211A46FFF779
:1004D000C7FEFB88DB099BB2DBB203F00103DBB292
:1004E000032007211A46FFF7BBFEFB889B099BB23E
:1004F000DBB203F00103DBB2032006211A46FFF74B
:10050000AFFEFB885B099BB2DBB203F00103DBB2F9
:10051000032005211A46FFF7A3FEFB881B099BB2A7
:10052000DBB203F00103DBB2032004211A46FFF71C
:1005300097FEFB88DB089BB2DBB203F00103DBB262
:10054000032003211A46FFF78BFEFB889B089BB212
:10055000DBB203F00103DBB2032002211A46FFF7EE
:100560007FFEFB885B089BB2DBB203F00103DBB2CA
:10057000032001211A46FFF773FEFB88DBB203F06C
:100580000103DBB2032000211A46FFF769FE08379A
:10059000BD4680BD80B582B000AF0346FB80012020
:1005A0000921FFF711FE01200A21FFF70DFE0120AE
:1005B0000C21FFF72FFE01200B21FFF72BFE01205E
:1005C0000B21FFF701FEFB881846FFF71DFF0120F6
:1005D0000B21FFF71FFE01200921FFF71BFE083743
:1005E000BD4680BD80B582B000AF0346FB800120D0
:1005F0000921FFF7E9FD01200A21FFF70BFE012089
:100600000C21FFF707FE01200B21FFF7DDFDFB8822
:100610001846FFF7F9FE01200B21FFF7FBFD012033
:100620000921FFF7F7FD0837BD4680BD80B500AF53
:100630009748012100F024FD012009210422012313
:1006400000F04AFF01200C210422012300F044FFA6
:1006500001200B210422012300F03EFF01200A218A
:100660000422012300F038FFFFF716FEFFF778FEA3
:10067000C82000F099FB0120FFF78CFF4FF4807039
:10068000FFF7B0FF0220FFF785FF4FF4E060FFF7B0
:10069000A9FF0320FFF77EFF41F23000FFF7A2FF22
:1006A0000420FFF777FF0020FFF79CFF0820FFF7EB
:1006B00071FF40F20230FFF795FF0A20FFF76AFF53
:1006C0000020FFF78FFF0C20FFF764FF0020FFF7EB
:1006D00089FF0D20FFF75EFF0020FFF783FF0F204B
:1006E000FFF758FF0020FFF77DFFC82000F05CFBFC
:1006F0003020FFF74FFF0020FFF774FF3120FFF796
:1007000049FF40F20540FFF76DFF3220FFF742FF3F
:1007100040F20320FFF766FF3520FFF73BFF042080
:10072000FFF760FF3620FFF735FF40F60730FFF791
:1007300059FF3720FFF72EFF0020FFF753FF382027
:10074000FFF728FF40F20540FFF74CFF3920FFF785
:1007500021FF40F20320FFF745FF3C20FFF71AFF7F
:100760000420FFF73FFF3D20FFF714FF40F607305E
:10077000FFF738FF2020FFF70DFF0020FFF732FFC3
:100780002120FFF707FF0020FFF72CFF5020FFF785
:1007900001FF0020FFF726FF5120FFF7FBFEEF20AF
:1007A000FFF720FF5220FFF7F5FE0020FFF71AFFAA
:1007B0005320FFF7EFFE40F23F10FFF713FFC82072
:1007C00000F0F2FA6020FFF7E5FE4FF42740FFF754
:1007D00009FF6120FFF7DEFE0120FFF703FF9020F5
:1007E000FFF7D8FE3A20FFF7FDFE9520FFF7D2FE77
:1007F00040F21E20FFF7F6FE8020FFF7CBFE002020
:10080000FFF7F0FE8120FFF7C5FE0020FFF7EAFEAC
:100810008220FFF7BFFE0020FFF7E4FE8320FFF7F2
:10082000B9FE0020FFF7DEFE8420FFF7B3FE0020B4
:10083000FFF7D8FE8520FFF7ADFE0020FFF7D2FEC0
:10084000FF20FFF7A7FE0120FFF7CCFEB020FFF747
:10085000A1FE41F20D40FFF7C5FEFF20FFF79AFE13
:100860000020FFF7BFFEC82000F09EFA0720FFF728
:1008700091FE40F23310FFF7B5FE642000F094FAC9
:1008800000F024F82220FFF785FE00F003F880BD79
:1008900000D2020080B582B000AF0023FB800EE0E2
:1008A0000023BB8005E00020FFF79CFEBB880133DE
:1008B000BB80BB88EF2BF6D9FB880133FB80FB881C
:1008C000B3F5A07FECD30837BD4680BD80B500AF3F
:1008D0001020FFF75FFE4FF4A750FFF783FE642060
:1008E00000F062FA0720FFF755FE40F23310FFF7E1
:1008F00079FE80BD80B582B000AF0346FB80032047
:10090000FFF748FEFB88012B04D145F23800FFF7C2
:1009100069FE03E045F23000FFF764FE2220FFF796
:1009200039FE0837BD4680BD80B582B000AF0246B3
:100930000B46FA80BB802020FFF72CFEFB88184670
:10094000FFF750FE2120FFF725FEBB881846FFF772
:1009500049FE2220FFF71EFE0837BD4680BD00BFBE
:1009600080B584B000AFF880B9807A803B80FA8887
:10097000BB8810461946FFF7D7FF0020FFF7BAFFE4
:100980007A88FB881344F02B03DDFB88C3F1F00366
:100990007B800023FB8106E03B881846FFF722FEA0
:1009A000FB890133FB81FA897B889A42F4D31037A3
:1009B000BD4680BD80B584B000AFF880B9807A8034
:1009C0003B800023FB8139E0204B1B78002B09D1B1
:1009D000BA88FB89134499B2F8887A883B8BFFF771
:1009E000BFFF28E0194B1B78012B09D1BA88FB897E
:1009F000D31A99B2F8887A883B8BFFF7B1FF1AE0D7
:100A0000124B1B78022B09D1BA88FB89D31A99B2F1
:100A1000F8887A883B8BFFF7A3FF0CE00B4B1B7821
:100A2000032B08D1BA88FB89134499B2F8887A88D5
:100A30003B8BFFF795FFFB890133FB81FA893B88EC
:100A40009A42C1D31037BD4680BD00BF8C00002044
:100A500090B587B002AFF880B980FA703B80002370
:100A60007B73FA88BB8810461946FFF75DFFFB7859
:100A70001F2B02D9FB787E2B01D93F23FB7000236B
:100A8000FB7391E0FB78A3F12001FB7B4A4AC9008C
:100A90000B4413441B787B730023BB737DE07A7B8C
:100AA000BB7B42FA03F303F00103002B72D0434BEC
:100AB0001B78002B18D1FB7B9BB23A8802FB03F317
:100AC0009AB2FB88134498B2BB7B9BB23A8802FB74
:100AD00003F39AB2BB88134499B23A883B883C8CA2
:100AE0000094FFF767FF55E0344B1B78012B18D1BA
:100AF000BB7B9BB23A8802FB03F39AB2FB88134498
:100B000098B2FB7B9BB23A8802FB03F39BB2BA8894
:100B1000D31A99B23A883B883C8C0094FFF74AFF7D
:100B200038E0264B1B78022B18D1FB7B9BB23A880E
:100B300002FB03F39BB2FA88D31A98B2BB7B9BB239
:100B40003A8802FB03F39BB2BA88D31A99B23A8867
:100B50003B883C8C0094FFF72DFF1BE0174B1B7864
:100B6000032B17D1BB7B9BB23A8802FB03F39BB2EA
:100B7000FA88D31A98B2FB7B9BB23A8802FB03F344
:100B80009AB2BB88134499B23A883B883C8C009453
:100B9000FFF710FFBB7B0133BB73BB7B072B7FF6DB
:100BA0007EAFFB7B0133FB73FB7B072B7FF66AAFCA
:100BB0001437BD4690BD00BFDC1B00008C00002038
:100BC00090B587B002AFBA600246FA810A46BA8190
:100BD000FB8046E0BB681A78F889B989FB883C8CB1
:100BE0000094FFF735FF234B1B78002B09D1FB89BD
:100BF000EF2B36D8FB88DB009AB2FB891344FB81CC
:100C00002FE01C4B1B78012B0CD1BB89002B28D06B
:100C1000FB881A465203D31ADB009AB2BB891344ED
:100C2000BB811EE0134B1B78022B0CD1FB89002BE0
:100C300017D0FB881A465203D31ADB009AB2FB89FD
:100C40001344FB810DE00B4B1B78032B09D1BB89AF
:100C5000B3F5A07F05D2FB88DB009AB2BB891344B1
:100C6000BB81BB685A1CBA601B78002BB2D1143709
:100C7000BD4690BD8C00002080B483B000AF034619
:100C80003960FB7197F90730002B0BDA0D49FB79BE
:100C900003F00F03043B3A68D2B25201D2B20B44C4
:100CA0001A7609E0084997F907303A68D2B252013A
:100CB000D2B20B4483F800230C37BD465DF8047BA9
:100CC000704700BF00ED00E000E100E080B582B0B9
:100CD00000AF78607B68013BB3F1807F01D30123D3
:100CE0000FE00A4B7A68013A5A604FF0FF30072153
:100CF000FFF7C2FF054B00229A60044B07221A60DF
:100D0000002318460837BD4680BD00BF10E000E054
:100D100080B400AFBD465DF8047B704780B582B0FB
:100D200002AFFFF7F5FF00F0CDFE154800F01EFA08
:100D30000246144BA3FB02139B091846FFF7C6FF9C
:100D40000346002B00D0FEE7FFF770FC00F0DCFD4F
:100D5000002000F007FE4FF47843009364206421E4
:100D6000094A0523FFF72CFF002000F01DFE01209B
:100D700000F01AFE4FF47A7000F016F8F4E700BFA6
:100D800020000400D34D6210DC1E000080B400AFD0
:100D9000044B1B685A1C034B1A60BD465DF8047B6C
:100DA000704700BF9000002080B485B000AF78602D
:100DB000074B1B68FB6000BF054B1A68FB68D21A23
:100DC0007B689A42F8D31437BD465DF8047B7047C0
:100DD0009000002080B483B000AF78603960FEE7F7
:100DE00080B487B000AFF860B9607A60FB6803F147
:100DF0000473DA00BB6813449B007B617B697A68EB
:100E00001A601C37BD465DF8047B704780B586B01C
:100E100000AF78607B68002B03D07B68B3F5004F90
:100E200003D90A48BB21FFF7D5FF7B683B613B69CB
:100E3000B3FA83F3FB60FB68DBB2C3F11F037B6192
:100E40007B6918461837BD4680BD00BFE41E000010
:100E500080B582B000AF104800F08EFA0346FB70F8
:100E6000FB78032B07D0082B09D0022B0BD100F005
:100E7000F3FC78600AE000F0DBFC786006E000F04C
:100E80004FFC786002E000237B6000BF7B6818465F
:100E90000837BD4680BD00BF05231C0080B483B069
:100EA00000AF1A4B5B6903F4E063B3F5007F14D025
:100EB000B3F5007F05D8002B15D0B3F5807F0FD098
:100EC0001AE0B3F5C06F14D0B3F5E06F0ED0B3F5F0
:100ED000407F11D10E4B7B6011E00E4B7B600EE02A
:100EE0000D4B7B600BE00D4B7B6008E00C4B7B6097
:100EF00005E00C4B7B6002E000237B6000BF7B6859
:100F000018460C37BD465DF8047B704700800C40E6
:100F100040420F00C0CF6A00C0D8A700809FD50014
:100F2000406F4001003FAB0180B582B000AF144874
:100F300000F022FA0346FB70FB78072B0FD0082B3A
:100F400011D100F0EDFB78600E4B1B6803F4E03329
:100F50009B0B01337A68B2FBF3F37B600BE0FFF786
:100F60009DFF786007E008484FF4CA71FFF732FF31
:100F700000237B6000BF7B6818460837BD4680BDF4
:100F80000400180000800C40E41E000080B584B00E
:100F900000AF78607B68002B07D07B68012B04D002
:100FA000284840F2AB11FFF715FF274B9A6A7B6880
:100FB0005B0022FA03F303F00303032B3AD801A2E8
:100FC00052F823F015100000D50F0000DD0F0000CF
:100FD000E50F000000F02CFCF8602EE000F03CFC77
:100FE000F8602AE0184B5B6803F48073002B05D18E
:100FF000154B1B6803F08043002B05D000F06CFB01
:1010000003469B08FB6018E000F066FB03465B08A4
:10101000FB6012E00C4B9A6A7B6804339B0022FA57
:1010200003F3002B03D000F00DFCF86005E0002373
:10103000FB6002E00023FB6000BFFB68184610372E
:10104000BD4680BDE41E000000800C4080B483B02B
:1010500000AF7860094B5B6D03F00103002B00D0FB
:1010600006E000BF054B1A6D7B681340002BF9D1D9
:101070000C37BD465DF8047B704700BF00800C4014
:1010800080B586B000AF78600B46FB7000233B61F3
:101090007B681B0A03F00F03013B052B36D801A226
:1010A00052F823F0BD100000C3100000C91000006A
:1010B000F3100000FD10000007110000204B7B61C1
:1010C0002AE0204B7B6127E01F4B7B611F4800F02B
:1010D0004DF802461E4B9A420AD91E481E21012293
:1010E000FFF77EFE1C4808210122FFF779FE13E07E
:1010F00012E01A4B7B6101233B610DE0184B7B61D1
:1011000010233B6108E0174B7B6105E0164840F275
:101110003E41FFF75FFE10E07B681B0B03F01F03EF
:10112000FB603B69002B02D03869FFF78FFFFB782B
:101130007869F9681A46FFF753FE1837BD4680BD37
:1011400008800C4044800C4040800C40200004008B
:1011500000366E0100800C4004800C4058800C402A
:1011600060800C4078800C40E41E000090B585B093
:1011700000AF78607B6803F47813B3F5602F00F05C
:101180009980B3F5602F18D8B3F5C02F5ED0B3F5B2
:10119000C02F08D8B3F5003F3ED0B3F5802F51D013
:1011A000002B2BD0D6E0B3F5202F62D0B3F5402F23
:1011B0006DD0B3F5002F4ED0CCE0B3F5B01F00F0EA
:1011C000AF80B3F5B01F0CD8B3F5901F00F0968038
:1011D000B3F5A01F00F09780B3F5801F00F0818069
:1011E000B8E0B3F5D01F00F0AD80B3F5E01F00F01C
:1011F000AD80B3F5C01F00F0A180ABE000F090FA25
:10120000F8605B4B1B6803F4E0339B0B0133FA6817
:10121000B2FBF3F3FB60A5E000F082FAF860544BF8
:101220001B6803F4E0339B0B0133FA68B2FBF3F362
:10123000FB604F4B9B6803F00F03FA6822FA03F33D
:10124000FB608FE000F048FAF8608BE00020FFF7C9
:101250009DFEF86086E00020FFF798FEF860444BA2
:101260009B6E03F0F0031B09FA6822FA03F3FB609C
:1012700078E00020FFF78AFEF8603D4B9B6E03F498
:1012800070631B0AFA6822FA03F3FB606AE000202D
:10129000FFF77CFEF860364B9B6E03F440531C0B4B
:1012A0001020FFF7B3FD03462344FA6822FA03F344
:1012B000FB6057E00020FFF769FEF8602C4B9B6E47
:1012C00003F440531B0BFA6822FA03F3FB60284B2C
:1012D000DB6F03F007030133FA68B2FBF3F3FB6043
:1012E00040E00020FFF752FEF860214B9B6E03F0B8
:1012F0000303FA6822FA03F3FB6033E00120FFF7EF
:1013000045FEF8602EE00120FFF740FEF860184B24
:101310001B6F03F00303FA6822FA03F3FB6021E07A
:101320000120FFF733FEF860114B1B6F03F0300311
:101330001B09FA6822FA03F3FB6013E0FFF7F4FDE0
:10134000F8600FE0FFF7AAFDF8600BE0FFF780FD03
:10135000F86007E007484FF49D61FFF73BFD00236D
:10136000FB6000BFFB6818461437BD4690BD00BF48
:1013700000800C40E41E000080B584B000AF7860AF
:101380000123FB737B6803F00F03BB60BB68013B69
:10139000042B00F28F8001A252F823F0B113000059
:1013A000E7130000231400005F1400008114000004
:1013B000474BDB6A03F47053B3F5805F09D0B3F594
:1013C000005F03D0B3F5006F06D008E00223FB7383
:1013D00008E00323FB7305E00423FB7302E005230D
:1013E000FB7300BF6EE03A4B9B6A03F00303022BD2
:1013F00006D0032B07D0012B08D10323FB730FE08A
:101400000223FB730CE00623FB7309E0304B9B6A5D
:1014100003F48033002B02D00923FB7300E000BFEC
:1014200050E02B4B9B6A03F00C03082B06D00C2BCF
:1014300007D0042B08D10323FB730FE00223FB73B7
:101440000CE00623FB7309E0214B9B6A03F4801335
:10145000002B02D00923FB7300E000BF32E01C4BDD
:101460001B6803F08053002B03D0B3F1805F03D0DF
:1014700028E00723FB7302E00823FB7300BF21E091
:10148000134BDB6A03F46033B3F5803F08D0B3F548
:10149000003F08D0B3F5004F08D10823FB7308E0E4
:1014A0000223FB7305E00323FB7302E00123FB73BC
:1014B00000BF07E0074840F28751FFF78BFC00238D
:1014C000FB7300BFFB7B18461037BD4680BD00BFD5
:1014D00000800C40E41E000090B585B000AFB960FC
:1014E0007B600346FB731346BB73FB7B052B02D863
:1014F000BB680F2B03D94948CC21FFF76BFCBB7BA2
:10150000002B1FD07B68002B0ED04548FA7BBB68B0
:10151000012101FA03F319461346DB0013449B0033
:101520000344103319600DE03D48FA7BBB6801218C
:1015300001FA03F319461346DB0013449B000344EE
:1015400010335960BB68072B1DD83548FA7B344CE3
:10155000F97B0B46DB000B449B0023445968BB68B6
:101560009B000F2404FA03F3DB431940BC7BBB68E8
:101570009B0004FA03F319431346DB0013449B005A
:101580000344596024E02648FA7B254CF97B0B463E
:10159000DB000B449B00234408331968BB6803F14C
:1015A0008043083B9B000F2404FA03F3DB431940FC
:1015B000BC7BBB6803F18043083B9B0004FA03F348
:1015C00019431346DB0013449B000344083319609E
:1015D000BB7B002B1FD17B68002B0ED01048FA7B01
:1015E000BB68012101FA03F319461346DB001344DB
:1015F0009B000344103319600DE00948FA7BBB6877
:10160000012101FA03F319461346DB0013449B0042
:101610000344103359601437BD4690BD341F000099
:1016200000600040074880470749084A084B9B1A5A
:1016300040F30580043BC858D0503FF7FBAF054846
:101640000047000011180000F81F000000000020F3
:101650007000002055010000FEE7FEE7FEE7FEE710
:10166000FEE7FEE7FEE7FEE7FEE7FEE7FEE7FEE752
:10167000FEE7FEE7FEE7FEE7FEE7FEE7FEE7FEE742
:10168000FEE7FEE7FEE7FEE7FEE7FEE7FEE7FEE732
:10169000FEE7FEE7FEE7FEE7FEE7FEE7FEE7FEE722
:1016A000FEE7FEE7FEE7FEE7FEE7FEE7FEE7FEE712
:1016B000FEE7FEE7FEE7FEE7FEE7FEE780B400AFE9
:1016C000044BDB6C1B0EDBB21846BD465DF8047B99
:1016D000704700BFB081E00F80B582B000AF00F06E
:1016E0001FF878600C4B1B6803F4E0339B0B01334D
:1016F0007A68B2FBF3F37B60074B5B6803F00F0380
:101700007A6822FA03F37B60044B7A681A607B687C
:1017100018460837BD4680BD00800C40940000206C
:1017200080B582B000AF2F4BDB6A03F47053B3F582
:10173000805F0AD0B3F5005F03D0B3F5006F08D027
:101740000BE0294B1B687B6047E04FF400437B6054
:1017500043E0264B1B687B603FE0224BDB6803F4D1
:10176000E063B3F5007F1BD0B3F5007F05D8002BF5
:1017700024D0B3F5807F16D02BE0B3F5806F09D06D
:10178000B3F5A06F03D0B3F5407F06D021E0184B2E
:101790007B6021E0174B7B601EE0174B7B601BE0FA
:1017A000164B7B6018E0FFF789FF0346122B02D926
:1017B000134B7B6010E0134B7B600DE0FFF77EFF67
:1017C0000346122B02D9104B7B6005E00F4B7B6068
:1017D00002E000237B6000BF00BF7B68184608372B
:1017E000BD4680BD00800C400400002000000020A9
:1017F000003FAB01406F4001809FD500C0D8A700DB
:1018000040B56400C0CF6A00804F120040420F0014
:1018100080B400AF054B054AD2F8882042F470022C
:10182000C3F88820BD465DF8047B704700ED00E0FA
:1018300080B400AF4FF400431846BD465DF8047B0A
:10184000704700BF80B400AF4FF47A731846BD46AE
:101850005DF8047B704700BF80B400AF034B1B688A
:101860001846BD465DF8047B704700BF04000020A9
:1018700080B582B000AF03463960FB71FB79052B60
:1018800002D83B680F2B04D90A4840F20B21FFF71E
:10189000A1FA0948FA793B68012101FA03F31946D4
:1018A0001346DB0013449B000344103319600837D0
:1018B000BD4680BD841F00000060004080B582B03E
:1018C00000AF03463960FB71FB79052B02D83B68FA
:1018D0000F2B04D90A4840F22221FFF77BFA09486E
:1018E000FA793B68012101FA03F319461346DB003C
:1018F00013449B000344183319600837BD4680BD6C
:10190000841F00000060004080B582B000AF124824
:101910000121FFF7B5FB11480121FFF7B1FB0023BF
:101920007B6011E00E4B7A6813F832200C497B681B
:10193000DB000B445B681046194604220023FFF7C6
:10194000CBFD7B6801337B607B68012BEADD0023E4
:1019500018460837BD4680BD1081020000D2020043
:10196000D41F000080B582B000AF78607B68002B88
:1019700011DB7B68012B0EDC0A4B7A6813F83220EE
:1019800008497B68DB000B445B6810461946FFF78B
:101990006FFF002301E04FF0FF3318460837BD46C4
:1019A00080BD00BFD41F000080B582B000AF78605A
:1019B0007B68002B11DB7B68012B0EDC0A4B7A68FD
:1019C00013F8322008497B68DB000B445B68104643
:1019D0001946FFF773FF002301E04FF0FF3318466D
:1019E0000837BD4680BD00BFD41F000080B400AFE3
:1019F0002C4B2C4A526C42F400525A642A4B2A4A0D
:101A0000D2F8202142F00402C3F82021264B264AB6
:101A1000D2F8202122F44072C3F82021224B224A1E
:101A2000D2F8B82022F47062C3F8B8201E4B1E4AC8
:101A3000D2F8B82042F48062C3F8B820194B1022C3
:101A40001A6200BF174BDB6A03F02003002BF9D0AA
:101A5000164BDB6803F08073002B1ED1134B134A27
:101A6000D26842F08072DA60114B124A1A60124B4F
:101A70000F221A61104B0222C3F8F0200E4B4FF4D4
:101A80008072C3F804234FF060430C4AC3F8B02FB0
:101A90004FF060430A4AC3F8802EBD465DF8047BD0
:101AA000704700BF00800C4000600040F0ED00E097
:101AB000001000E0FF130140000004E055CEACC56B
:101AC0000900010080B582B000AF4FF07E637B60FB
:101AD0007B681B68002B01D1002302E0FFF786FF23
:101AE000012318460837BD4680BD00BF08B5074B27
:101AF000044613B10021AFF30080054B1868836AD8
:101B000003B19847204600F033F800BF0000000002
:101B1000E81F000070B50E4B0E4DED1AAD100024FD
:101B20001E46AC4204D056F8242090470134F8E712
:101B300000F020F8084D094BED1AAD1000241E46A8
:101B4000AC4204D056F8242090470134F8E770BD29
:101B500068000020680000206C0000206800002061
:101B600002440346934202D003F8011BFAE7704790
:101B7000FEE700BFF8B500BFF8BC08BC9E46704742
:101B8000F8B500BFF8BC08BC9E467047433A5C53AA
:101B9000696C69636F6E4C6162735C53696D706CE4
:101BA000696369747953747564696F5C76325C64D7
:101BB0006576656C6F7065725C73646B735C65668B
:101BC0006D33325C76322F656D6C69622F696E639E
:101BD0002F656D5F6770696F2E6800000000000060
:101BE0000000000000005F0000000000000007008F
:101BF0000700000000147F147F14000000242A7FD7
:101C00002A120000002313086462000000364955C0
:101C1000225000000000050300000000001C2241CB
:101C2000000000000041221C0000000000082A1CE7
:101C30002A0800000008083E0808000000A0600014
:101C400000000000000808080808000000606000AC
:101C5000000000000020100804020000003E51496E
:101C6000453E00000000427F4000000000625149F4
:101C7000494600000022414949360000001814126C
:101C80007F1000000027454545390000003C4A49C7
:101C90004930000000017109050300000036494980
:101CA0004936000000064949291E0000000036366A
:101CB000000000000000AC6C0000000000081422CE
:101CC00041000000001414141414000000412214F8
:101CD00008000000000201510906000000324979A5
:101CE000413E0000007E0909097E0000007F49494D
:101CF00049360000003E414141220000007F414141
:101D0000221C0000007F494949410000007F090969
:101D100009010000003E414151720000007F0808A7
:101D2000087F000000417F4100000000002040418A
:101D30003F010000007F081422410000007F404066
:101D400040400000007F020C027F0000007F04087A
:101D5000107F0000003E4141413E0000007F090924
:101D600009060000003E4151215E0000007F091974
:101D70002946000000264949493200000001017F40
:101D800001010000003F4040403F0000001F204094
:101D9000201F0000003F4038403F0000006314084F
:101DA000146300000003047804030000006151493B
:101DB00045430000007F414100000000000204088C
:101DC000102000000041417F0000000000040201DB
:101DD0000204000000808080808000000001020476
:101DE000000000000020545454780000007F484454
:101DF00044380000003844442800000000384444BF
:101E0000487F0000003854545418000000087E0930
:101E1000020000000018A4A4A47C0000007F0804B5
:101E20000478000000007D00000000000080847D38
:101E300000000000007F10284400000000417F40A7
:101E400000000000007C041804780000007C0804F6
:101E50007C000000003844443800000000FC2424CA
:101E60001800000000182424FC00000000007C087A
:101E700004000000004854542400000000047F4483
:101E800000000000003C40407C000000001C20409E
:101E9000201C0000003C4030403C00000044281062
:101EA00028440000001CA0A07C00000000446454F2
:101EB0004C440000000836410000000000007F0094
:101EC000000000000041360800000000000201018F
:101ED00002010000000205050200000054455354B1
:101EE00000000000433A2F53696C69636F6E4C61C8
:101EF00062732F53696D706C69636974795374757B
:101F000064696F2F76322F646576656C6F706572C9
:101F10002F73646B732F65666D33322F76322F65A6
:101F20006D6C69622F7372632F656D5F636D752EC3
:101F300063000000433A2F53696C69636F6E4C6114
:101F400062732F53696D706C69636974795374752A
:101F500064696F2F76322F646576656C6F70657279
:101F60002F73646B732F65666D33322F76322F6556
:101F70006D6C69622F7372632F656D5F6770696F37
:101F80002E630000433A5C53696C69636F6E4C6169
:101F900062735C53696D706C6963697479537475AD
:101FA00064696F5C76325C646576656C6F706572CF
:101FB0005C73646B735C65666D33325C76322F657F
:101FC0006D6C69622F696E632F656D5F6770696FF5
:101FD0002E68000004000000020000000400000061
:101FE0000300000043000000080000200000000083
:081FF00064E1FF7F0100000025
:101FF800006CDC020080000000000000000000000F
:1020080000000000000000000000000000000000C8
:102018000000000000000000E41F000000000000B5
:1020280000000000000000000000000000000000A8
:102038000000000000000000000000000000000098
:102048000000000000000000000000000000000088
:102058000000000000000000250100000101000050
:0400000300001625BE
:00000001FF
