:100000000C942A000C9447000C9447000C94470071
:100010000C9447000C9447000C9447000C94470044
:100020000C9447000C9447000C9447000C94470034
:100030000C9447000C9447000C9447000C94470024
:100040000C9447000C9447000C9447000C94470014
:100050000C94470011241FBECFE5D8E0DEBFCDBF12
:1000600010E0A0E6B0E0EEE2F3E002C005900D92F1
:10007000A836B107D9F710E0A8E6B0E001C01D929C
:10008000A836B107E1F70E94F9000C9495010C9491
:100090000000CF93C82F80EC0E940E01882321F02E
:1000A0000E944D01C0E00BC08C2F0E94530181ECD7
:1000B0000E944A010E946701C82F0E944D018C2FA7
:1000C000CF91089580EC0E940E018FED0E945301A4
:1000D0000E944D0181E0089580EC0E940E0188236A
:1000E00021F00E944D0180E0089580916000909180
:1000F00061009923A4F09C01992314F421503F4FEF
:10010000832F87700E94530180916000909161005D
:1001100060E071E00E946E010E94530106C080E31E
:100120000E94530180E00E945301809162009091EF
:1001300063009923A4F09C01992314F421503F4FAC
:10014000832F87700E945301809162009091630019
:1001500060E071E00E946E010E94530106C080E3DE
:100160000E94530180E00E945301809164009091AD
:1001700065009923A4F09C01992314F421503F4F6A
:10018000832F87700E9453018091640090916500D5
:1001900060E071E00E946E010E94530106C080E39E
:1001A0000E94530180E00E9453018091660090916B
:1001B00067009923A4F09C01992314F421503F4F28
:1001C000832F87700E945301809166009091670091
:1001D00060E071E00E946E010E94530106C080E35E
:1001E0000E94530180E00E9453010E944D0181E072
:1001F000089580E293E0909361008093600078948A
:100200000E940A0180EC0E940E01882311F00E94D6
:100210004D01FFCF11B88CE080B9089594EA96BFE4
:1002200006B607FEFDCF91B1987F983011F090315E
:1002300079F483B984E886BF06B607FEFDCF91B195
:10024000987F983139F081E0903429F480E0089566
:1002500081E0089580E0089524EA34E844E926BF67
:1002600006B607FEFDCF91B1987F983011F090311E
:10027000B1F783B936BF06B607FEFDCF91B1987FBF
:10028000903211F0983529F446BF06B604FCFDCF34
:10029000E6CF08950E940E01089584E986BF06B650
:1002A00004FCFDCF089583B984E886BF06B607FE37
:1002B000FDCF91B1987F81E0983209F480E00895F4
:1002C00084EC86BF06B607FEFDCF83B1089584E8AF
:1002D00086BF06B607FEFDCF83B1089597FB092EB2
:1002E00007260AD077FD04D00CD006D000201AF4DF
:1002F000709561957F4F0895F6F7909581959F4F82
:100300000895AA1BBB1B51E107C0AA1FBB1FA6175C
:10031000B70710F0A61BB70B881F991F5A95A9F7AE
:0E03200080959095BC01CD010895F894FFCF13
:08032E00FFFFFFFFFFFFFFFFCF
:00000001FF
