:1000000000800020B11C0000E71C0000E91C00007B
:10001000EB1C0000ED1C0000EF1C0000E51C0000C4
:10002000E51C0000E51C0000E51C0000291A00008A
:10003000F31C0000E51C0000491A0000A91A00008A
:1000400069100000E915000051020000FF1C0000CB
:10005000011D0000031D0000051D0000071D00001C
:10006000091D00000B1D00000D1D000031160000D1
:10007000111D0000131D0000151D0000171D0000BC
:10008000191D00001B1D00001D1D00001F1D00008C
:10009000211D0000231D0000251D0000271D00005C
:1000A000291D00002B1D00002D1D00002F1D00002C
:1000B000311D0000331D000079160000CD1900002D
:1000C000391D00003B1D00003D1D00003F1D0000CC
:1000D000411D0000431D0000451D0000471D00009C
:1000E0000000000000000000000000000000000010
:1000F0000000000000000000000000000000000000
:1001000010B5054C237833B9044B13B10448AFF351
:1001100000800123237010BD740000200000000047
:10012000CC23000008B5064B1BB106480649AFF3C7
:1001300000800648036813B1054B03B1984708BD1A
:1001400000000000CC230000780000207400002094
:1001500000000000154B002B08BF134B9D46A3F574
:10016000803A00218B460F461348144A121A01F0B8
:10017000E7FF0F4B002B00D098470E4B002B00D011
:1001800098470020002104000D000D48002802D0EF
:100190000C48AFF3008001F0ADFF2000290000F013
:1001A00013F801F093FF00BF00000800008000205A
:1001B000000000000000000074000020400100204A
:1001C000000000000000000001210A4610B50220D6
:1001D00000F01AFF0421512000F0C0FD01F00AFFD9
:1001E000164800F041F9164BA3FB00129209013AA0
:1001F000B2F1807F20D2134B13495A6000240722AA
:10020000E02081F823009C6001211A600F4800F073
:1002100047FD01F087FE204601F0A0FE012001F01D
:100220009DFE00F01DF8204601F090FA01F038FA2A
:10023000642001F0E1FAFEE7FEE700BF20000400C1
:10024000D34D621010E000E000ED00E010810200EC
:10025000024B0120986101F0A7BE00BF00000140E1
:1002600070B51248124C84B0012100F019FD114BF9
:1002700047F61222DA61DE680022012146F001060B
:100280000A200425009201928DF800108DF80110CB
:100290008DF8020002928DF80C201846DE60694647
:1002A000256001F033F904B070BD00BF00520200B8
:1002B00000E100E000000140FEE700BF10B50C4681
:1002C00068B9094A936BD90702D5074BDC6010BDAA
:1002D000D36B9B07F9D5D36B9B07F9D4F5E703489C
:1002E000C921FFF7E9FFECE7001008406C2100008E
:1002F000024B0121002219601A6070470C00024372
:10030000204A214B90425B680AD903F00702023A67
:1003100023F00703012A94BF43F0050343F00403CD
:100320001A4A1B4902448A4211D803F00702023AD2
:10033000032A23F0070305D8012101FA02F212F083
:100340000B0F19D143F001030F4A53607047114A54
:100350009042F9D803F00702023A032A23F0070378
:10036000F2D8012101FA02F212F00B0F064A18BF6F
:1003700043F0020353607047034A43F003035360A2
:10038000704700BF0048E80100000C40FFDB0BFF96
:10039000FF23F4000024F40000F00F00013808B53A
:1003A000042851D8DFE800F01323324103002C4B1E
:1003B000DB6A03F46033B3F5803F41D0B3F5003F0F
:1003C00040D0B3F5004F0CBF0820012008BD244BDE
:1003D000DB6A03F47053B3F5805F33D0B3F5005F8D
:1003E0002ED0B3F5006F0CBF0420052008BD1C4BB8
:1003F000986A00F00300022823D003282BD001289C
:1004000020D09B6ADA030ED5092008BD144A936AEE
:1004100003F00C03082B13D00C2B1CD0042B11D091
:10042000936ADB02F0D4012008BD0D4B1B6813F06A
:10043000805312D0B3F1805F0CBF0820012008BDAB
:10044000022008BD032008BD064840F28751FFF78F
:1004500033FF002008BD062008BD072008BD00BFEF
:1004600000800C409421000000F47810B0F5602F5B
:1004700008B500F0FF8016D8B0F5C02F00F0E78077
:100480003AD8B0F5003F00F0B280B0F5802F00F010
:100490005181002800F0B980C2484FF49D61FFF7F8
:1004A0000BFF002008BDB0F5B01F00F02C8146D82E
:1004B000B0F5901F00F08980B0F5A01F00F0AF806C
:1004C000B0F5801FE8D1B84A936A03F00303022B0A
:1004D00000F04481032B00F0A681012B00F09281F3
:1004E000B14B9B6A180C01D001F012FDAE4B9B6E14
:1004F00003F00303D84008BDB0F5202F4DD0B0F570
:10050000402F00F0D480B0F5002FC5D1A64A936AE1
:1005100003F00303022B00F02A81032B00F0788103
:10052000012B00F07281A04B9B6A180C01D001F0E6
:10053000EFFC9D4B9B6EC3F30313D84008BDB0F591
:10054000D01F13D0B0F5E01F00F0CF80B0F5C01F72
:10055000A2D19648FFF720FF072807D0082854D0DB
:1005600090484FF4CA71FFF7A7FE9AE78E4B5B697C
:1005700003F4E063B3F5007F00F07A8140F2DE809F
:10058000B3F5C06F00F07881B3F5E06F00F07281D1
:10059000B3F5407F85D1864808BD834A936A03F04E
:1005A0000303022B00F0D780032B00F00781012BFF
:1005B00000F0F480936A180C01D001F0A9FC7A4B8A
:1005C0009B6EC3F30323D84008BD774A936AC3F3F5
:1005D0008103022B00F09380032B00F0D180012BCC
:1005E00000F0B580936A180D3FF45CAF3EE001F077
:1005F0001BFC6D4B1A689B68C2F382320132B0FB60
:10060000F2F003F00F03D84008BD01F00DFC664B7B
:100610001B68C3F382330133B0FBF3F008BD624AB9
:10062000936AC3F38103022B00F0A780032B00F031
:10063000DF80012B00F0D980936A1B0D40F02481EC
:100640000020594B1B6F03F00303D84008BD564AE6
:10065000936A03F00303022B51D0032B00F0908028
:10066000012B74D0936A180C3FF41CAFBDE808400E
:1006700001F04EBC4C4A936A03F00303022B79D07D
:10068000032B00F0A580012B00F0AC80936A180CBE
:1006900001D001F03DFC444B9A6EDB6FC2F3013296
:1006A00003F00703D0400133B0FBF3F008BD3E4A2E
:1006B000936A03F00303022B53D0032B00F0CE8088
:1006C000012B00F0C880936A1B0C40F0E0800020F2
:1006D000354B10229B6EB2FA82F2D2B2C2F11F02E7
:1006E000C3F301331344D84008BD3248FFF754FE2A
:1006F00003282CD008284DD002287FF4D2AEBDE8C4
:10070000084001F009BC284A936AC3F38103022B15
:100710002AD0032B00F09580012B00F08F80936A84
:10072000180D01D001F0F4FB1F4B1B6FC3F3011335
:10073000D84008BDBDE8084001F006BB002B00F022
:100740009D80B3F5807F7FF4ACAE1B4808BDBDE84B
:10075000084001F0D9BB01F0DFFB30E701F0DCFB22
:10076000C4E601F0D9FBB3E701F0D6FBDCE701F00A
:10077000D3FBDEE601F0D0FB8DE701F0CDFB60E7B7
:100780005368D90502D413685A0079D501F0DCFA10
:10079000800808BDBDE8084001F046BB01F0B4FB8D
:1007A0000DE700BF9421000000800C4004001800F9
:1007B00040420F0005231C00C0D8A7005368D9058C
:1007C00002D413685A0075D501F0BEFA8008F6E627
:1007D0005368D90502D413685A0073D501F0B4FAEE
:1007E000800858E701F090FB55E701F08DFB28E702
:1007F0005368DB0502D41368580057D501F0A4FAFA
:1008000080081EE701F080FB70E601F07DFB90E6BA
:100810005368DB0503D42D4B1B6858004ED501F0FF
:1008200093FA800885E65368DB0503D4274B1B68E1
:1008300058002FD501F088FA800857E601F064FBD4
:1008400072E75368D90502D413685B0026D501F01E
:100850007BFA800868E701F057FB39E75368DB054E
:1008600002D4136858001DD501F06EFA80082FE7F6
:10087000174808BD174808BD174808BD174808BDE8
:1008800001F062FA400808BD01F042FBD9E601F030
:100890003FFB1DE701F058FA400827E601F054FA43
:1008A000400841E701F050FA400811E701F04CFA26
:1008B0004008C6E601F048FA400880E601F044FA34
:1008C000400836E601F040FA4008E4E600800C40BB
:1008D000C0CF6A00406F4001003FAB01809FD50050
:1008E00038B5C0F30313013B0C46042B00F2CB8058
:1008F000DFE803F02B3C7AA303004C1E072C04D93D
:10090000AD4840F23B31FFF7D7FCAC4B5B6803F0DE
:100910000702052A0AD8012101FA02F212F02C0F6F
:1009200040F0DC8012F0130F40F01A81A349A44A72
:100930004B60136823F4E03343EA8434146001F01D
:1009400003FABDE83840FFF7DBBC4D1EB5F5007F6C
:1009500080F02481B4FA84F4994B9A68E4B2C4F12B
:100960001F0422F00F0222439A6038BDB1F5007FC8
:1009700000F20E81914B5B6803F00702052A0AD84A
:10098000012101FA02F212F02C0F40F0AC8012F0BB
:10099000130F40F0E080894A51205360FFF764FD57
:1009A000884B8949894AB0FBF4F0984294BF0023F0
:1009B00001230B601360631EB3F5004F03D37E4821
:1009C000BB21FFF779FCB4FA84F47D4B5A68E4B29A
:1009D000C4F11F0422F00F0222435A6001F0B4F95F
:1009E000BDE83840FFF78CBC794B984200F01C8181
:1009F0007ED9784B984200F0F380774B984240F0D4
:100A0000B480082900F23C816D4A536DD90740F14A
:100A10009480631EB3F5004F03D36748BB21FFF7F3
:100A20004BFCB4FA84F1664B9A6EC9B2C1F11F0156
:100A300022F003020A439A6638BD684B984230D0D0
:100A400003F50433984225D1082900F29B805C4AC3
:100A5000536DD90710D5631EB3F5004F76D2B4FAA3
:100A600084F1574B1A6FC9B2C1F11F0122F0300255
:100A700042EA01121A6738BD136D5B06EBD5136DA0
:100A80005B06F9D4E7E74C4840F2EB31BDE838406B
:100A9000FFF712BC484840F2E531BDE83840FFF7A7
:100AA0000BBC082968D8464A536DDD070FD5631E75
:100AB000B3F5004F45D2B4FA84F1414B1A6FC9B275
:100AC000C1F11F0122F003020A431A6738BD136DFA
:100AD0005806ECD5136D5806F9D4E8E723F0070360
:100AE00043F0050322E723F0070343F0050352E731
:100AF000A3F50433984238D1B1F5004F00F2C68017
:100B00002F4A536DDD0714D5631EB3F5004F03D391
:100B10002948BB21FFF7D0FBB4FA84F1284B9A6E29
:100B2000C9B2C1F11F0122F0F00242EA01129A6635
:100B300038BD136D5807FCD4E6E7136D5B07FCD492
:100B400067E71D48BB21FFF7B7FBB4E71A48BB2195
:100B5000FFF7B2FB83E723F0070343F004031AE730
:100B600023F0070343F00403E0E6134840F2BE31EC
:100B7000BDE83840FFF7A0BB0F484FF47271FFF794
:100B80009BFB90E70C4840F2D731FFF795FB5EE7FF
:100B9000094840F25631FFF78FFBEBE6064840F27A
:100BA0004E31FFF789FBB5F5004FFFF4D3AE024895
:100BB000BB21FFF781FBCDE69421000000000C4033
:100BC00000800C4000366E0178009043A0009043F6
:100BD00030240A0030000C003004100040051400DE
:100BE000A1F11003702B45D82B4A536DDD0717D5A3
:100BF000631EB3F5004F03D32848BB21FFF75CFB0E
:100C0000B4FA84F4244B10219A6EB1FA81F1E4B263
:100C1000C9B2091B22F4405242EA01329A6638BD39
:100C2000136D5807FCD4E3E7B1F5004F1CD81A4AFE
:100C3000536DD90714D5631EB3F5004F03D317487E
:100C4000BB21FFF739FBB4FA84F1134B9A6EC9B29A
:100C5000C1F11F0122F4706242EA01229A6638BD96
:100C6000136D5B07FCD4E6E70C4840F29231FFF7C6
:100C700023FBDCE7094840F2A131FFF71DFBB3E796
:100C800006484FF46C71FFF717FBBDE603484FF4BD
:100C90006171FFF711FB33E700800C4094210000E5
:100CA00030B5C0F30323013B83B00446052B32D893
:100CB000DFE803F01B171F2E031D1C4A10201C4DDC
:100CC0006B6DDB07C4F3043404D522449200116039
:100CD00003B030BD2B6D1842F7D02B6D1842F9D1FF
:100CE000F3E7144AC4F30434EFE7134AFAE7134A6C
:100CF000F8E713480191FFF7B7FB124B01999842AF
:100D000011D9114D1148124A01232B600360E9E704
:100D1000104A0120D3E7104840F23E4103B0BDE83D
:100D20003040FFF7C9BA0A4ADCE700BF0003E4100D
:100D300000800C402002E4104000E410C003E410E6
:100D40002000040000366E0178009043A00090431C
:100D50000002E410C002E4109421000038B500F055
:100D60000F04631E042B38D8DFE803F0291A1A1089
:100D7000030003293ED0082962D0022950D08E48B2
:100D800040F29F61BDE83840FFF796BA07292BD0A3
:100D900008293ED1894B1A6842F080521A6038BD4A
:100DA0000139082900F2E880DFE811F09100950090
:100DB000A200E600E600AE00E600E6007B00023995
:100DC000072900F2D280DFE811F07C00C500AF00F7
:100DD0004200D000D000D000C900774840F2A7619F
:100DE000BDE83840FFF768BA744B1A6822F08052A9
:100DF0001A6038BD714A40231362D36A6F4C1906DA
:100E0000FBD500F073F960236362E36A9B03FCD5B2
:100E100038BD69484FF4CE61BDE83840FFF74CBAA1
:100E2000664A4FF480731362D36A644C9D05FBD508
:100E300000F05CF940236362E36AD803FCD538BD57
:100E40005E4A20235362D36A1B04FCD538BD0124BB
:100E50000123022259490B62CB6A1A42FCD000F0EE
:100E600045F9574B5B6803F00702052A0DD80121AD
:100E700001FA02F212F02C0F40F0858012F0130FED
:100E800003D023F0070343F004034D494B4A4B6062
:100E9000546200F02BF900F057FFBDE83840FFF72F
:100EA0002FBA4FF480114FF480330022022C6FD000
:100EB000424A936A23F4801323F00C030B4393629A
:100EC00038BD04244FF480734FF40072C2E7002150
:100ED0000B460A46EAE7394A4FF480731362D36A35
:100EE0009805FCD500F002F9082100230222DDE775
:100EF000324A40231362D36A1906FCD500F0F6F893
:100F0000042100230122D1E72E4B01251D6000F0B2
:100F10001BFF2D4B984245D92C4A2D4B15600C21B7
:100F20001D6003220023C1E700F0DEFF264B98423C
:100F3000224B1A683AD942F0804242F060021A60AD
:100F40001B6CDC0602D5224B01221A60022404230A
:100F500008227FE70324402380227BE7164840F2E3
:100F6000F551FFF7A9F9032472E7134840F2FA514B
:100F7000BDE83840FFF7A0B90F4840F24561BDE831
:100F80003840FFF799B923F0070343F005037CE7E6
:100F90000A48816A21F48031134321F00301194387
:100FA000816238BD0C21002303227FE722F060021A
:100FB00042F020021A60C9E79421000000800C4032
:100FC00000000C401008904300366E0178009043FA
:100FD000A0009043802810B504460BD8084B9A6DAA
:100FE000120706D4DA6F04F0070422F00702144354
:100FF000DC6710BD034840F2D471FFF75DF9EDE7FF
:1010000000800C4094210000052824D8DFE800F07F
:101010001B20030F171A0423082061B110490B622B
:101020001AB10A46D36A1842FCD000F05FB8012317
:1010300002200029F2D10A4B186200F057B81023A1
:101040002020EAE770474FF480734FF40070E4E724
:1010500040238020E1E7034840F62B01FFF72CB93D
:1010600000800C40942100001D4A1E4B126841F282
:101070000C012DE9F04759580A402ED4996BDFF83E
:101080006890984602EA010422EA010A022704B3A2
:1010900000250126E20706FA05F316D5D8F8082040
:1010A000C9F8003002EB05132846DB686BB11A7AE9
:1010B000D3F800C0111C82F0010218BF01211A727E
:1010C000BCF1000F01D05A68E047640805F1010542
:1010D000E0D1013F02D1BDE8F087FEE75446D6E7F4
:1010E00000300C4000200C4008300C40024A034BFA
:1010F000D26A1A80704700BF00800C409000002028
:101100000528F8B504460D4616461F462DD80F296A
:101110002BD8E20056B1002F3CD013199B0003F1ED
:10112000804303F5C0430121A940196111198900C9
:1011300001F18041072D01F5C0411BD8AB00486883
:101140004FF00F0C0CFA03FC20EA0C0006FA03F334
:1011500003434B6046B9224427BB174B920013440C
:10116000012202FA05F55D60F8BD1448CC21FFF7B5
:10117000A3F8CEE705F18043083B88689B004FF059
:101180000F0C0CFA03FC20EA0C0006FA03F30343ED
:101190008B60DFE71119084B89000B440121A9403E
:1011A0005960C3E7920002F1804202F5C042012378
:1011B00003FA05F51561F8BD10600040A821000094
:1011C0002DE9F843144B04465D6800B3D4F80C9045
:1011D000D4F8048094F808C0677A268A0E4B2178E8
:1011E000186825F4830222F01F0249EA080422430A
:1011F00042EA0C023A43324320F0010018605A6080
:1012000019B11A6842F001021A60BDE8F883034878
:101210004321FFF751F8D9E700A00840BC210000A6
:10122000054B054A5B68B0F5803F23F4803308BF67
:1012300043F480335360704700A00840044B9A6821
:1012400019B922EA0000986070471043986070470F
:1012500000A00840072870B504460D4616460FDC6E
:10126000272D07DC072C4FD8DFE804F0181F272FA5
:10127000363E46102A484FF48871FFF71DF8F1E713
:10128000274840F20911FFF717F8E9E71F2DD4BFEF
:10129000244B254B2B449B001E6070BD1F2D3ADC58
:1012A000224B2B449B001E6070BD1F2DD4BF204BD2
:1012B000204B2B449B001E6070BD1F2DD4BF1E4BC6
:1012C0001E4B2B449B001E6070BD1F2D23DD1C4B4D
:1012D0002B449B001E6070BD1F2DD4BF194B1A4BB1
:1012E0002B449B001E6070BD1F2DD4BF174B184BA5
:1012F0002B449B001E6070BD1F2DD4BF154B164B99
:101300002B449B001E6070BD054840F28B11BDE868
:101310007040FEF7D1BF114B2B449B001E6070BD87
:10132000BC210000C006C510E005C5100002C510B4
:101330002002C5108002C5104002C510A002C510D1
:10134000C002C5106006C5108005C5108006C51016
:10135000A005C510A006C510C005C5106002C510C7
:10136000072870B504460D46164607DC072C53D8EF
:10137000DFE804F0141C242C343E480A2A4840F2CA
:10138000A511FEF799FFF1E7284BD3F8D8202E409E
:1013900022EA05053543C3F8D85070BD234B1A6CBB
:1013A0002E4022EA050535431D6470BD1F4B5A6C63
:1013B0002E4022EA050535435D6470BD1B4B9A6CD7
:1013C0002E4022EA050535439D6470BD174BDA6C4B
:1013D0002E4022EA05053543DD6470BD134BD3F87A
:1013E000CC202E4022EA05053543C3F8CC5070BD11
:1013F0000E4BD3F8D0202E4022EA05053543C3F822
:10140000D05070BD094BD3F8D4202E4022EA0505F8
:101410003543C3F8D45070BD03484FF4F371BDE8B1
:101420007040FEF749BF00BFBC21000000A008408B
:10143000072870B504460D46164611DC072C0ED859
:10144000DFE804F0141C242C343E4804264BD3F867
:10145000C0202E4022EA05053543C3F8C05070BDB8
:10146000224840F2FF11FEF727FFE7E71E4B1A6DF7
:101470002E4022EA050535431D6570BD1A4B5A6D95
:101480002E4022EA050535435D6570BD164B9A6D09
:101490002E4022EA050535439D6570BD124BDA6D7D
:1014A0002E4022EA05053543DD6570BD0E4BD3F8AD
:1014B000B4202E4022EA05053543C3F8B45070BD70
:1014C000094BD3F8B8202E4022EA05053543C3F86E
:1014D000B85070BD044BD3F8BC202E4022EA05055D
:1014E0003543C3F8BC5070BD00A00840BC210000CB
:1014F000034B5A6822F4E01210435860704700BF53
:1015000000A008404FF08643186070472DE9F84F5F
:10151000334B984205460C460FD003F58063984242
:101520000BD003F58063984207D003F5806398429F
:1015300003D02C484F21FEF7BFFE23780BB90222BF
:101540006A60E27894F802B094F808A0A17994F85F
:101550000190667A94F80780A07A94F80BC02779F6
:10156000120442EA0B6242EA0A02B9F1000F42EAAF
:10157000812242EA08220CBF00214021002E42EACB
:1015800001020CBF0021802100286679207B42EAFD
:1015900001020CBF00212021BCF1000F42EA010230
:1015A0000CBF00211021002F42EA01020CBF0021D4
:1015B0004FF40051002E42EA01020CBF00214FF00F
:1015C0008051002842EA01020CBF002108210A4391
:1015D000002169622A600BB101236B60BDE8F88FBE
:1015E00000000140D02100000F4BD3F81011D3F8B8
:1015F000142170B50A4045F255541440C3F81C41FB
:101600008CB10A4E012594FAA4F3B3FA83F3DBB24A
:10161000184656F8232005FA03F324EA030402B11E
:101620009047002CEFD170BD006000409400002076
:101630000F4BD3F81011D3F8142170B50A404AF6B5
:10164000AA241440C3F81C418CB10A4E012594FA17
:10165000A4F3B3FA83F3DBB2184656F8232005FA55
:1016600003F324EA030402B19047002CEFD170BDCC
:10167000006000409400002008B50020FFF742FF02
:10168000054B064A02219961D96921F00201D9610D
:10169000136803B1984708BD00000840D40000203B
:1016A00010B5294C002021460246FFF759FE21467D
:1016B00001200022FFF754FE214602200022FFF7FE
:1016C0004FFE214603200022FFF74AFE2146042058
:1016D0000022FFF745FE214605200022FFF740FECD
:1016E000214606200022FFF73BFE2146072000226C
:1016F000FFF736FE00200246FF21FFF799FE01208A
:10170000FF210022FFF794FE0220FF210022FFF7B5
:101710008FFE0320FF210022FFF78AFE0420FF2115
:101720000022FFF785FE0520FF210022FFF780FE43
:101730000620FF210022FFF77BFE0720FF21002269
:10174000BDE81040FFF774BE00F00FF010B50121A6
:1017500004462248FFF7A4FA21480321FFF7FEFAC6
:1017600040212048FFF7BCF80120FFF733FC01219E
:101770001D48FFF795FA1D4B1D489A6A00229A6290
:10178000FFF71EFD08200121FFF758FD1020012161
:10179000FFF754FD80200121FFF750FD4FF48070CA
:1017A0000121FFF74BFD4FF400700121FFF746FDCB
:1017B00034B9FFF775FF0D4A536E002BFCD110BDF5
:1017C0004FF44020FFF794FE4FF48030FFF728FDE0
:1017D000084BDA6F42F00802DA67EAE700430400D8
:1017E0000200060030000C0000340E0000A008408B
:1017F0003C23000000800C402DE9F84F42F20E73AC
:101800009842064600F3A9805A4B9842B8BF1E463C
:1018100080F2A880304600F055FC4FF001090646E2
:10182000554A556E544B002DFBD14FF0010BC3F8B8
:1018300060B0584678212A46FFF7FAFD0220782149
:101840002A46FFF7F5FD032078212A46FFF7F0FD31
:10185000042078212A46FFF7EBFD052078212A464F
:10186000FFF7E6FD062078212A46FFF7E1FD072075
:1018700078212A46FFF7DCFD404CDFF80881404F15
:10188000AA4696FBFBF287FB0231D317C3EBA103F9
:1018900003EB8303A2EB4303B9F1000F58D19BB2D2
:1018A00038F8135094F8CB1094F8C400EB074BD4DD
:1018B000AA0794F8CC1094F8C50041D46B0794F8AB
:1018C000CD1094F8C60037D42A0794F8CE1094F8B7
:1018D000C7002DD4EB0694F8CF1094F8C80023D499
:1018E000AA0694F8D01094F8C90019D46B0694F89D
:1018F000D11094F8CA000FD40AF1010A0BEB8B0B3C
:10190000BAF1040F4FEA4B0B04F10E04B9D11A4B94
:1019100000221A66BDE8F88F0122FFF79BFCEBE777
:101920000122FFF797FCE1E70122FFF793FCD7E7DD
:101930000122FFF78FFCCDE70122FFF78BFCC3E705
:101940000122FFF787FCB9E70122FFF783FCAFE72D
:10195000BAF1030FA3D11023A2E74FF0000942F21E
:101960000F765DE7002EA8BF4FF00009BFF658AF15
:1019700050E700BF19FCFFFF00A008401C22000038
:1019800067666666F8210000436830B49A680568A7
:101990008A609C684B606A1C6160996030BC086119
:1019A0000260704742688168036910B49160816881
:1019B0005C684A601A68844208BF5960013A002195
:1019C00001615DF8044B1A6010467047124A1348D3
:1019D000134B10B501214FF0805404601160196859
:1019E0000020FEF76BFCFEF783FCEFF311834FF052
:1019F000BF0282F31188BFF36F8FBFF34F8F00F0E8
:101A00006BF8002383F31188064B07221A63BDE8A5
:101A10001040FEF76DBC00BF0C00024304ED00E077
:101A2000D800002000100840064B19680868B0E88C
:101A3000F04F80F30988BFF36F8F4FF0000080F301
:101A40001188704720010020EFF30980BFF36F8FEA
:101A5000144B1A681EF0100F08BF20ED108A20E901
:101A6000F04F10604DF8043D4FF0BF0080F3118837
:101A7000BFF34F8FBFF36F8F00F0E0F84FF000001F
:101A800080F3118808BC19680868B0E8F04F1EF0B0
:101A9000100F08BFB0EC108A80F30988BFF36F8F76
:101AA000704700BF2001002008B5EFF311834FF00D
:101AB000BF0282F31188BFF36F8FBFF34F8F00F027
:101AC0000BF818B1034B4FF080521A60002383F3D8
:101AD000118808BD04ED00E02DE9F04F4B4B1B6869
:101AE00083B0002B53D14A4B1A6801321A601F6829
:101AF000002F5AD0474A019213689F426ED3464E38
:101B0000DFF83091DFF83081444D00242CE0424A68
:101B10001368DB68D3F80CA0DAF804200AF1040B90
:101B2000974258466ED3FFF73DFFDAF828200AF1B6
:101B300018000AB1FFF736FFDAF82C002A680123F3
:101B400003FA00FE00EB80004EEA0202594609EB60
:101B500080002A60FFF718FFD8F80010DAF82C2070
:101B6000CB6A9A4228BF012433681B68002BCED170
:101B7000019A4FF0FF331360D8F80030DB6A03EBB3
:101B8000830359F82330022B28BF012404E0244B9F
:101B90001A6801321A600024224B1B68002B18BF00
:101BA0000124204603B0BDE8F08F1B4E33681B684C
:101BB00013BB1D4A31681D4B1068306011601A68F4
:101BC000154901321A6033681B686BB9114A0192DA
:101BD0004FF0FF33136013689F4290D2DFF85490A8
:101BE000DFF854800024C7E70B680A4ADB680192DB
:101BF000DB685B6813607FE70D4840F2A571FEF774
:101C00005BFBD6E7019B1A60B6E700BF1C01002012
:101C10002801002000000020DC000020340100200A
:101C200030010020380100202C0100202401002078
:101C300050230000E000002020010020164B1B680C
:101C400070B5F3B91549164A0B601468B4FA84F4F8
:101C5000E4B2C4F11F04A6003319124D55F8233025
:101C60009BB1321905EB820202F1080153685B68EF
:101C700053608B4204BF5B6853600B4ADB681360A0
:101C800070BD064B01221A6070BD084840F6C401C1
:101C9000FEF712FBE5E700BF1C0100203801002021
:101CA00034010020E000002020010020502300002B
:101CB000074880470749084A084B9B1A40F30580AC
:101CC000043BC858D0503FF7FBAF05480047000021
:101CD000F51E0000D8230000000000207400002042
:101CE00055010000FEE7FEE7FEE7FEE7FEE7FEE740
:101CF000FEE7FEE7FEE7FEE7FEE7FEE7FEE7FEE7BC
:101D0000FEE7FEE7FEE7FEE7FEE7FEE7FEE7FEE7AB
:101D1000FEE7FEE7FEE7FEE7FEE7FEE7FEE7FEE79B
:101D2000FEE7FEE7FEE7FEE7FEE7FEE7FEE7FEE78B
:101D3000FEE7FEE7FEE7FEE7FEE7FEE7FEE7FEE77B
:101D4000FEE7FEE7FEE7FEE72A4AD36A03F4705394
:101D5000B3F5805F2AD0B3F5005F24D0B3F5006FF0
:101D600011D0D36803F4E063B3F5007F3FD020D9EE
:101D7000B3F5806F39D0B3F5A06F34D0B3F5407FA1
:101D800025D0002101E01C4B19681A4B1B4A18682A
:101D90005B68C0F382300130B1FBF0F003F00F0359
:101DA000D84010607047164B1968EEE74FF40041B9
:101DB000EBE773B1B3F5807FE3D1124B124AD96CD4
:101DC000124BB1F1985F34BF11461946DDE7104957
:101DD000DBE70C4B0F4AD96C0F4BB1F1985F34BF66
:101DE00011461946D1E70D49CFE70D49CDE70D4919
:101DF000CBE700BF00800C40080000203C01002021
:101E000004000020B081E00FC0CF6A0040B564003C
:101E1000809FD50040420F00804F1200003FAB0171
:101E2000406F4001C0D8A700234AD36A03F470531F
:101E3000B3F5805F1DD0B3F5005F17D0B3F5006F29
:101E400011D0D36803F4E063B3F5007F32D013D927
:101E5000B3F5806F2CD0B3F5A06F27D0B3F5407FDA
:101E600018D000207047154B18687047144B18683D
:101E700070474FF40040704773B1B3F5807FF0D1E5
:101E8000104B114AD86C114BB0F1985F34BF10461B
:101E9000184670470E4870470A4B0E4AD86C0E4BD6
:101EA000B0F1985F34BF1046184670470B48704732
:101EB0000B4870470B48704700800C40080000201A
:101EC00004000020B081E00FC0CF6A0040B564007C
:101ED000809FD50040420F00804F1200003FAB01B1
:101EE000406F4001C0D8A700014B1868704700BF81
:101EF00008000020034BD3F8882042F47002C3F896
:101F00008820704700ED00E04FF40040704700BFAC
:101F10004FF47A70704700BF014B1868704700BFDC
:101F20000400002008B50B480121FEF7B9FE0A485D
:101F30000121FEF7B5FE0420024602210023FFF72F
:101F4000DFF80420024603210023FFF7D9F8002020
:101F500008BD00BF1081020000D20200012838B580
:101F60001BD80F4B13F8304003EBC002052C55680B
:101F700001D80F2D04D90B4840F20B21FEF79CF934
:101F800004EBC404A40004F1804404F5C04401231C
:101F900003FA05F52561002038BD4FF0FF3038BD4C
:101FA000B423000064230000012838B51BD80F4B70
:101FB00013F8304003EBC002052C556801D80F2DF3
:101FC00004D90B4840F22221FEF776F904EBC40451
:101FD000A40004F1804404F5C044012303FA05F58C
:101FE000A561002038BD4FF0FF3038BDB42300009C
:101FF000642300004FF07E632DE9F003186810B9E8
:10200000BDE8F00370472749274B4A6C42F4005261
:102010004A64D3F8202142F00402C3F82021D3F807
:10202000202122F44072C3F82021D3F8B82022F4F2
:102030007062C3F8B820D3F8B820102042F4806250
:10204000C3F8B8200A460862D36A9906FCD5174B34
:10205000DA68D20121D4D868154ADFF86080DFF849
:102060006090144D144C4FF0604140F08070022796
:102070004FF480764FF00F0CD860C8F80090012024
:10208000C2F810C0C2F8F070C2F80463C1F8B05FC3
:10209000C1F8804EBDE8F00370470120BDE8F003B1
:1020A000704700BF00800C4000600040F0ED00E091
:1020B000000004E055CEACC509000100001000E0AE
:1020C000FF1301400028B8BF4042704708B5074BD6
:1020D000044613B10021AFF30080054B1868836AF2
:1020E00003B19847204600F033F800BF000000001D
:1020F000C823000070B50E4B0E4DED1AAD10002434
:102100001E46AC4204D056F8242090470134F8E72C
:1021100000F020F8084D094BED1AAD1000241E46C2
:10212000AC4204D056F8242090470134F8E770BD43
:102130006C0000206C000020700000206C0000206B
:1021400002440346934202D003F8011BFAE77047AA
:10215000FEE700BFF8B500BFF8BC08BC9E4670475C
:10216000F8B500BFF8BC08BC9E4670472E2E2F6500
:102170006D6C69622F656D5F62757274632E6300AA
:102180002E2E2F656D6C69622F656D5F627572749E
:10219000632E68002E2E2F656D6C69622F656D5F52
:1021A000636D752E630000002E2E2F656D6C6962C5
:1021B0002F656D5F6770696F2E6300002E2E2F658F
:1021C0006D6C69622F656D5F6C63642E6300000047
:1021D0002E2E2F656D6C69622F656D5F74696D655C
:1021E000722E63002E2E2F656D6C69622F656D5FF8
:1021F00074696D65722E68003F0006005B004F0039
:1022000066006D007D0007007F006F0077007C0096
:1022100039005E00790071004000000001010507EF
:10222000070304020302040605060D0E0E0E0D0D33
:102230000D0D0E0E0E0E0D0D010105070703040214
:102240000302040605060F1010100F0F0F0F1010D9
:1022500010100F0F01010507070304020302040613
:10226000050611121212111111111212121211116E
:102270000101050707030402030204060506131CF7
:102280001C1C131313131C1C1C1C13130001050727
:10229000060203010302040604051D1E1E1E1D1D69
:1022A0001D1D1E1E1E1E1D1D000105070602030129
:1022B0000302040604051F2020201F1F1F1F2020CB
:1022C00020201F1F01010507070304020302040663
:1022D000050621222222212121212222222221211E
:1022E00007050201030604232323232323230705D1
:1022F00002010306042424242424242407050201C3
:1023000003060425252525252525070502010306A5
:10231000042626262626262600010702062727272A
:1023200027270000000000000000131211100F0EFC
:102330000D0C0000000021252426000001000000F3
:10234000030040000C00000000000000000000003E
:102350002E2E2F4672656552746F732F7461736BE6
:10236000732E6300433A5C53696C69636F6E4C6112
:1023700062735C53696D706C6963697479537475C9
:1023800064696F5C76325C646576656C6F706572EB
:102390005C73646B735C65666D33325C76322F659B
:1023A0006D6C69622F696E632F656D5F6770696F11
:1023B0002E6800000400000002000000040000007D
:1023C00003000000430000000C000020000000009B
:0823D00084DDFF7F0100000025
:1023D800FFFFFFFF00800000006CDC02000000002F
:1023E80000000000000000000000000000000000E5
:1023F800000000000000000000000000C4230000EE
:1024080000000000000000000000000000000000C4
:1024180000000000000000000000000000000000B4
:1024280000000000000000000000000000000000A4
:10243800000000000000000000000000250100006E
:04244800010100008E
:0400000300001CB12C
:00000001FF
