:1000000000800020250900005B0900005D09000058
:100010005F09000061090000630900005909000040
:10002000590900005909000059090000650900003C
:100030006709000059090000690900003902000041
:100040006D0900006F0900007109000073090000CC
:100050007509000077090000790900007B0900009C
:100060007D0900007F09000081090000830900006C
:100070008509000087090000890900008B0900003C
:100080008D0900008F09000091090000930900000C
:100090009509000097090000990900009B090000DC
:1000A0009D0900009F090000A1090000A3090000AC
:1000B000A5090000A7090000A9090000AB0900007C
:1000C000AD090000AF090000B1090000B30900004C
:1000D000B5090000B7090000B9090000BB0900001C
:1000E0000000000000000000000000000000000010
:1000F0000000000000000000000000000000000000
:1001000010B5054C237833B9044B13B10448AFF351
:1001100000800123237010BD70000020000000004B
:100120005C0E000008B5064B1BB106480649AFF34C
:1001300000800648036813B1054B03B1984708BD1A
:10014000000000005C0E0000740000207000002021
:1001500000000000154B002B08BF134B9D46A3F574
:10016000803A00218B460F461348144A121A00F0B9
:1001700017FE0F4B002B00D098470E4B002B00D0E2
:1001800098470020002104000D000D48002802D0EF
:100190000C48AFF3008000F0DDFD2000290000F0E6
:1001A00013F800F0C3FD00BF00000800008000202D
:1001B00000000000000000007000002094000020FB
:1001C000000000000000000008B500F047FD1548E1
:1001D00000F0AEF8144BA3FB00129209013AB2F101
:1001E000807F1DD2114B12495A60E0200722002463
:1001F00081F823009C600F481A60012100F0D4FAB6
:1002000000F0C4FC204600F0DDFC002000F000FD02
:10021000012000F0FDFC4FF47A7000F015F8F4E7CF
:10022000FEE700BF20000400D34D621010E000E0A4
:1002300000ED00E010810200024B1A6801321A60E2
:10024000704700BF8C000020034A116813685B1AD6
:100250008342FBD3704700BF8C000020FEE700BF45
:1002600000F00F00013808B5042851D8DFE800F08D
:100270001323324103002C4BDB6A03F46033B3F5E4
:10028000803F41D0B3F5003F40D0B3F5004F0CBFE5
:100290000820012008BD244BDB6A03F47053B3F53A
:1002A000805F33D0B3F5005F2ED0B3F5006F0CBF85
:1002B0000420052008BD1C4B986A00F003000228AA
:1002C00023D003282BD0012820D09B6ADA030ED537
:1002D000092008BD144A936A03F00C03082B13D0BD
:1002E0000C2B1CD0042B11D0936ADB02F0D401201C
:1002F00008BD0D4B1B6813F0805312D0B3F1805F23
:100300000CBF0820012008BD022008BD032008BD45
:10031000064840F28751FFF7A1FF002008BD0620E4
:1003200008BD072008BD00BF00800C40CC0D0000B8
:1003300000F47810B0F5602F08B500F0FF8016D8F3
:10034000B0F5C02F00F0E7803AD8B0F5003F00F0DC
:10035000B280B0F5802F00F05181002800F0B98004
:10036000C2484FF49D61FFF779FF002008BDB0F54A
:10037000B01F00F02C8146D8B0F5901F00F08980A6
:10038000B0F5A01F00F0AF80B0F5801FE8D1B84AEB
:10039000936A03F00303022B00F04481032B00F067
:1003A000A681012B00F09281B14B9B6A180C01D001
:1003B00000F0E2FBAE4B9B6E03F00303D84008BD98
:1003C000B0F5202F4DD0B0F5402F00F0D480B0F51F
:1003D000002FC5D1A64A936A03F00303022B00F055
:1003E0002A81032B00F07881012B00F07281A04B51
:1003F0009B6A180C01D000F0BFFB9D4B9B6EC3F3B2
:100400000313D84008BDB0F5D01F13D0B0F5E01FDE
:1004100000F0CF80B0F5C01FA2D19648FFF720FFB3
:10042000072807D0082854D090484FF4CA71FFF726
:1004300015FF9AE78E4B5B6903F4E063B3F5007F29
:1004400000F07A8140F2DE80B3F5C06F00F0788171
:10045000B3F5E06F00F07281B3F5407F85D1864837
:1004600008BD834A936A03F00303022B00F0D78090
:10047000032B00F00781012B00F0F480936A180C25
:1004800001D000F079FB7A4B9B6EC3F30323D84075
:1004900008BD774A936AC3F38103022B00F093806F
:1004A000032B00F0D180012B00F0B580936A180D6A
:1004B0003FF45CAF3EE000F0F1FA6D4B1A689B68C8
:1004C000C2F382320132B0FBF2F003F00F03D840E6
:1004D00008BD00F0E3FA664B1B68C3F382330133B7
:1004E000B0FBF3F008BD624A936AC3F38103022BA9
:1004F00000F0A780032B00F0DF80012B00F0D980F3
:10050000936A1B0D40F024810020594B1B6F03F0B0
:100510000303D84008BD564A936A03F00303022B35
:1005200051D0032B00F09080012B74D0936A180CEB
:100530003FF41CAFBDE8084000F01EBB4C4A936A74
:1005400003F00303022B79D0032B00F0A580012BCD
:1005500000F0AC80936A180C01D000F00DFB444B06
:100560009A6EDB6FC2F3013203F00703D040013310
:10057000B0FBF3F008BD3E4A936A03F00303022B7D
:1005800053D0032B00F0CE80012B00F0C880936A7B
:100590001B0C40F0E0800020354B10229B6EB2FA1D
:1005A00082F2D2B2C2F11F02C3F301331344D84026
:1005B00008BD3248FFF754FE03282CD008284DD040
:1005C00002287FF4D2AEBDE8084000F0D9BA284A2C
:1005D000936AC3F38103022B2AD0032B00F095808A
:1005E000012B00F08F80936A180D01D000F0C4FA3F
:1005F0001F4B1B6FC3F30113D84008BDBDE8084073
:1006000000F0DCB9002B00F09D80B3F5807F7FF413
:10061000ACAE1B4808BDBDE8084000F0A9BA00F028
:10062000AFFA30E700F0ACFAC4E600F0A9FAB3E79D
:1006300000F0A6FADCE700F0A3FADEE600F0A0FA8C
:100640008DE700F09DFA60E75368D90502D413687E
:100650005A0079D500F0B2F9800808BDBDE808401D
:1006600000F01CBA00F084FA0DE700BFCC0D0000CA
:1006700000800C400400180040420F0005231C00BD
:10068000C0D8A7005368D90502D413685A0075D59D
:1006900000F094F98008F6E65368D90502D413688F
:1006A0005A0073D500F08AF9800858E700F060FA24
:1006B00055E700F05DFA28E75368DB0502D41368BC
:1006C000580057D500F07AF980081EE700F050FA7C
:1006D00070E600F04DFA90E65368DB0503D42D4B2D
:1006E0001B6858004ED500F069F9800885E653680C
:1006F000DB0503D4274B1B6858002FD500F05EF9AB
:10070000800857E600F034FA72E75368D90502D43E
:1007100013685B0026D500F051F9800868E700F007
:1007200027FA39E75368DB0502D4136858001DD552
:1007300000F044F980082FE7174808BD174808BDA6
:10074000174808BD174808BD00F038F9400808BD33
:1007500000F012FAD9E600F00FFA1DE700F02EF9CA
:10076000400827E600F02AF9400841E700F026F9A2
:10077000400811E700F022F94008C6E600F01EF933
:10078000400880E600F01AF9400836E600F016F955
:100790004008E4E600800C40C0CF6A00406F400192
:1007A000003FAB01809FD50030B5C0F30323013B70
:1007B00083B00446052B32D8DFE803F01B171F2E49
:1007C000031D1C4A10201C4D6B6DDB07C4F3043461
:1007D00004D522449200116003B030BD2B6D184245
:1007E000F7D02B6D1842F9D1F3E7144AC4F304345F
:1007F000EFE7134AFAE7134AF8E713480191FFF7C6
:1008000097FD124B0199984211D9114D1148124A86
:1008100001232B600360E9E7104A0120D3E7104869
:1008200040F23E4103B0BDE83040FFF717BD0A4A31
:10083000DCE700BF0003E41000800C402002E4105D
:100840004000E410C003E4102000040000366E01F4
:1008500078009043A00090430002E410C002E4102E
:10086000CC0D00000528F8B504460D4616461F4677
:100870002DD80F292BD8E20056B1002F3CD01319E8
:100880009B0003F1804303F5C0430121A940196196
:100890001119890001F18041072D01F5C0411BD8D4
:1008A000AB0048684FF00F0C0CFA03FC20EA0C0078
:1008B00006FA03F303434B6046B9224427BB174BA8
:1008C00092001344012202FA05F55D60F8BD144858
:1008D000CC21FFF7C3FCCEE705F18043083B8868D5
:1008E0009B004FF00F0C0CFA03FC20EA0C0006FAF8
:1008F00003F303438B60DFE71119084B89000B44B6
:100900000121A9405960C3E7920002F1804202F53B
:10091000C042012303FA05F51561F8BD10600040DF
:10092000E00D0000074880470749084A084B9B1A1A
:1009300040F30580043BC858D0503FF7FBAF054853
:10094000004700005D0B0000680E00000000002062
:100950007000002055010000FEE7FEE7FEE7FEE71D
:10096000FEE7FEE7FEE7FEE7FEE7FEE7FEE7FEE75F
:10097000FEE7FEE7FEE7FEE7FEE7FEE7FEE7FEE74F
:10098000FEE7FEE7FEE7FEE7FEE7FEE7FEE7FEE73F
:10099000FEE7FEE7FEE7FEE7FEE7FEE7FEE7FEE72F
:1009A000FEE7FEE7FEE7FEE7FEE7FEE7FEE7FEE71F
:1009B000FEE7FEE7FEE7FEE7FEE7FEE72A4AD36A28
:1009C00003F47053B3F5805F2AD0B3F5005F24D0F1
:1009D000B3F5006F11D0D36803F4E063B3F5007F83
:1009E0003FD020D9B3F5806F39D0B3F5A06F34D0A4
:1009F000B3F5407F25D0002101E01C4B19681A4B4C
:100A00001B4A18685B68C0F382300130B1FBF0F01C
:100A100003F00F03D84010607047164B1968EEE7DB
:100A20004FF40041EBE773B1B3F5807FE3D1124B94
:100A3000124AD96C124BB1F1985F34BF1146194676
:100A4000DDE71049DBE70C4B0F4AD96C0F4BB1F1D6
:100A5000985F34BF11461946D1E70D49CFE70D49DC
:100A6000CDE70D49CBE700BF00800C40040000201B
:100A70009000002000000020B081E00FC0CF6A008D
:100A800040B56400809FD50040420F00804F1200A7
:100A9000003FAB01406F4001C0D8A700234AD36A92
:100AA00003F47053B3F5805F1DD0B3F5005F17D02A
:100AB000B3F5006F11D0D36803F4E063B3F5007FA2
:100AC00032D013D9B3F5806F2CD0B3F5A06F27D0F7
:100AD000B3F5407F18D000207047154B1868704759
:100AE000144B186870474FF40040704773B1B3F56A
:100AF000807FF0D1104B114AD86C114BB0F1985F48
:100B000034BF1046184670470E4870470A4B0E4ACD
:100B1000D86C0E4BB0F1985F34BF10461846704742
:100B20000B4870470B4870470B48704700800C40DB
:100B30000400002000000020B081E00FC0CF6A0058
:100B400040B56400809FD50040420F00804F1200E6
:100B5000003FAB01406F4001C0D8A700034BD3F862
:100B6000882042F47002C3F88820704700ED00E04E
:100B70004FF40040704700BF4FF47A70704700BFD9
:100B8000014B1868704700BF0000002008B50B48F3
:100B90000121FFF709FE0A480121FFF705FE0420A5
:100BA000024602210023FFF75DFE042002460321D6
:100BB0000023FFF757FE002008BD00BF1081020090
:100BC00000D20200012838B51BD80F4B13F8304073
:100BD00003EBC002052C556801D80F2D04D90B4832
:100BE00040F20B21FFF73AFB04EBC404A40004F12C
:100BF000804404F5C044012303FA05F52561002073
:100C000038BD4FF0FF3038BD440E0000F40D000039
:100C1000012838B51BD80F4B13F8304003EBC00246
:100C2000052C556801D80F2D04D90B4840F222211C
:100C3000FFF714FB04EBC404A40004F1804404F5A2
:100C4000C044012303FA05F5A561002038BD4FF02B
:100C5000FF3038BD440E0000F40D00004FF07E63FD
:100C60002DE9F003186810B9BDE8F0037047274973
:100C7000274B4A6C42F400524A64D3F8202142F0D8
:100C80000402C3F82021D3F8202122F44072C3F8D3
:100C90002021D3F8B82022F47062C3F8B820D3F82A
:100CA000B820102042F48062C3F8B8200A460862D7
:100CB000D36A9906FCD5174BDA68D20121D4D868DB
:100CC000154ADFF86080DFF86090144D144C4FF047
:100CD000604140F0807002274FF480764FF00F0C97
:100CE000D860C8F800900120C2F810C0C2F8F070B7
:100CF000C2F80463C1F8B05FC1F8804EBDE8F003EC
:100D000070470120BDE8F003704700BF00800C4031
:100D100000600040F0ED00E0000004E055CEACC5FE
:100D200009000100001000E0FF13014008B5074B67
:100D3000044613B10021AFF30080054B1868836AA5
:100D400003B19847204600F033F800BF00000000D0
:100D5000580E000070B50E4B0E4DED1AAD1000246C
:100D60001E46AC4204D056F8242090470134F8E7E0
:100D700000F020F8084D094BED1AAD1000241E4676
:100D8000AC4204D056F8242090470134F8E770BDF7
:100D900068000020680000206C000020680000202F
:100DA00002440346934202D003F8011BFAE770475E
:100DB000FEE700BFF8B500BFF8BC08BC9E46704710
:100DC000F8B500BFF8BC08BC9E4670472E2E2F65B4
:100DD0006D6C69622F656D5F636D752E6300000039
:100DE0002E2E2F656D6C69622F656D5F6770696F60
:100DF0002E630000433A5C53696C69636F6E4C610B
:100E000062735C53696D706C69636974795374754E
:100E100064696F5C76325C646576656C6F70657270
:100E20005C73646B735C65666D33325C76322F6520
:100E30006D6C69622F696E632F656D5F6770696F96
:100E40002E68000004000000020000000400000002
:100E50000300000043000000080000200000000024
:080E6000F4F2FF7F0100000025
:100E680000800000006CDC020000000000000000B0
:100E7800000000000000000000000000000000006A
:100E88000000000000000000540E000000000000F8
:100E9800000000000000000000000000000000004A
:100EA800000000000000000000000000000000003A
:100EB800000000000000000000000000000000002A
:100EC80000000000000000002501000001010000F2
:0400000300000925CB
:00000001FF
