:10000000008000203D2A0000732A0000752A0000AD
:10001000772A0000792A00007B2A0000712A00005C
:10002000712A0000712A0000712A00007D2A000058
:100030007F2A0000712A0000812A0000E9130000D5
:100040000D25000061140000892A00008B2A0000A1
:100050008D2A00008F2A0000912A0000932A0000B8
:10006000952A0000972A0000992A0000A914000090
:100070009D2A00009F2A0000A12A0000A32A000058
:10008000A52A0000A72A0000A92A0000AB2A000028
:10009000AD2A0000AF2A0000B12A0000B32A0000F8
:1000A000B52A0000B72A0000B92A0000BB2A0000C8
:1000B000BD2A0000BF2A0000F1140000C32A00007E
:1000C000C52A0000C72A0000C92A0000CB2A000068
:1000D000CD2A0000CF2A0000D12A0000D32A000038
:1000E0000000000000000000000000000000000010
:1000F0000000000000000000000000000000000000
:1001000010B5054C237833B9044B13B10448AFF351
:1001100000800123237010BD740000200000000047
:100120004031000008B5064B1BB106480649AFF345
:1001300000800648036813B1054B03B1984708BD1A
:100140000000000040310000780000207400002012
:1001500000000000154B002B08BF134B9D46A3F574
:10016000803A00218B460F461348144A121A02F0B7
:10017000D3FE0F4B002B00D098470E4B002B00D026
:1001800098470020002104000D000D48002802D0EF
:100190000C48AFF3008002F099FE2000290001F026
:1001A00043F802F07FFE00BF00000800008000203E
:1001B0000000000000000000740000200C0100207E
:1001C0000000000000000000054B1B6800209AB2F0
:1001D00062F30F001B0C63F31F4082B002B0704744
:1001E0000000002030B585B0002404230125184606
:1001F0001A4600930293022103230195039401F010
:1002000085F801F003F92B46204602220D2102F069
:100210000FFA0D200B4901F007F92B462046224624
:1002200000950D2102F0BEF9074BC8224FF4E6609D
:1002300040F226711C74588099801A80DA8005B0CB
:1002400030BD00BF21060000F0000020D64B022286
:100250002DE9F00F04240125C3F8A450C3F8A040F1
:10026000C3F8A020C3F8A420C3F8A040C3F8A0207E
:10027000C3F8A420C3F8A440C3F8A020C3F8A42066
:10028000C3F8A040C3F8A020C3F8A420C3F8A4403A
:10029000C3F8A020C3F8A420C3F8A440C3F8A0204A
:1002A000C3F8A420C3F8A440C3F8A020C3F8A42036
:1002B000C3F8A440C3F8A020C3F8A420C3F8A0202A
:1002C000C3F8A420C3F8A020D3F8AC80C3F8A420BE
:1002D000C3F8A020D3F8AC70C3F8A420C3F8A020C2
:1002E000D3F8ACA0C3F8A420C3F8A020D3F8ACC0C6
:1002F000C3F8A420C3F8A020D3F8AC60C3F8A420AE
:10030000C3F8A020D3F8ACB0C3F8A420C7F3C00949
:10031000C3F8A020D3F8AC70C3F8A4204FEA891921
:10032000C3F8A020CAF3C00AC8F3C00849EA4A1AB1
:10033000D3F8AC90C3F8A420C3F8A440C3F8A0201D
:10034000C3F8A420C3F8A0204AEAC81ACCF3C00C12
:10035000D3F8AC80C3F8A420C3F8A0204AEA0C1C50
:1003600006F00806D3F8ACA0C3F8A420C3F8A02078
:100370004CEA060CD3F8AC60C3F8A420CBF3C00B56
:10038000C3F8A020CAF3C00A4CEA8B0B4FEA8A1AC2
:10039000C6F3C00CC7F3C007D3F8AC60C3F8A42001
:1003A0004BEA4707C9F3C009C8F3C0084AEA4C1C26
:1003B000C3F8A0204CEAC81C47EA0907D3F8AC8070
:1003C000C3F8A420C6F3C006C3F8A020A7404CEA97
:1003D0000616D3F8ACC0C3F8A420C3F8A02047EA9F
:1003E0001616D3F8AC70C3F8A420C3F8A020D3F835
:1003F000AC70C3F8A420C3F8A4400680C3F8A040A2
:10040000C3F8A020C3F8A420C3F8A440C3F8A020D8
:10041000C3F8A420C3F8A440C3F8A020C3F8A420C4
:10042000C3F8A040C3F8A020C3F8A420C3F8A44098
:10043000C3F8A020C3F8A420C3F8A440C3F8A020A8
:10044000C3F8A420C3F8A440C3F8A020C3F8A42094
:10045000C3F8A440C3F8A020C3F8A420C3F8A02088
:10046000C3F8A420C3F8A020D3F8AC70C3F8A4202C
:10047000C3F8A020D3F8AC60C3F8A420C3F8A02030
:10048000D3F8AC90C3F8A420C3F8A020D3F8AC00F4
:10049000C3F8A420C3F8A020D3F8ACB0C3F8A420BC
:1004A000C3F8A020D3F8ACA0C3F8A420C3F8A020C0
:1004B000C6F3C00CD3F8AC60C3F8A420C3F8A020E6
:1004C000D3F8AC80C3F8A4204FEA8C1CC3F8A44036
:1004D000C9F3C009C3F8A020C3F8A420C3F8A02022
:1004E000C7F3C0074CEA4919D3F8ACC0C3F8A4203D
:1004F000C3F8A02049EAC719C0F3C000D3F8AC7014
:10050000C3F8A420C3F8A02049EA0010D3F8AC90A7
:10051000C3F8A4200BF0080BC3F8A02040EA0B009E
:10052000CAF3C00AC9F3C00940EA8A0A4FEA491966
:10053000D3F8AC00C3F8A420C6F3C006C7F3C007C5
:10054000C3F8A0204AEA4606C8F3C008CCF3C00CA2
:1005500049EA871747EACC1746EA0806D3F8ACC041
:10056000C3F8A420C0F3C000C3F8A020A64047EA07
:100570000010D3F8AC70C3F8A420C3F8A02046EA5A
:100580001010D3F8AC60C3F8A420C3F8A020D3F8AF
:10059000AC60C3F8A420C3F8A4400880C3F8A050FE
:1005A000BDE8F00F704700BF0060004070B51A4B07
:1005B000DE6916F0010682B005460C460ED0174BD8
:1005C0001A7C920725D59A891A810280D989598186
:1005D0000022104621801A7402B070BD01A80DF1EE
:1005E0000601FFF733FE0D4B2E809A889989D88833
:1005F000198102EB82018901121AB1FBF2F22888FB
:1006000098812280DA895A812288DA81304602B0C4
:1006100070BD012002B070BD00600040F0000020FD
:10062000F0B50D2887B0044601D007B0F0BD1F4ECD
:10063000317801F0FF050029F7D128462B460095B7
:1006400021462A4601F0AEFF194BD86910F0010788
:100650000ED001232A4600932846214601F0A2FF2E
:10066000144B1A7C22F0010242F002021A74DCE7F9
:10067000104B1A7C22F0020242F0010204A902A8E7
:100680001A74FFF793FF38460B4FBDF808C0BDF84A
:1006900010E001250095214603462A46A7F800C030
:1006A000A7F802E001F07EFF3570BEE79000002061
:1006B00000600040F000002000000020C30B344B1D
:1006C0004FF080020CBFC3F88020DA67304B402225
:1006D000410454BFC3F88020DA672D4B20228104E7
:1006E00054BFC3F88020DA67294B1022C10454BFDD
:1006F000C3F88020DA67264B0822010554BFC3F8EF
:100700008020DA67224B0422410554BFC3F88020C1
:10071000DA671F4B0222810554BFC3F88020DA67D5
:100720001B4B0122C10554BFC3F88020DA67184B68
:100730008022010654BFDA659A65154B40224106B6
:1007400054BFDA659A65124B2022810654BFDA65E0
:100750009A650F4B1022C10654BFDA659A650C4B9F
:100760000822010754BFDA659A65094B0422410744
:1007700054BFDA659A65064B0222810754BFDA65D9
:100780009A65034B0122C10754BFDA659A65704729
:10079000006000402DE9F04FC048C14C85B00121F8
:1007A00001F000FD012003460921042201F040FF71
:1007B000012003460C21042201F03AFF01200346E8
:1007C0000B21042201F034FF012003460A210422F8
:1007D00001F02EFF032007210422012301F028FF4E
:1007E000032006210422012301F022FF032005211A
:1007F0000422012301F01CFF04210A4603200123E7
:1008000001F016FF032001460422012301F010FF2E
:10081000032002210422012301F00AFF01210B46DB
:100820000320042201F004FF0320002104220123FD
:1008300001F0FEFE022007210422012301F0F8FE50
:10084000022006210422012301F0F2FE02200521EC
:100850000422012301F0ECFE04210A4602200123B8
:1008600001F0E6FE022003210422012301F0E0FE54
:10087000022001460422012301F0DAFE01210B4689
:100880000220042201F0D4FE0220002104220123D0
:100890004FF400654FF400764FF4806B4FF48057AF
:1008A00001F0C6FE4FF001084FF0200E082304228D
:1008B00002214FF010094FF0800A4020C4F880A0B8
:1008C000C4F88000C4F880E0C4F88090C4F8803098
:1008D000C4F88020C4F88010C4F88080C4F85CA0FC
:1008E000E065C4F85CE00020C4F85C90E365E26574
:1008F000E165C4F85C80A663C4F838B067636563DB
:10090000A563009301920291FFF7D8FE656340460C
:10091000C4F834B06763A563FFF7D0FE65634FF496
:10092000FA70666300F068FDA6630020C4F838B072
:1009300067636563A563FFF7C1FE65630020C4F8C4
:1009400034B06763A563FFF7B9FE6563404666632D
:10095000A663C4F838B067636563A563FFF7AEFEAE
:1009600065634FF48070C4F834B06763A563FFF724
:10097000A5FE0299656308466663A663C4F838B0AD
:1009800067636563A563FFF799FE65634FF4E060F5
:10099000C4F834B06763A563FFF790FE6563032076
:1009A0006663A663C4F838B067636563A563FFF741
:1009B00085FE656341F21800C4F834B06763A5632F
:1009C000FFF77CFE019A656310466663A663C4F870
:1009D00038B067636563A563FFF770FE6563002049
:1009E000C4F834B06763A563FFF768FE009B6563D6
:1009F00018466663A663C4F838B067636563A56389
:100A0000FFF75CFE656340F20220C4F834B0676310
:100A1000A563FFF753FE656309206663A663C4F808
:100A200038B067636563A563FFF748FE6563002020
:100A3000C4F834B06763A563FFF740FE65630A201E
:100A40006663A663C4F838B067636563A563FFF7A0
:100A500035FE65630020C4F834B06763A563FFF713
:100A60002DFE65630C206663A663C4F838B0676327
:100A70006563A563FFF722FE65634046C4F834B0A2
:100A80006763A563FFF71AFE65630D206663A663BF
:100A9000C4F838B067636563A56303E000D2020061
:100AA00000600040FFF70AFE65630020C4F834B020
:100AB0006763A563FFF702FE65630F206663A663A5
:100AC000C4F838B067636563A563FFF7F7FD656336
:100AD0000020C4F834B06763A563FFF7EFFD6563DA
:100AE000C820666300F088FCA6630720C4F838B00D
:100AF00067636563A563FFF7E1FD656340F201107D
:100B0000C4F834B06763A563FFF7D8FD6563C820F8
:100B1000666300F071FCA6634846C4F838B06763AA
:100B20006563A563FFF7CAFD65634FF48650C4F89B
:100B300034B06763A563FFF7C1FD65631120666389
:100B4000A663C4F838B067636563A563FFF7B6FDB5
:100B500065630720C4F834B06763A563FFF7AEFD93
:100B6000656312206663A663C4F838B06763656383
:100B7000A563FFF7A3FD65634FF48870C4F834B034
:100B80006763A563FFF79AFD656313206663A66339
:100B9000C4F838B067636563A563FFF78FFD6563CD
:100BA0004FF43060C4F834B06763A563FFF786FD87
:100BB000656329206663A663C4F838B0676365631C
:100BC000A563FFF77BFD65630020C4F834B067635D
:100BD000A563FFF773FD65632B206663A663C4F806
:100BE00038B067636563A563FFF768FD656344F22A
:100BF0001000C4F834B06763A563FFF75FFD656359
:100C000050206663A663C4F838B067636563A56364
:100C1000FFF754FD65630020C4F834B06763A56333
:100C2000FFF74CFD656351206663A663C4F838B0D6
:100C300067636563A563FFF741FD6563EF20C4F853
:100C400034B06763A563FFF739FD656352206663BF
:100C5000A663C4F838B067636563A563FFF72EFD2C
:100C600065630020C4F834B06763A563FFF726FD11
:100C7000656353206663A663C4F838B06763656331
:100C8000A563FFF71BFD656340F23F10C4F834B065
:100C90006763A563FFF712FD656360206663A66363
:100CA000C4F838B067636563A563FFF707FD656344
:100CB0004FF41C50C4F834B06763A563FFF7FEFC23
:100CC000656361206663A663C4F838B067636563D3
:100CD000A563FFF7F3FC65634046C4F834B067636F
:100CE000A563FFF7EBFC65636A206663A663C4F83F
:100CF00038B067636563A563FFF7E0FC65630020B8
:100D0000C4F834B06763A563FFF7D8FC6563504649
:100D10006663A663C4F838B067636563A563FFF7CD
:100D2000CDFC65630020C4F834B06763A563FFF7AA
:100D3000C5FC656381206663A663C4F838B0676349
:100D40006563A563FFF7BAFC65630020C4F834B09F
:100D50006763A563FFF7B2FC656382206663A663E1
:100D6000C4F838B067636563A563FFF7A7FC6563E4
:100D70000020C4F834B06763A563FFF79FFC656388
:100D800083206663A663C4F838B067636563A563B0
:100D9000FFF794FC65630020C4F834B06763A56373
:100DA000FFF78CFC656384206663A663C4F838B0E3
:100DB00067636563A563FFF781FC65630020C4F882
:100DC00034B06763A563FFF779FC656385206663CC
:100DD000A663C4F838B067636563A563FFF76EFC6C
:100DE00065630020C4F834B06763A563FFF766FC51
:100DF000656390206663A663C4F838B06763656373
:100E0000A563FFF75BFC65634846C4F834B06763CD
:100E1000A563FFF753FC656392206663A663C4F87D
:100E200038B067636563A563FFF748FC656300201E
:100E3000C4F834B06763A563FFF740FC6563932093
:100E40006663A663C4F838B067636563A563FFF79C
:100E500035FC65634046C4F834B06763A563FFF7AB
:100E60002DFC656395206663A663C4F838B067639C
:100E70006563A563FFF722FC65634FF48870C4F8CF
:100E800034B06763A563FFF719FC65639720666359
:100E9000A663C4F838B067636563A563FFF70EFC0B
:100EA00065630020C4F834B06763A563FFF706FCF0
:100EB000656398206663A663C4F838B067636563AA
:100EC000A563FFF7FBFB65630020C4F834B06763DC
:100ED000A563FFF7F3FB65636420666300F08CFA9B
:100EE000A6634846C4F838B067636563A563FFF737
:100EF000E5FB65634FF4A750C4F834B06763A5639E
:100F0000FFF7DCFB65636420666300F075FAA66397
:100F10000720C4F838B067636563A563FFF7CEFBAD
:100F2000656340F23310C4F834B06763A563FFF71C
:100F3000C5FB656322206663A663C4F838B06763A7
:100F40006563A563FFF7BAFB4FF4A0716563B24612
:100F5000666323460391F0224FF400694FF0800846
:100F60004FF0400C4FF48057013AC3F838A01026D8
:100F7000C3F834B008255F63042402200121202730
:100F800092B2C3F83890C3F87C80C3F87CC0DF67A6
:100F9000DE67DD67DC67D867D967C3F85880C3F8B8
:100FA00058C09F65DE65DD65DC65D865D965C3F829
:100FB0003490C3F834A0002AD4D103994A1E92B2C7
:100FC0000392002AC7D105B0BDE8F08F2DE9F84F94
:100FD000454C4FF400654FF400764FF480684FF4B1
:100FE00080570128A6634FF00300C4F83880676378
:100FF0006563A5636AD0FFF761FB4FF0800B4FF08C
:10100000400A4FF020094FF0100C08200421022262
:1010100001236563C4F834806763A563C4F880B0B6
:10102000C4F87CA0C4F88090C4F87CC0C4F88000E8
:10103000C4F88010C4F88020C4F88030C4F85CB0D4
:10104000C4F85CA0C4F85890C4F858C0E065E165E5
:10105000E265E36565636663234B4FF400624FF41A
:1010600000714FF080094FF040084FF0200C10271E
:1010700008260425022401204FF4806B4FF4805A87
:101080009963C3F838B0C3F834A05A639A63C3F8BD
:101090008090C3F88080C3F880C0C3F88070C3F824
:1010A0008060C3F88050C3F88040C3F88000C3F864
:1010B0005C90C3F85C80C3F858C0DF65DE65DD6511
:1010C0009C65D8655A635963BDE8F88FFFF7F6FA57
:1010D000656345F23800C4F834806763A563FFF7A1
:1010E000EDFA65636663B7E7006000402DE9F04FF5
:1010F0004C4C4FF400654FF400764FF480684FF489
:1011000080574FF0800C4023A6634FF0200BC4F8AB
:1011100038804FF0100A67636563A563C4F880C028
:10112000C4F880300823C4F880B0C4F880A0C4F8A4
:1011300080300423C4F880300223C4F880304FF09C
:1011400001094023C4F88090C4F85CC0E36508231B
:10115000C4F858B0C4F85CA0E3650423E36585B027
:101160000223E365C4F85C906563C4F83480676368
:10117000A5630292CDF804C00391FFF79FFA65635F
:1011800021206663A663C4F8388067636563A5633E
:10119000FFF794FA039965630846C4F834806763DF
:1011A000A563FFF78BFADDF804C0029A656340235C
:1011B0006663A663C4F8388067636563A563C4F893
:1011C00080C0C4F880300823C4F880B0C4F880A080
:1011D000C4F880300423C4F880300223C4F880307F
:1011E0004023C4F88090C4F85CC0E3650823C4F8C9
:1011F00058B0C4F85CA0E3650423E3650223A3654B
:101200001046C4F85C9065636663A663C4F83480D6
:101210006763A563FFF752FA6563666305B0BDE8CF
:10122000F08F00BF006000402DE9F04184B001F074
:10123000CDFD304800F09AFB2F4BA3FB0012920922
:10124000013AB2F1807F54D22C4B2D495A600024D0
:101250000722E02081F823009C6001211A602948C0
:10126000294D00F09FFFFFF795FA01F021FD204680
:1012700001F060FD012001F037FD204600F0A2F9E9
:1012800000F04AF92046FFF7A1FE6420274600F04F
:10129000EFF92E46FEF7A6FF22E0FEF795FF034684
:1012A00080B2019300F0E4F9FEF78EFF1FFA80F898
:1012B0000290FEF789FF00220346010C404603938B
:1012C000FFF714FF002001F05BFD012001F058FD45
:1012D0004FF47A7000F090F83770642000F08CF8CA
:1012E00001342B78A4B22046002BD6D100F0C0F9EF
:1012F000F3E7FEE720000400D34D621010E000E0A9
:1013000000ED00E010810200900000202DE9F84F70
:1013100004468B462D489DF828509DF82C609DF87A
:1013200030809DF8347001219246994600F03AFFD2
:10133000204659460422012301F07AF950464946D5
:101340000122002301F074F92846314604220123CA
:1013500001F06EF9404639460422012301F068F994
:10136000052D01D80F2E04D9194840F2DF1100F0E5
:1013700047FA05EBC502174B920013440122B24015
:10138000052C5A6004D9124840F2DF1100F038FAF7
:1013900004EBC40C0F4B10481049114A4FEA8C0C57
:1013A00063444FF0010C0CFA04FCC3F804C00D4B6D
:1013B00080F801B081F8019056705F70047081F878
:1013C00000A0157083F80080BDE8F88F00D20200FD
:1013D000442F000010600040A00000209400002076
:1013E0009C00002098000020024B1A6801321A600D
:1013F000704700BF04010020034A116813685B1A9C
:101400008342FBD3704700BF04010020054B4FF41B
:1014100000610222C3F880111960C3F880211A60AC
:10142000704700BF00E100E010B472B60A4A0B4CEE
:101430001368B3F1FF3F06D044F8201003B962B639
:101440005DF8044B70476FF0010344F820101360FF
:101450005DF8044B704700BFEC000020A4000020A2
:101460000F4BD3F81011D3F8142170B50A4045F290
:1014700055541440C3F81C418CB10A4E012594FA0E
:10148000A4F3B3FA83F3DBB2184656F8232005FA27
:1014900003F324EA030402B19047002CEFD170BD9E
:1014A00000600040A40000200F4BD3F81011D3F8C7
:1014B000142170B50A404AF6AA241440C3F81C410E
:1014C0008CB10A4E012594FAA4F3B3FA83F3DBB28C
:1014D000184656F8232005FA03F324EA030402B160
:1014E0009047002CEFD170BD00600040A4000020A8
:1014F00008B5002001F09EFA054B064A02219961C9
:10150000D96921F00201D961136803B1984708BD78
:1015100000000840E400002010B5294C00202146BE
:10152000024601F0B5F921460120002201F0B0F990
:1015300021460220002201F0ABF9214603200022BF
:1015400001F0A6F921460420002201F0A1F921466C
:101550000520002201F09CF921460620002201F01E
:1015600097F921460720002201F092F90020024657
:10157000FF2101F0F5F90120FF21002201F0F0F92F
:101580000220FF21002201F0EBF90320FF210022BD
:1015900001F0E6F90420FF21002201F0E1F9052025
:1015A000FF21002201F0DCF90620FF21002201F0DA
:1015B000D7F90720FF210022BDE8104001F0D0B983
:1015C00000F00FF010B501210446224800F0EAFDBA
:1015D0002148032100F044FE4021204800F002FC95
:1015E000012000F079FF01211D4800F0DBFD1D4BBB
:1015F0001D489A6A00229A6201F07AF808200121B7
:1016000001F0B4F81020012101F0B0F88020012190
:1016100001F0ACF84FF48070012101F0A7F84FF40D
:101620000070012101F0A2F834B9FFF775FF0D4AEF
:10163000536E002BFCD110BD4FF4402001F0F0F9A7
:101640004FF4803001F084F8084BDA6F42F0080262
:10165000DA67EAE7004304000200060030000C00ED
:1016600000340E0000A00840D830000000800C407C
:101670002DE9F84F42F20E739842064600F3A98016
:101680005A4B9842B8BF1E4680F2A880304601F0FF
:1016900005FC4FF001090646554A556E544B002D86
:1016A000FBD14FF0010BC3F860B0584678212A46B1
:1016B00001F056F9022078212A4601F051F9032061
:1016C00078212A4601F04CF9042078212A4601F0BD
:1016D00047F9052078212A4601F042F906207821B1
:1016E0002A4601F03DF9072078212A4601F038F911
:1016F000404CDFF80881404FAA4696FBFBF287FB7F
:101700000231D317C3EBA10303EB8303A2EB430323
:10171000B9F1000F58D19BB238F8135094F8CB10A0
:1017200094F8C400EB074BD4AA0794F8CC1094F8B3
:10173000C50041D46B0794F8CD1094F8C60037D497
:101740002A0794F8CE1094F8C7002DD4EB0694F82D
:10175000CF1094F8C80023D4AA0694F8D01094F8B7
:10176000C90019D46B0694F8D11094F8CA000FD4AC
:101770000AF1010A0BEB8B0BBAF1040F4FEA4B0B8A
:1017800004F10E04B9D11A4B00221A66BDE8F88F95
:10179000012200F0F7FFEBE7012200F0F3FFE1E7A1
:1017A000012200F0EFFFD7E7012200F0EBFFCDE7C9
:1017B000012200F0E7FFC3E7012200F0E3FFB9E7F1
:1017C000012200F0DFFFAFE7BAF1030FA3D110232E
:1017D000A2E74FF0000942F20F765DE7002EA8BFA6
:1017E0004FF00009BFF658AF50E700BF19FCFFFFEC
:1017F00000A00840B82F000067666666942F0000BE
:10180000FEE700BF204A214B90425B680AD903F0F3
:101810000702023A23F00703012A94BF43F00503AD
:1018200043F004031A4A1B4902448A4211D803F0C8
:101830000702023A032A23F0070305D8012101FA1F
:1018400002F212F00B0F19D143F001030F4A53605B
:101850007047114A9042F9D803F00702023A032A6E
:1018600023F00703F2D8012101FA02F212F00B0F64
:10187000064A18BF43F0020353607047034A43F01F
:1018800003035360704700BF0048E80100000C40AC
:10189000FFDB0BFFFF23F4000024F40000F00F0037
:1018A000013808B5042851D8DFE800F0132332418D
:1018B00003002C4BDB6A03F46033B3F5803F41D067
:1018C000B3F5003F40D0B3F5004F0CBF0820012016
:1018D00008BD244BDB6A03F47053B3F5805F33D04B
:1018E000B3F5005F2ED0B3F5006F0CBF04200520C8
:1018F00008BD1C4B986A00F00300022823D003287F
:101900002BD0012820D09B6ADA030ED5092008BD10
:10191000144A936A03F00C03082B13D00C2B1CD031
:10192000042B11D0936ADB02F0D4012008BD0D4BCB
:101930001B6813F0805312D0B3F1805F0CBF0820F6
:10194000012008BD022008BD032008BD064840F262
:101950008751FFF755FF002008BD062008BD07206E
:1019600008BD00BF00800C40EC30000000F478108F
:10197000B0F5602F08B500F0FF8016D8B0F5C02F85
:1019800000F0E7803AD8B0F5003F00F0B280B0F543
:10199000802F00F05181002800F0B980C2484FF438
:1019A0009D61FFF72DFF002008BDB0F5B01F00F0CE
:1019B0002C8146D8B0F5901F00F08980B0F5A01FAB
:1019C00000F0AF80B0F5801FE8D1B84A936A03F009
:1019D0000303022B00F04481032B00F0A681012BAE
:1019E00000F09281B14B9B6A180C01D001F056F9BE
:1019F000AE4B9B6E03F00303D84008BDB0F5202F1B
:101A00004DD0B0F5402F00F0D480B0F5002FC5D1F7
:101A1000A64A936A03F00303022B00F02A81032BEA
:101A200000F07881012B00F07281A04B9B6A180CAA
:101A300001D001F033F99D4B9B6EC3F30313D840E3
:101A400008BDB0F5D01F13D0B0F5E01F00F0CF8077
:101A5000B0F5C01FA2D19648FFF720FF072807D096
:101A6000082854D090484FF4CA71FFF7C9FE9AE78E
:101A70008E4B5B6903F4E063B3F5007F00F07A817D
:101A800040F2DE80B3F5C06F00F07881B3F5E06F0F
:101A900000F07281B3F5407F85D1864808BD834A46
:101AA000936A03F00303022B00F0D780032B00F0AE
:101AB0000781012B00F0F480936A180C01D001F02B
:101AC000EDF87A4B9B6EC3F30323D84008BD774AE9
:101AD000936AC3F38103022B00F09380032B00F081
:101AE000D180012B00F0B580936A180D3FF45CAFF4
:101AF0003EE001F05FF86D4B1A689B68C2F38232DA
:101B00000132B0FBF2F003F00F03D84008BD01F042
:101B100051F8664B1B68C3F382330133B0FBF3F01B
:101B200008BD624A936AC3F38103022B00F0A780C9
:101B3000032B00F0DF80012B00F0D980936A1B0D8E
:101B400040F024810020594B1B6F03F00303D84061
:101B500008BD564A936A03F00303022B51D0032BAE
:101B600000F09080012B74D0936A180C3FF41CAFE6
:101B7000BDE8084001F092B84C4A936A03F00303B1
:101B8000022B79D0032B00F0A580012B00F0AC8054
:101B9000936A180C01D001F081F8444B9A6EDB6F08
:101BA000C2F3013203F00703D0400133B0FBF3F07E
:101BB00008BD3E4A936A03F00303022B53D0032B64
:101BC00000F0CE80012B00F0C880936A1B0C40F01F
:101BD000E0800020354B10229B6EB2FA82F2D2B226
:101BE000C2F11F02C3F301331344D84008BD324889
:101BF000FFF754FE03282CD008284DD002287FF48C
:101C0000D2AEBDE8084001F04DB8284A936AC3F34C
:101C10008103022B2AD0032B00F09580012B00F0CA
:101C20008F80936A180D01D001F038F81F4B1B6F9D
:101C3000C3F30113D84008BDBDE8084000F04ABF17
:101C4000002B00F09D80B3F5807F7FF4ACAE1B4885
:101C500008BDBDE8084001F01DB801F023F830E7E9
:101C600001F020F8C4E601F01DF8B3E701F01AF81E
:101C7000DCE701F017F8DEE601F014F88DE701F07B
:101C800011F860E75368D90502D413685A0079D572
:101C900000F020FF800808BDBDE8084000F08ABFC2
:101CA00000F0F8FF0DE700BFEC30000000800C40B2
:101CB0000400180040420F0005231C00C0D8A700F4
:101CC0005368D90502D413685A0075D500F002FF95
:101CD0008008F6E65368D90502D413685A0073D514
:101CE00000F0F8FE800858E700F0D4FF55E700F058
:101CF000D1FF28E75368DB0502D41368580057D595
:101D000000F0E8FE80081EE700F0C4FF70E600F077
:101D1000C1FF90E65368DB0503D42D4B1B685800C8
:101D20004ED500F0D7FE800885E65368DB0503D466
:101D3000274B1B6858002FD500F0CCFE800857E6D3
:101D400000F0A8FF72E75368D90502D413685B005E
:101D500026D500F0BFFE800868E700F09BFF39E75A
:101D60005368DB0502D4136858001DD500F0B2FE9D
:101D700080082FE7174808BD174808BD174808BD59
:101D8000174808BD00F0A6FE400808BD00F086FF19
:101D9000D9E600F083FF1DE700F09CFE400827E62F
:101DA00000F098FE400841E700F094FE400811E77B
:101DB00000F090FE4008C6E600F08CFE400880E689
:101DC00000F088FE400836E600F084FE4008E4E6B5
:101DD00000800C40C0CF6A00406F4001003FAB0163
:101DE000809FD50038B5C0F30313013B0C46042B8C
:101DF00000F2CB80DFE803F02B3C7AA303004C1EFB
:101E0000072C04D9AD4840F23B31FFF7F9FCAC4B4D
:101E10005B6803F00702052A0AD8012101FA02F2E1
:101E200012F02C0F40F0DC8012F0130F40F01A81FA
:101E3000A349A44A4B60136823F4E03343EA843493
:101E4000146000F047FEBDE83840FFF7DBBC4D1ED4
:101E5000B5F5007F80F02481B4FA84F4994B9A6838
:101E6000E4B2C4F11F0422F00F0222439A6038BD8D
:101E7000B1F5007F00F20E81914B5B6803F0070221
:101E8000052A0AD8012101FA02F212F02C0F40F0C3
:101E9000AC8012F0130F40F0E080894A512053606B
:101EA000FFF764FD884B8949894AB0FBF4F09842FA
:101EB00094BF002301230B601360631EB3F5004F32
:101EC00003D37E48BB21FFF79BFCB4FA84F47D4B1F
:101ED0005A68E4B2C4F11F0422F00F0222435A6090
:101EE00000F0F8FDBDE83840FFF78CBC794B984214
:101EF00000F01C817ED9784B984200F0F380774B3C
:101F0000984240F0B480082900F23C816D4A536D3C
:101F1000D90740F19480631EB3F5004F03D367489F
:101F2000BB21FFF76DFCB4FA84F1664B9A6EC9B21F
:101F3000C1F11F0122F003020A439A6638BD684BC3
:101F4000984230D003F50433984225D1082900F295
:101F50009B805C4A536DD90710D5631EB3F5004FC3
:101F600076D2B4FA84F1574B1A6FC9B2C1F11F018E
:101F700022F0300242EA01121A6738BD136D5B0687
:101F8000EBD5136D5B06F9D4E7E74C4840F2EB3133
:101F9000BDE83840FFF734BC484840F2E531BDE8C1
:101FA0003840FFF72DBC082968D8464A536DDD0735
:101FB0000FD5631EB3F5004F45D2B4FA84F1414BFF
:101FC0001A6FC9B2C1F11F0122F003020A431A6756
:101FD00038BD136D5806ECD5136D5806F9D4E8E7F3
:101FE00023F0070343F0050322E723F0070343F040
:101FF000050352E7A3F50433984238D1B1F5004FF9
:1020000000F2C6802F4A536DDD0714D5631EB3F569
:10201000004F03D32948BB21FFF7F2FBB4FA84F148
:10202000284B9A6EC9B2C1F11F0122F0F00242EAB8
:1020300001129A6638BD136D5807FCD4E6E7136D9C
:102040005B07FCD467E71D48BB21FFF7D9FBB4E76A
:102050001A48BB21FFF7D4FB83E723F0070343F0C3
:1020600004031AE723F0070343F00403E0E61348F0
:1020700040F2BE31BDE83840FFF7C2BB0F484FF415
:102080007271FFF7BDFB90E70C4840F2D731FFF7C4
:10209000B7FB5EE7094840F25631FFF7B1FBEBE6CC
:1020A000064840F24E31FFF7ABFBB5F5004FFFF4A9
:1020B000D3AE0248BB21FFF7A3FBCDE6EC30000016
:1020C00000000C4000800C4000366E017800904308
:1020D000A000904330240A0030000C0030041000AF
:1020E00040051400A1F11003702B45D82B4A536D05
:1020F000DD0717D5631EB3F5004F03D32848BB2176
:10210000FFF77EFBB4FA84F4244B10219A6EB1FAE7
:1021100081F1E4B2C9B2091B22F4405242EA013211
:102120009A6638BD136D5807FCD4E3E7B1F5004F4C
:102130001CD81A4A536DD90714D5631EB3F5004F46
:1021400003D31748BB21FFF75BFBB4FA84F1134BB1
:102150009A6EC9B2C1F11F0122F4706242EA0122F3
:102160009A6638BD136D5B07FCD4E6E70C4840F275
:102170009231FFF745FBDCE7094840F2A131FFF758
:102180003FFBB3E706484FF46C71FFF739FBBDE640
:1021900003484FF46171FFF733FB33E700800C40D5
:1021A000EC30000030B5C0F30323013B83B004469C
:1021B000052B32D8DFE803F01B171F2E031D1C4A26
:1021C00010201C4D6B6DDB07C4F3043404D522448E
:1021D0009200116003B030BD2B6D1842F7D02B6D0B
:1021E0001842F9D1F3E7144AC4F30434EFE7134A71
:1021F000FAE7134AF8E713480191FFF7B7FB124BD0
:102200000199984211D9114D1148124A01232B60AE
:102210000360E9E7104A0120D3E7104840F23E414D
:1022200003B0BDE83040FFF7EBBA0A4ADCE700BF75
:102230000003E41000800C402002E4104000E41091
:10224000C003E4102000040000366E0178009043C3
:10225000A00090430002E410C002E410EC30000043
:1022600038B500F00F04631E042B38D8DFE803F004
:10227000291A1A10030003293ED0082962D0022926
:1022800050D08E4840F29F61BDE83840FFF7B8BAA1
:1022900007292BD008293ED1894B1A6842F0805279
:1022A0001A6038BD0139082900F2E880DFE811F032
:1022B00091009500A200E600E600AE00E600E60010
:1022C0007B000239072900F2D280DFE811F07C00A0
:1022D000C500AF004200D000D000D000C900774850
:1022E00040F2A761BDE83840FFF78ABA744B1A681C
:1022F00022F080521A6038BD714A40231362D36ABB
:102300006F4C1906FBD500F043F960236362E36A62
:102310009B03FCD538BD69484FF4CE61BDE8384019
:10232000FFF76EBA664A4FF480731362D36A644C47
:102330009D05FBD500F02CF940236362E36AD803C6
:10234000FCD538BD5E4A20235362D36A1B04FCD5FA
:1023500038BD01240123022259490B62CB6A1A427B
:10236000FCD000F015F9574B5B6803F00702052A13
:102370000DD8012101FA02F212F02C0F40F08580F5
:1023800012F0130F03D023F0070343F004034D4969
:102390004B4A4B60546200F0FBF800F09BFBBDE839
:1023A0003840FFF72FBA4FF480114FF480330022EA
:1023B000022C6FD0424A936A23F4801323F00C035B
:1023C0000B43936238BD04244FF480734FF40072C2
:1023D000C2E700210B460A46EAE7394A4FF4807308
:1023E0001362D36A9805FCD500F0D2F808210023C7
:1023F0000222DDE7324A40231362D36A1906FCD574
:1024000000F0C6F8042100230122D1E72E4B01255C
:102410001D6000F05FFB2D4B984245D92C4A2D4B97
:1024200015600C211D6003220023C1E700F022FC8F
:10243000264B9842224B1A683AD942F0804242F029
:1024400060021A601B6CDC0602D5224B01221A6066
:102450000224042308227FE70324402380227BE711
:10246000164840F2F551FFF7CBF9032472E7134801
:1024700040F2FA51BDE83840FFF7C2B90F4840F2C8
:102480004561BDE83840FFF7BBB923F0070343F0CF
:1024900005037CE70A48816A21F48031134321F067
:1024A00003011943816238BD0C21002303227FE719
:1024B00022F0600242F020021A60C9E7EC3000000E
:1024C00000800C4000000C401008904300366E0164
:1024D00078009043A0009043802810B504460BD8A4
:1024E000084B9A6D120706D4DA6F04F0070422F045
:1024F00007021443DC6710BD034840F2D471FFF7B4
:102500007FF9EDE700800C40EC3000001D4A1E4BC7
:10251000126841F20C012DE9F04759580A402ED4B7
:10252000996BDFF86890984602EA010422EA010AF2
:10253000022704B300250126E20706FA05F316D5A3
:10254000D8F80820C9F8003002EB05132846DB68EC
:102550006BB11A7AD3F800C0111C82F0010218BFC7
:1025600001211A72BCF1000F01D05A68E0476408DB
:1025700005F10105E0D1013F02D1BDE8F087FEE79A
:102580005446D6E700300C4000200C4008300C4088
:10259000024A034BD26A1A80704700BF00800C4089
:1025A000E80000202DE9F041052805460C461646B6
:1025B00098469DF8187021D80F291FD8072C194B61
:1025C00023D9A4F108029200D3F804110F209040FF
:1025D000954021EA00022A43C3F804211249114B15
:1025E00021448900012202FA04F40E60C1F88080BF
:1025F000C3F81C41C1F80071BDE8F0810B48972178
:10260000FFF7FEF8072C074BDBD8A200D3F8001128
:102610000F209040954021EA00022A43C3F8002190
:10262000DCE700BF0060004040088310003100007C
:102630000528F8B504460D4616461F462DD80F2925
:102640002BD8E20056B1002F3CD013199B0003F1A8
:10265000804303F5C0430121A94019611119890084
:1026600001F18041072D01F5C0411BD8AB0048683E
:102670004FF00F0C0CFA03FC20EA0C0006FA03F3EF
:1026800003434B6046B9224427BB174B92001344C7
:10269000012202FA05F55D60F8BD1448CC21FFF770
:1026A000AFF8CEE705F18043083B88689B004FF008
:1026B0000F0C0CFA03FC20EA0C0006FA03F30343A8
:1026C0008B60DFE71119084B89000B440121A940F9
:1026D0005960C3E7920002F1804202F5C042012333
:1026E00003FA05F51561F8BD1060004000310000E7
:1026F0002DE9F843144B04465D6800B3D4F80C9000
:10270000D4F8048094F808C0677A268A0E4B2178A2
:10271000186825F4830222F01F0249EA08042243C4
:1027200042EA0C023A43324320F0010018605A603A
:1027300019B11A6842F001021A60BDE8F883034833
:102740004321FFF75DF8D9E700A0084014310000ED
:10275000054B054A5B68B0F5803F23F4803308BF22
:1027600043F480335360704700A00840044B9A68DC
:1027700019B922EA000098607047104398607047CA
:1027800000A00840072870B504460D4616460FDC29
:10279000272D07DC072C4FD8DFE804F0181F272F60
:1027A000363E46102A484FF48871FFF729F8F1E7C2
:1027B000274840F20911FFF723F8E9E71F2DD4BF9E
:1027C000244B254B2B449B001E6070BD1F2D3ADC13
:1027D000224B2B449B001E6070BD1F2DD4BF204B8D
:1027E000204B2B449B001E6070BD1F2DD4BF1E4B81
:1027F0001E4B2B449B001E6070BD1F2D23DD1C4B08
:102800002B449B001E6070BD1F2DD4BF194B1A4B6B
:102810002B449B001E6070BD1F2DD4BF174B184B5F
:102820002B449B001E6070BD1F2DD4BF154B164B53
:102830002B449B001E6070BD054840F28B11BDE823
:102840007040FEF7DDBF114B2B449B001E6070BD36
:1028500014310000C006C510E005C5100002C51007
:102860002002C5108002C5104002C510A002C5108C
:10287000C002C5106006C5108005C5108006C510D1
:10288000A005C510A006C510C005C5106002C51082
:10289000072870B504460D46164607DC072C53D8AA
:1028A000DFE804F0141C242C343E480A2A4840F285
:1028B000A511FEF7A5FFF1E7284BD3F8D8202E404D
:1028C00022EA05053543C3F8D85070BD234B1A6C76
:1028D0002E4022EA050535431D6470BD1F4B5A6C1E
:1028E0002E4022EA050535435D6470BD1B4B9A6C92
:1028F0002E4022EA050535439D6470BD174BDA6C06
:102900002E4022EA05053543DD6470BD134BD3F834
:10291000CC202E4022EA05053543C3F8CC5070BDCB
:102920000E4BD3F8D0202E4022EA05053543C3F8DC
:10293000D05070BD094BD3F8D4202E4022EA0505B3
:102940003543C3F8D45070BD03484FF4F371BDE86C
:102950007040FEF755BF00BF1431000000A00840D2
:10296000072870B504460D46164611DC072C0ED814
:10297000DFE804F0141C242C343E4804264BD3F822
:10298000C0202E4022EA05053543C3F8C05070BD73
:10299000224840F2FF11FEF733FFE7E71E4B1A6DA6
:1029A0002E4022EA050535431D6570BD1A4B5A6D50
:1029B0002E4022EA050535435D6570BD164B9A6DC4
:1029C0002E4022EA050535439D6570BD124BDA6D38
:1029D0002E4022EA05053543DD6570BD0E4BD3F868
:1029E000B4202E4022EA05053543C3F8B45070BD2B
:1029F000094BD3F8B8202E4022EA05053543C3F829
:102A0000B85070BD044BD3F8BC202E4022EA050517
:102A10003543C3F8BC5070BD00A00840143100001D
:102A2000034B5A6822F4E01210435860704700BF0D
:102A300000A008404FF08643186070470748804761
:102A40000749084A084B9B1A40F30580043BC858C5
:102A5000D0503FF7FBAF054800470000812C000035
:102A60004C310000000000207400002055010000DF
:102A7000FEE7FEE7FEE7FEE7FEE7FEE7FEE7FEE72E
:102A8000FEE7FEE7FEE7FEE7FEE7FEE7FEE7FEE71E
:102A9000FEE7FEE7FEE7FEE7FEE7FEE7FEE7FEE70E
:102AA000FEE7FEE7FEE7FEE7FEE7FEE7FEE7FEE7FE
:102AB000FEE7FEE7FEE7FEE7FEE7FEE7FEE7FEE7EE
:102AC000FEE7FEE7FEE7FEE7FEE7FEE7FEE7FEE7DE
:102AD000FEE7FEE72A4AD36A03F47053B3F5805F3A
:102AE0002AD0B3F5005F24D0B3F5006F11D0D368BE
:102AF00003F4E063B3F5007F3FD020D9B3F5806FD6
:102B000039D0B3F5A06F34D0B3F5407F25D0002184
:102B100001E01C4B19681A4B1B4A18685B68C0F32C
:102B200082300130B1FBF0F003F00F03D8401060A9
:102B30007047164B1968EEE74FF40041EBE773B1AD
:102B4000B3F5807FE3D1124B124AD96C124BB1F12D
:102B5000985F34BF11461946DDE71049DBE70C4B9F
:102B60000F4AD96C0F4BB1F1985F34BF114619462B
:102B7000D1E70D49CFE70D49CDE70D49CBE700BFC0
:102B800000800C4008000020080100200400002004
:102B9000B081E00FC0CF6A0040B56400809FD500CF
:102BA00040420F00804F1200003FAB01406F4001D8
:102BB000C0D8A700234AD36A03F47053B3F5805FEB
:102BC0001DD0B3F5005F17D0B3F5006F11D0D368F7
:102BD00003F4E063B3F5007F32D013D9B3F5806F0F
:102BE0002CD0B3F5A06F27D0B3F5407F18D00020CC
:102BF0007047154B18687047144B186870474FF4AE
:102C00000040704773B1B3F5807FF0D1104B114A8B
:102C1000D86C114BB0F1985F34BF1046184670471E
:102C20000E4870470A4B0E4AD86C0E4BB0F1985FB5
:102C300034BF1046184670470B4870470B48704722
:102C40000B48704700800C40080000200400002062
:102C5000B081E00FC0CF6A0040B56400809FD5000E
:102C600040420F00804F1200003FAB01406F400117
:102C7000C0D8A700014B1868704700BF08000020AB
:102C8000034BD3F8882042F47002C3F888207047C1
:102C900000ED00E04FF40040704700BF4FF47A7041
:102CA000704700BF014B1868704700BF0400002048
:102CB00008B50B480121FFF775FA0A480121FFF713
:102CC00071FA0420024602210023FFF7B1FC042020
:102CD000024603210023FFF7ABFC002008BD00BF24
:102CE0001081020000D20200012838B519D80E4B1D
:102CF00013F8304003EBC002052C556801D80F2DA6
:102D000004D90A4840F2DF11FEF77AFD04EBC4044F
:102D1000074BA4002344012202FA05F55D60002060
:102D200038BD4FF0FF3038BD28310000442F00007F
:102D300010600040012838B51BD80F4B13F8304005
:102D400003EBC002052C556801D80F2D04D90B48A0
:102D500040F20B21FEF754FD04EBC404A40004F17F
:102D6000804404F5C044012303FA05F525610020E1
:102D700038BD4FF0FF3038BD28310000442F00002F
:102D8000012838B51BD80F4B13F8304003EBC002B5
:102D9000052C556801D80F2D04D90B4840F222218B
:102DA000FEF72EFD04EBC404A40004F1804404F5F6
:102DB000C044012303FA05F5A561002038BD4FF09A
:102DC000FF3038BD28310000442F00004FF07E63F3
:102DD0002DE9F003186810B9BDE8F00370472749E2
:102DE000274B4A6C42F400524A64D3F8202142F047
:102DF0000402C3F82021D3F8202122F44072C3F842
:102E00002021D3F8B82022F47062C3F8B820D3F898
:102E1000B820102042F48062C3F8B8200A46086245
:102E2000D36A9906FCD5174BDA68D20121D4D86849
:102E3000154ADFF86080DFF86090144D144C4FF0B5
:102E4000604140F0807002274FF480764FF00F0C05
:102E5000D860C8F800900120C2F810C0C2F8F07025
:102E6000C2F80463C1F8B05FC1F8804EBDE8F0035A
:102E700070470120BDE8F003704700BF00800C40A0
:102E800000600040F0ED00E0000004E055CEACC56D
:102E900009000100001000E0FF1301400028B8BF46
:102EA0004042704708B5074B044613B10021AFF309
:102EB0000080054B1868836A03B19847204600F0EC
:102EC00033F800BF000000003C31000070B50E4B2D
:102ED0000E4DED1AAD1000241E46AC4204D056F83B
:102EE000242090470134F8E700F020F8084D094B02
:102EF000ED1AAD1000241E46AC4204D056F8242032
:102F000090470134F8E770BD6C0000206C00002091
:102F1000700000206C00002002440346934202D05F
:102F200003F8011BFAE77047FEE700BFF8B500BFE2
:102F3000F8BC08BC9E467047F8B500BFF8BC08BC9A
:102F40009E467047433A5C53696C69636F6E4C618F
:102F500062735C53696D706C6963697479537475DD
:102F600064696F5C76325C646576656C6F706572FF
:102F70005C73646B735C65666D33325C76322F65AF
:102F80006D6C69622F696E632F656D5F6770696F25
:102F90002E6800003F0006005B004F0066006D00D9
:102FA0007D0007007F006F0077007C0039005E0025
:102FB00079007100400000000101050707030402C9
:102FC0000302040605060D0E0E0E0D0D0D0D0E0E60
:102FD0000E0E0D0D0101050707030402030204068E
:102FE00005060F1010100F0F0F0F101010100F0FFD
:102FF0000101050707030402030204060506111276
:1030000012121111111112121212111101010507E0
:1030100007030402030204060506131C1C1C1313F9
:1030200013131C1C1C1C13130001050706020301CB
:103030000302040604051D1E1E1E1D1D1D1D1E1E51
:103040001E1E1D1D000105070602030103020406E2
:1030500004051F2020201F1F1F1F202020201F1FAE
:1030600001010507070304020302040605062122E5
:1030700022222121212122222222212107050201AF
:103080000306042323232323232307050201030626
:1030900004242424242424240705020103060425EF
:1030A00025252525252507050201030604262626B4
:1030B00026262626000107020627272727270000A5
:1030C000000000000000131211100F0E0D0C000084
:1030D000000021252426000001000000030040001C
:1030E0000C00000000000000000000002E2E2F65E4
:1030F0006D6C69622F656D5F636D752E63000000F6
:103100002E2E2F656D6C69622F656D5F6770696F1C
:103110002E6300002E2E2F656D6C69622F656D5F2A
:103120006C63642E630000000400000002000000D5
:103130000400000003000000430000000C00002019
:04314000000000008B
:0831440010D0FF7F0100000024
:10314C006400000000800000006CDC020000000045
:10315C000000000000000000000000000000000063
:10316C0000000000000000000000000038310000EA
:10317C000000000000000000000000000000000043
:10318C000000000000000000000000000000000033
:10319C000000000000000000000000000000000023
:1031AC0000000000000000000000000025010000ED
:0431BC00010100000D
:0400000300002A3D92
:00000001FF
