:1000000000800020BD330000F3330000F533000012
:10001000F7330000F9330000FB330000F133000038
:10002000F1330000F1330000F133000059180000F3
:10003000FF330000F1330000E5180000451900000F
:10004000890C00003D120000093400000B34000050
:100050000D3400000F340000113400001334000090
:100060001534000017340000193400008512000018
:100070001D3400001F340000213400002334000030
:100080002534000027340000293400002B34000000
:100090002D3400002F3400003134000033340000D0
:1000A0003534000037340000393400003B340000A0
:1000B0003D3400003F340000CD120000E516000082
:1000C0004534000047340000493400004B34000040
:1000D0004D3400004F340000513400005334000010
:1000E0000000000000000000000000000000000010
:1000F0000000000000000000000000000000000000
:1001000010B5054C237833B9044B13B10448AFF351
:1001100000800123237010BD90000020000000002B
:10012000803A000008B5064B1BB106480649AFF3FC
:1001300000800648036813B1054B03B1984708BD1A
:1001400000000000803A0000940000209000002091
:1001500000000000154B002B08BF134B9D46A3F574
:10016000803A00218B460F461348144A121A03F0B6
:100170002EFB0F4B002B00D098470E4B002B00D0CE
:1001800098470020002104000D000D48002802D0EF
:100190000C48AFF3008003F0EBFA2000290000F0D8
:1001A00035F903F0D1FA00BF0000080000800020FC
:1001B000000000000000000090000020B02500209A
:1001C0000000000000000000054B1B6800209AB2F0
:1001D00062F30F001B0C63F31F4082B002B0704744
:1001E00000000020C30B344B4FF080020CBFC3F85B
:1001F0008020DA67304B4022410454BFC3F880208E
:10020000DA672D4B2022810454BFC3F88020DA67BF
:10021000294B1022C10454BFC3F88020DA67264B53
:100220000822010554BFC3F88020DA67224B04225C
:10023000410554BFC3F88020DA671F4B02228105B5
:1002400054BFC3F88020DA671B4B0122C10554BF9D
:10025000C3F88020DA67184B8022010654BFDA65A4
:100260009A65154B4022410654BFDA659A65124BD8
:100270002022810654BFDA659A650F4B1022C10611
:1002800054BFDA659A650C4B0822010754BFDA6542
:100290009A65094B0422410754BFDA659A65064BFB
:1002A0000222810754BFDA659A65034B0122C10718
:1002B00054BFDA659A657047006000402DE9F04F41
:1002C0004C4C4FF400654FF400764FF480684FF4C7
:1002D00080574FF0800C4023A6634FF0200BC4F8EA
:1002E00038804FF0100A67636563A563C4F880C067
:1002F000C4F880300823C4F880B0C4F880A0C4F8E3
:1003000080300423C4F880300223C4F880304FF0DA
:1003100001094023C4F88090C4F85CC0E365082359
:10032000C4F858B0C4F85CA0E3650423E36585B065
:100330000223E365C4F85C906563C4F834806763A6
:10034000A5630292CDF804C00391FFF74BFF6563EC
:1003500021206663A663C4F8388067636563A5637C
:10036000FFF740FF039965630846C4F8348067636C
:10037000A563FFF737FFDDF804C0029A65634023E9
:100380006663A663C4F8388067636563A563C4F8D1
:1003900080C0C4F880300823C4F880B0C4F880A0BE
:1003A000C4F880300423C4F880300223C4F88030BD
:1003B0004023C4F88090C4F85CC0E3650823C4F807
:1003C00058B0C4F85CA0E3650423E3650223A36589
:1003D0001046C4F85C9065636663A663C4F8348015
:1003E0006763A563FFF7FEFE6563666305B0BDE85E
:1003F000F08F00BF0060004038B5056804466068B3
:1004000003F010F9284602F023FBF8E72DE9F0414C
:1004100088B003F02DF9334800F09CF9324BA3FB70
:1004200000129209013AB2F1807F59D22F4B304924
:100430005A6000260722E02081F823009E602D48A4
:100440001A60012100F0C2FB01273046314601F05D
:1004500019F8294D01960296039600972749284BD3
:1004600028486E2201F0B4FF009701960296039689
:100470002549264B23486E22344601F0A9FF374612
:1004800002F0C6F82E4622E0FFF79EFE034680B239
:10049000059300F02FFFFFF797FE1FFA80F80690F4
:1004A000FFF792FE00220346010C40460793FFF738
:1004B00005FF002003F0B6F8012003F0B3F84FF475
:1004C0007A7000F025F83770642000F021F80134CC
:1004D0002B78A4B22046002BD6D100F00BFFF3E717
:1004E000FEE700BF20000400D34D621010E000E0E2
:1004F00000ED00E010810200AC000020FC3700009D
:1005000004000020F9030000043800000C00002063
:10051000034A116813685B1A8342FBD3704700BF1C
:1005200058250020FEE700BF2DE9F04104460028D1
:1005300076D0A368013B7F2B68D8E368062B60D890
:10054000237813B16378002B3CD0A388B3F5405FC8
:1005500040D0A5686B1EB3F5004F5CD2B5FA85F5A7
:100560002178EDB2C5F11F0511B1304B01221A609F
:100570002F4A936BDE071ED52D4BA27C5A60D4F810
:100580000C80A28894F801C0A778667C207C42EA9F
:1005900048124CF00804224342EA870242EA06125B
:1005A00042EA803242EA05254FF0FF321A631D60AD
:1005B000C1B9BDE8F081D36BD807DDD5D36BD807BF
:1005C000F9D4D9E71B488A21FFF7ACFFA388B3F51C
:1005D000405FBED1A37C002BBBD016488D21FFF716
:1005E000A1FFB6E71B689B0704D113484FF4917134
:1005F000FFF798FF11490D4A00230B601360BDE817
:10060000F0810C488721FFF78DFF99E70948842185
:10061000FFF788FF91E707484721FFF783FF9DE732
:1006200004488221FFF77EFF83E700BF00070243F3
:10063000001008400C380000203800000C00024375
:1006400010B50C4668B9094A936BD90702D5074B18
:10065000DC6010BDD36B9B07F9D5D36B9B07F9D436
:10066000F5E70348C921FFF75DFFECE700100840FC
:100670000C380000024B0121002219601A607047FB
:100680000C00024300F00F00013808B5042851D8CF
:10069000DFE800F01323324103002C4BDB6A03F444
:1006A0006033B3F5803F41D0B3F5003F40D0B3F5A0
:1006B000004F0CBF0820012008BD244BDB6A03F467
:1006C0007053B3F5805F33D0B3F5005F2ED0B3F530
:1006D000006F0CBF0420052008BD1C4B986A00F079
:1006E0000300022823D003282BD0012820D09B6AA6
:1006F000DA030ED5092008BD144A936A03F00C03EF
:10070000082B13D00C2B1CD0042B11D0936ADB02C6
:10071000F0D4012008BD0D4B1B6813F0805312D09C
:10072000B3F1805F0CBF0820012008BD022008BD86
:10073000032008BD064840F28751FFF7F3FE002072
:1007400008BD062008BD072008BD00BF00800C4082
:100750003438000000F47810B0F5602F08B500F0D0
:10076000FF8016D8B0F5C02F00F0E7803AD8B0F57A
:10077000003F00F0B280B0F5802F00F051810028DA
:1007800000F0B980C2484FF49D61FFF7CBFE002016
:1007900008BDB0F5B01F00F02C8146D8B0F5901F11
:1007A00000F08980B0F5A01F00F0AF80B0F5801F89
:1007B000E8D1B84A936A03F00303022B00F04481A6
:1007C000032B00F0A681012B00F09281B14B9B6AB4
:1007D000180C01D002F01CFFAE4B9B6E03F003031C
:1007E000D84008BDB0F5202F4DD0B0F5402F00F017
:1007F000D480B0F5002FC5D1A64A936A03F0030355
:10080000022B00F02A81032B00F07881012B00F0ED
:100810007281A04B9B6A180C01D002F0F9FE9D4B2F
:100820009B6EC3F30313D84008BDB0F5D01F13D09F
:10083000B0F5E01F00F0CF80B0F5C01FA2D1964800
:10084000FFF720FF072807D0082854D090484FF41E
:10085000CA71FFF767FE9AE78E4B5B6903F4E063AA
:10086000B3F5007F00F07A8140F2DE80B3F5C06F0F
:1008700000F07881B3F5E06F00F07281B3F5407F4E
:1008800085D1864808BD834A936A03F00303022B8F
:1008900000F0D780032B00F00781012B00F0F480DB
:1008A000936A180C01D002F0B3FE7A4B9B6EC3F32F
:1008B0000323D84008BD774A936AC3F38103022B10
:1008C00000F09380032B00F0D180012B00F0B58065
:1008D000936A180D3FF45CAF3EE002F02BFE6D4BC7
:1008E0001A689B68C2F382320132B0FBF2F003F067
:1008F0000F03D84008BD02F01DFE664B1B68C3F312
:1009000082330133B0FBF3F008BD624A936AC3F34C
:100910008103022B00F0A780032B00F0DF80012B66
:1009200000F0D980936A1B0D40F024810020594BC0
:100930001B6F03F00303D84008BD564A936A03F0C7
:100940000303022B51D0032B00F09080012B74D0B5
:10095000936A180C3FF41CAFBDE8084002F058BE83
:100960004C4A936A03F00303022B79D0032B00F067
:10097000A580012B00F0AC80936A180C01D002F026
:1009800047FE444B9A6EDB6FC2F3013203F007035C
:10099000D0400133B0FBF3F008BD3E4A936A03F048
:1009A0000303022B53D0032B00F0CE80012B00F069
:1009B000C880936A1B0C40F0E0800020354B102269
:1009C0009B6EB2FA82F2D2B2C2F11F02C3F30133BC
:1009D0001344D84008BD3248FFF754FE03282CD0FA
:1009E00008284DD002287FF4D2AEBDE8084002F0BE
:1009F00013BE284A936AC3F38103022B2AD0032B28
:100A000000F09580012B00F08F80936A180D01D0C3
:100A100002F0FEFD1F4B1B6FC3F30113D84008BD4E
:100A2000BDE8084002F016BD002B00F09D80B3F534
:100A3000807F7FF4ACAE1B4808BDBDE8084002F0E3
:100A4000E3BD02F0E9FD30E702F0E6FDC4E602F0A6
:100A5000E3FDB3E702F0E0FDDCE702F0DDFDDEE6FA
:100A600002F0DAFD8DE702F0D7FD60E75368D905A3
:100A700002D413685A0079D502F0ECFC800808BD56
:100A8000BDE8084002F056BD02F0BEFD0DE700BF14
:100A90003438000000800C400400180040420F0071
:100AA00005231C00C0D8A7005368D90502D41368D9
:100AB0005A0075D502F0CEFC8008F6E65368D905D9
:100AC00002D413685A0073D502F0C4FC800858E7BA
:100AD00002F09AFD55E702F097FD28E75368DB0521
:100AE00002D41368580057D502F0B4FC80081EE702
:100AF00002F08AFD70E602F087FD90E65368DB05A0
:100B000003D42D4B1B6858004ED502F0A3FC80087F
:100B100085E65368DB0503D4274B1B6858002FD5A7
:100B200002F098FC800857E602F06EFD72E7536809
:100B3000D90502D413685B0026D502F08BFC80082F
:100B400068E702F061FD39E75368DB0502D41368FA
:100B500058001DD502F07EFC80082FE7174808BD1D
:100B6000174808BD174808BD174808BD02F072FCB9
:100B7000400808BD02F04CFDD9E602F049FD1DE732
:100B800002F068FC400827E602F064FC400841E7F8
:100B900002F060FC400811E702F05CFC4008C6E689
:100BA00002F058FC400880E602F054FC400836E6AB
:100BB00002F050FC4008E4E600800C40C0CF6A0020
:100BC000406F4001003FAB01809FD50030B5C0F3BE
:100BD0000323013B83B00446052B32D8DFE803F042
:100BE0001B171F2E031D1C4A10201C4D6B6DDB07AD
:100BF000C4F3043404D522449200116003B030BD24
:100C00002B6D1842F7D02B6D1842F9D1F3E7144A37
:100C1000C4F30434EFE7134AFAE7134AF8E713483A
:100C20000191FFF797FD124B0199984211D9114D8F
:100C30001148124A01232B600360E9E7104A0120A2
:100C4000D3E7104840F23E4103B0BDE83040FFF723
:100C500069BC0A4ADCE700BF0003E41000800C40D6
:100C60002002E4104000E410C003E410200004005F
:100C700000366E0178009043A00090430002E4101B
:100C8000C002E410343800001D4A1E4B126841F2C5
:100C90000C012DE9F04759580A402ED4996BDFF822
:100CA0006890984602EA010422EA010A022704B386
:100CB00000250126E20706FA05F316D5D8F8082024
:100CC000C9F8003002EB05132846DB686BB11A7ACD
:100CD000D3F800C0111C82F0010218BF01211A7262
:100CE000BCF1000F01D05A68E047640805F1010526
:100CF000E0D1013F02D1BDE8F087FEE75446D6E7D8
:100D000000300C4000200C4008300C40384B394972
:100D1000DA6A394B70B4394E92B232800E6946F0BD
:100D200004060E611E699969DB6906F03F06C3F38C
:100D3000031301F0F00143EA06230B43B3F580717E
:100D40004B424B4153B12E492E4C0D682C40C1F8FB
:100D500080404D6825F04605C1F8845030BF13B17E
:100D6000274B1C605D6030B9530501D570BC7047DE
:100D700070BC02F06FBB1E4B02F47051D3F884407C
:100D800045F60E0502F4AA70B1F5805FC3F88450F1
:100D900004F00104186212D0B1F5005F1FD0B1F564
:100DA000006F14D0D20702D4114B02221A62002C19
:100DB000DCD00F4B0022C3F8842070BC704718466B
:100DC000C36A0B491B06FBD503234B62EAE71846AF
:100DD000C36A07491D07FBD502234B62E2E71846A9
:100DE000C36A03499E05FBD504234B62DAE700BFC3
:100DF00000800C4000ED00E0D0FF0FE0AE000020CE
:100E000000E100E09CF1FD00404B4149DA6A92B2FA
:100E1000F0B40A80D3F88410C90748BF00214FF40A
:100E2000207545F60E06C3F884601D6248BFC3F8FE
:100E300084103849384B0D6945F004050D611D6972
:100E40009969DB6905F03F05C3F3031343EA052302
:100E500001F0F0010B43B3F5807CDCF1000353EBB0
:100E60000C0353B12D492E4C0D682C40C1F8804025
:100E70004F6827F04607C1F8847030BF13B1274B85
:100E80001C605F6030B9530501D5F0BC7047F0BC01
:100E900002F0E0BA1D4B02F47051D3F8844045F6DD
:100EA0000E0502F4AA70B1F5805FC3F8845004F017
:100EB0000104186212D0B1F5005F1FD0B1F5006FC8
:100EC00014D0D20702D4114B02221A62002CDCD0BB
:100ED0000E4B0022C3F88420F0BC70471846C36A4A
:100EE0000A491F06FBD503234B62EAE71846C36A8B
:100EF00006491D07FBD502234B62E2E71846C36A89
:100F000002499E05FBD504234B62DAE700800C40C2
:100F1000AE00002000ED00E0D0FF0FE000E100E0B7
:100F20009CF1FD00072870B504460D4616460FDCFF
:100F3000272D07DC072C4FD8DFE804F0181F272FD8
:100F4000363E46102A484FF48871FFF7EBFAF1E776
:100F5000274840F20911FFF7E5FAE9E71F2DD4BF52
:100F6000244B254B2B449B001E6070BD1F2D3ADC8B
:100F7000224B2B449B001E6070BD1F2DD4BF204B05
:100F8000204B2B449B001E6070BD1F2DD4BF1E4BF9
:100F90001E4B2B449B001E6070BD1F2D23DD1C4B80
:100FA0002B449B001E6070BD1F2DD4BF194B1A4BE4
:100FB0002B449B001E6070BD1F2DD4BF174B184BD8
:100FC0002B449B001E6070BD1F2DD4BF154B164BCC
:100FD0002B449B001E6070BD054840F28B11BDE89C
:100FE0007040FFF79FBA114B2B449B001E6070BDF1
:100FF00048380000C006C510E005C5100002C51045
:101000002002C5108002C5104002C510A002C51004
:10101000C002C5106006C5108005C5108006C51049
:10102000A005C510A006C510C005C5106002C510FA
:10103000072870B504460D46164611DC072C0ED85D
:10104000DFE804F0141C242C343E4804264BD3F86B
:10105000C0202E4022EA05053543C3F8C05070BDBC
:10106000224840F2FF11FFF75DFAE7E71E4B1A6DC9
:101070002E4022EA050535431D6570BD1A4B5A6D99
:101080002E4022EA050535435D6570BD164B9A6D0D
:101090002E4022EA050535439D6570BD124BDA6D81
:1010A0002E4022EA05053543DD6570BD0E4BD3F8B1
:1010B000B4202E4022EA05053543C3F8B45070BD74
:1010C000094BD3F8B8202E4022EA05053543C3F872
:1010D000B85070BD044BD3F8BC202E4022EA050561
:1010E0003543C3F8BC5070BD00A00840483800002C
:1010F00000F1875000F5A02080000160704700BF1C
:101100000C490D4A012310B48B60916819400AD034
:101110000A484AF6E8540021946003605DF8044BE5
:10112000016091607047054A5DF8044B13601160DF
:10113000704700BF00A00C4000600C4080048C434E
:101140003B4B5B6803F001029907104604D513F08E
:10115000810F08BF42F00200590704D513F0910F28
:1011600008BF40F00400190701D5002A5CD0D90659
:1011700003D5990708BF40F01000990604D54EF634
:10118000DF71194000294CD0590604D54EF69F71E5
:101190001940002942D0190604D540F219711940AE
:1011A000002938D0D90503D540F21961194079B327
:1011B000990503D540F21F41194031B3590503D5B4
:1011C00040F21F211940E9B1190500D5BAB1D9047F
:1011D00000D58AB1990400D55AB1590400D52AB175
:1011E0001B0402D50AB940F40040704740F4804027
:1011F000F6E740F40050F0E740F48050EAE740F4AE
:101200000060E4E740F48060DEE740F40070D5E77A
:1012100040F48070CCE740F08000C3E740F040002D
:10122000B9E740F02000AFE740F008009FE700BFBB
:1012300000A00C404FF08643186070470F4BD3F866
:101240001011D3F8142170B50A4045F255541440DA
:10125000C3F81C418CB10A4E012594FAA4F3B3FAE9
:1012600083F3DBB2184656F8232005FA03F324EA89
:10127000030402B19047002CEFD170BD0060004024
:10128000B40000200F4BD3F81011D3F8142170B51F
:101290000A404AF6AA241440C3F81C418CB10A4EF5
:1012A000012594FAA4F3B3FA83F3DBB2184656F897
:1012B000232005FA03F324EA030402B19047002C2B
:1012C000EFD170BD00600040B400002008B50020E0
:1012D000FFF7B0FF054B064A02219961D96921F059
:1012E0000201D961136803B1984708BD00000840A6
:1012F000F40000202DE9F84F42F20E7398420646A2
:1013000000F3A9805A4B9842B8BF1E4680F2A880CD
:10131000304602F015FA4FF001090646554A556E5F
:10132000544B002DFBD14FF0010BC3F860B0584671
:1013300078212A46FFF77CFE022078212A46FFF713
:1013400077FE032078212A46FFF772FE04207821D9
:101350002A46FFF76DFE052078212A46FFF768FE32
:10136000062078212A46FFF763FE072078212A46C7
:10137000FFF75EFE404CDFF80881404FAA4696FB1F
:10138000FBF287FB0231D317C3EBA10303EB83030B
:10139000A2EB4303B9F1000F58D19BB238F81350B8
:1013A00094F8CB1094F8C400EB074BD4AA0794F838
:1013B000CC1094F8C50041D46B0794F8CD1094F884
:1013C000C60037D42A0794F8CE1094F8C7002DD45D
:1013D000EB0694F8CF1094F8C80023D4AA0694F82A
:1013E000D01094F8C90019D46B0694F8D11094F871
:1013F000CA000FD40AF1010A0BEB8B0BBAF1040FF0
:101400004FEA4B0B04F10E04B9D11A4B00221A66B5
:10141000BDE8F88F0122FFF785FDEBE70122FFF71A
:1014200081FDE1E70122FFF77DFDD7E70122FFF70C
:1014300079FDCDE70122FFF775FDC3E70122FFF734
:1014400071FDB9E70122FFF76DFDAFE7BAF1030FB8
:10145000A3D11023A2E74FF0000942F20F765DE717
:10146000002EA8BF4FF00009BFF658AF50E700BFED
:1014700019FCFFFF00A00840803800006766666620
:101480005C3800000B4A0C4B10B50C4C106000226D
:101490001A705A709A702160FFF752FEC30500D48B
:1014A00010BDFFF72DFE2368002BF9D004209847CC
:1014B00010BD00BFFC00002000010020F80000204B
:1014C00038B572B61C4D2B685A1C1C4A11781CBFCB
:1014D00001332B60B9B95378EBB10124184B1B6869
:1014E0000BB120469847022C1BD0032C1DD10120A4
:1014F000FFF78AFC134B1B680BB1204698472B68FB
:1015000013B9204638BD0024013B2B60002BF8D1D5
:1015100062B6204638BD9378002B0CBF032402240A
:10152000DCE70120FFF7F2FBE4E7074B1A6922F042
:1015300004021A6130BFDDE7B00000200001002086
:10154000FC000020F800002000ED00E0F8B50446A3
:1015500001F03AF9274A136873B927492748284EFA
:1015600021F0070142F2203580E8280081E82100BF
:101570000127736031601760002C34D00834630792
:101580001CBF24F007040834621E42F21E339A4244
:101590002ED81B48036803E01A6822B11846134688
:1015A00059688C42F8D8154A934221D00D1B1A680D
:1015B0000260102D03F108060DD91819104A456074
:1015C0005C60456800E01A46136859688D42FAD895
:1015D0000360214610600B4B1A68511A196001F024
:1015E000B3F93046F8BD264601F0AEF93046F8BDF5
:1015F0000026F4E7342400201401002038240020C1
:10160000040100201400002038B50546B8B101F0EF
:10161000DBF855F8044C0A4AA5F1080000E01A4628
:10162000136859688C42FAD8064945F8083C0B689B
:1016300010601C440C60BDE8384001F085B938BD2D
:10164000040100201400002000F108034FF0FF31D6
:101650000022816080E80C00C3600361704700BF16
:1016600000230361704700BF436830B49A6805687F
:101670008A609C684B606A1C6160996030BC08613C
:101680000260704730B40D686B1C11D000F1080285
:1016900000E01A4653681C68A542FAD204684B6001
:1016A000013499608A6051600861046030BC704701
:1016B00002695368F2E700BF42688168036910B4A9
:1016C000916081685C684A601A68844208BF59600A
:1016D000013A002101615DF8044B1A601046704721
:1016E000FFF7EEBE124A1348134B10B501214FF01D
:1016F00080540460116019680020FEF7A1FFFEF716
:10170000B9FFEFF311834FF0BF0282F31188BFF3EB
:101710006F8FBFF34F8F01F065F8002383F31188BB
:10172000064B07221A63BDE81040FEF7A3BF00BFB7
:101730000C00024304ED00E04024002000100840AB
:10174000F0B51C4B1C481D4D1D4E87B032270121A2
:101750001F60FFF73BFA01200021FFF7C9FC0FCD06
:1017600001AC0FC42B6823604FF4405202240123C4
:1017700001A8ADF8082003938DF80540FEF7D4FECC
:10178000706B104B4FF0004220F00200E0257063B8
:10179000394683F81F530020C3F880211A60FEF7F2
:1017A0004FFF3463736B23437363FEF763FF07B02C
:1017B000F0BD00BF4024002000430400A039000019
:1017C0000010084000E100E006480068006880F36F
:1017D000088862B661B6BFF34F8FBFF36F8F00DF2B
:1017E00000BF000008ED00E0DFF80C00016841F4E4
:1017F000700101607047000088ED00E008B5094BFA
:101800001B68013304D0084840F20111FEF78AFE3C
:101810004FF0BF0383F31188BFF36F8FBFF34F8F78
:10182000FEE700BF18000020B439000010B4094BD7
:1018300040F8081C4FF080746FF0020140F8044C2F
:1018400040F8202C40F80C3C40F8241C5DF8044B78
:1018500044387047FD170000064B19680868B0E867
:10186000F04F80F30988BFF36F8F4FF0000080F3D3
:1018700011887047C02400204FF0BF0383F3118804
:10188000BFF36F8FBFF34F8F084A13680133012BEB
:10189000136000D07047064B1B6813F0FF0FF9D0A0
:1018A000044840F29311FEF73DBE00BF180000202F
:1018B00004ED00E0B439000010B5084C23682BB1EA
:1018C000013B23600BB983F3118810BD04484FF42A
:1018D000CD71FEF727FE2368F2E700BF1800002055
:1018E000B4390000EFF30980BFF36F8F144B1A680F
:1018F0001EF0100F08BF20ED108A20E9F04F106095
:101900004DF8043D4FF0BF0080F31188BFF34F8FB7
:10191000BFF36F8F01F032F94FF0000080F31188B0
:1019200008BC19680868B0E8F04F1EF0100F08BF37
:10193000B0EC108A80F30988BFF36F8F704700BF47
:10194000C024002008B5EFF311834FF0BF0282F3EB
:101950001188BFF36F8FBFF34F8F00F043FF18B1B3
:10196000034B4FF080521A60002383F3118808BDA7
:1019700004ED00E010B5244B24491C78244882B0C3
:10198000E4B2FF2201941A701B78DBB28DF80330A9
:101990009DF803409DF8032004F0BF0407230C705A
:1019A000110603600ED5062300E00B469DF80320C8
:1019B0005200D2B28DF803209DF80320120603F1E5
:1019C000FF31F2D4019C1049124A1B0203F4E06378
:1019D000E4B203600C70136843F47F031360136870
:1019E00043F07F431360FFF7ABFE0B4B00221A60FE
:1019F000FFF7FAFE094B1A6842F040421A60FFF7FF
:101A0000E3FEFFF7FBFE00BF00E400E044240020FB
:101A10004824002020ED00E01800002034EF00E012
:101A200008B5EFF305830F2B05D90E490E4A5B5C11
:101A300012789A420FD80D4A0D4B12681B6802F4B7
:101A4000E0629A4200D808BD0A484FF43971BDE8F7
:101A50000840FEF767BD07484FF43571FEF762FD99
:101A6000E9E700BFF0E300E0442400200CED00E0D3
:101A700048240020B439000070B505460E46002801
:101A800033D046BB4C20FFF761FD044603460028D7
:101A900031D02360E5632664FFF7EEFE216CE26B34
:101AA0002368A36002FB01F2511A19440020134479
:101AB0004FF0FF32A063E1606264636004F11000E4
:101AC000A264FFF7C1FD04F12400FFF7BDFDFFF79D
:101AD000F3FE204670BD06FB05F04D30FFF736FDE6
:101AE000044640B100F14C03D3E706484FF4A2711D
:101AF000FEF718FDC5E703484FF4C171FEF712FD6C
:101B00000024E6E7C83900002DE9F04784B0044618
:101B1000894601921E46002800F07381B9F1000F3A
:101B200000F07881022E00F0028101F0A5F918B9C9
:101B3000019B002B40F05081FFF79EFEA26BE36BF0
:101B4000DFF82C8300259A422F466FD3022E00F037
:101B500088810198002800F0F480002D7AD0FFF7EA
:101B6000ABFE00F031FEFFF787FE636C013308BF68
:101B70006764A36C013308BFA764FFF79DFE02A84A
:101B800001A901F033F9002840F0E280FFF774FE6C
:101B9000A26BE36B9A4261D0FFF78EFEFFF76CFEFB
:101BA000A36C002B14DD636A93B104F1240507E0F4
:101BB000A36C013BA364A36C002B09DD636A3BB1FA
:101BC000284601F0B7F80028F2D001F04FF9EFE70E
:101BD0004FF0FF33A364FFF76FFEFFF74DFE636C1A
:101BE000002B14DD236993B104F1100507E0626C4A
:101BF000013A6264626C002A09DD23693BB1284620
:101C000001F098F80028F2D001F030F9EFE74FF03A
:101C1000FF336364FFF750FE00F096FEFFF72CFEE3
:101C2000A26BE36B9A424FF001058FD2226C002A1F
:101C300063D12568002D00F0F780A26B636A013242
:101C4000A263002B40F00581FFF736FE012004B0AF
:101C5000BDE8F08702A801F0B3F880E704F11005B1
:101C6000FFF72AFE2846019900F0C2FFFFF704FEA5
:101C7000A36C002B14DD636A93B104F1240A07E01E
:101C8000A36C013BA364A36C002B09DD636A3BB129
:101C9000504601F04FF80028F2D001F0E7F8EFE7E6
:101CA0004FF0FF33A364FFF707FEFFF7E5FD636C1A
:101CB000002B06DC0FE0636C013B6364636C002B5C
:101CC00009DD23693BB1284601F034F80028F2D041
:101CD00001F0CCF8EFE74FF0FF336364FFF7ECFD62
:101CE00000F032FE002899D14FF08053C8F8003040
:101CF000BFF34F8FBFF36F8F90E7002E72D049462E
:101D0000E06801F05BFD226CE368216852421344F5
:101D10008B42E36002D263681344E360022E8CD1ED
:101D2000A36B002B89D0A36B013BA36385E7E36B17
:101D3000012B3FF4FAAE4D4840F26D21FEF7F2FB65
:101D4000F3E60090FFF7B8FD009804B0BDE8F08717
:101D5000FFF792FDA36C002B14DD636A93B104F1CD
:101D6000240507E0A36C013BA364A36C002B09DDF1
:101D7000636A3BB1284600F0DDFF0028F2D001F095
:101D800075F8EFE74FF0FF33A364FFF795FDFFF71A
:101D900073FD636C002B14DD236993B104F110050E
:101DA00007E0636C013B6364636C002B09DD23690E
:101DB0003BB1284600F0BEFF0028F2D001F056F8F3
:101DC000EFE74FF0FF336364FFF776FD00F0BCFDF3
:101DD000002004B0BDE8F08724484FF41C71FEF7E2
:101DE000A1FBA9E64946A06801F0E8FCA168236CC4
:101DF00062680B449342A360FFF41FAF2368A360A3
:101E00001BE71A4840F26B21FEF78CFBB9F1000F7B
:101E10007FF488AE236C002B3FF484AE13484FF45C
:101E20001B71FEF77FFB7DE6606801F07FF8A26B17
:101E3000636A65600132A2635BB900283FF404AFB6
:101E40000B4B4FF080521A60BFF34F8FBFF36F8F71
:101E5000FAE604F1240000F06DFF01287FF4F4AEEF
:101E6000EEE7226C002A3FF4E4AE48E7C8390000F0
:101E700004ED00E02DE9F04104460E4690461D4673
:101E800000285DD0002E62D0022D42D0FFF7C8FDA1
:101E9000EFF311874FF0BF0383F31188BFF36F8F08
:101EA000BFF34F8FA16BE36B994206D3022D67D02E
:101EB000002087F31188BDE8F081226C82B9256883
:101EC000002D61D0A36B0133A363A36C013347D012
:101ED000A36C0133A364012087F31188BDE8F0816E
:101EE00005B33146E06801F069FC226CE3682168C3
:101EF000524213448B42E36002D263681A44E260A8
:101F0000022DDFD1A36B002BDCD0A36B013BA363BD
:101F1000D8E7E36B012BB9D01E4840F22A41FEF707
:101F200001FBB3E73146A06801F048FCA168236CCF
:101F300062680B449342A360C4D32368A360C1E7E3
:101F400014484FF48561FEF7EDFA002E9CD1236C06
:101F5000002B99D00F4840F22941FEF7E3FA93E7AE
:101F6000636A002BB7D004F1240000F0E3FE0028E0
:101F7000B1D0B8F1000FAED00120C8F8000098E74A
:101F8000226C002A9BD0ACE7606800F0CFFF656050
:101F900098E700BFC83900002DE9F04385B004463A
:101FA000884601929946002800F06581B8F1000F3B
:101FB00000F06A8100F060FF18B9019B002B40F02F
:101FC0005481FFF759FCA36BA24F00252E46002B2E
:101FD00079D10198002800F0F180002D00F0DA801E
:101FE000FFF76AFC00F0F0FBFFF746FC636C01337F
:101FF00008BF6664A36C013308BFA664FFF75CFCEE
:1020000002A801A900F0F2FE002840F0DE80FFF7F0
:1020100033FCA36B002B40F08280FFF74DFC23685C
:10202000002B00F0C38004F124052846019900F03C
:10203000DFFDFFF721FCA36C002B06DC0FE0A36C97
:10204000013BA364A36C002B09DD636A3BB1284606
:1020500000F070FE0028F2D000F008FFEFE74FF02C
:10206000FF33A364FFF728FCFFF706FC636C002B2B
:1020700014DD236993B104F1100507E0626C013AA5
:102080006264626C002A09DD23693BB1284600F0D6
:1020900051FE0028F2D000F0E9FEEFE74FF0FF33E9
:1020A0006364FFF709FC00F04FFC30B94FF0805338
:1020B0003B60BFF34F8FBFF36F8FFFF7DDFBA36B69
:1020C0000125002B85D0226CE5684AB16368A91808
:1020D0009942E16024BF2168E160404601F06EFB57
:1020E000B9F1000F40F0B880A26B2368013AA263F7
:1020F000002B00F0DB802369002B00F0B08004F19E
:10210000100000F017FE012840F0A980514B4FF05D
:1021100080521A60BFF34F8FBFF36F8F9FE0FFF7BE
:10212000CBFBFFF7A9FBA36C002B14DD636A93B113
:1021300004F1240507E0A36C013BA364A36C002B0E
:1021400009DD636A3BB1284600F0F4FD0028F2D0B7
:1021500000F08CFEEFE74FF0FF33A364FFF7ACFB1A
:10216000FFF78AFB636C002B18DD2369B3B104F120
:10217000100507E0636C013B6364636C002B0DDDAD
:1021800023695BB1284600F0D5FD0028F2D000F0AD
:102190006DFEEFE702A800F013FE21E74FF0FF33DA
:1021A0006364FFF789FB00F0CFFB86E7FFF764FB72
:1021B000606800F071FEFFF77FFB34E70090FFF7E7
:1021C0007BFB009805B0BDE8F083FFF755FBA36CDF
:1021D000002B14DD636A93B104F1240507E0A36CBE
:1021E000013BA364A36C002B09DD636A3BB1284665
:1021F00000F0A0FD0028F2D000F038FEEFE74FF02D
:10220000FF33A364FFF758FBFFF736FB636C002B2B
:1022100014DD236993B104F1100507E0636C013B01
:102220006364636C002B09DD23693BB1284600F031
:1022300081FD0028F2D000F019FEEFE74FF0FF33E8
:102240006364FFF739FB00F07FFB002005B0BDE8B9
:10225000F08300BF04ED00E0636AE560F3B9FFF7C7
:102260002BFB012005B0BDE8F083124840F25C5121
:10227000FEF758F9A5E60F484FF4AB61FEF752F9A7
:10228000B8F1000F7FF496AE236C002B3FF492AEB2
:10229000084840F25951FEF745F98BE604F1240055
:1022A00000F048FD00287FF431AFD8E700F088FE49
:1022B000606020E7C8390000184B1A6810B4AAB152
:1022C0009A68DAB11A69DAB19A69DAB11A6ADAB1D6
:1022D0009A6ADAB11A6BDAB19A6BDAB11A6C22B176
:1022E0009A6CCAB15DF8044B7047082203EBC20434
:1022F00043F8321060605DF8044B70470122F5E747
:102300000222F3E70322F1E70422EFE70522EDE7DB
:102310000622EBE70722E9E70922E7E75C25002030
:1023200038B504460D46FFF7A7FA636C013304BFC6
:1023300000236364A36C013304BF0023A364FFF78D
:10234000BBFAA36B23B9294604F1240000F0A6FCD4
:10235000FFF792FAA36C002B14DD636A93B104F1CA
:10236000240507E0A36C013BA364A36C002B09DDEB
:10237000636A3BB1284600F0DDFC0028F2D000F093
:1023800075FDEFE74FF0FF33A364FFF795FAFFF712
:1023900073FA636C002B14DD236993B104F110050B
:1023A00007E0636C013B6364636C002B09DD236908
:1023B0003BB1284600F0BEFC0028F2D000F056FDEC
:1023C000EFE74FF0FF336364BDE83840FFF774BABE
:1023D0002DE9F84F0B9E0C9C07460D4693469946F7
:1023E000002800F0C9800A9B022B00F2A980A246B7
:1023F000002C00F0B9805020FFF7A8F80446002810
:1024000000F0AB80C0F830A02B7880F834300BF1AE
:102410008042013A2B780AEB820A2AF0070A2BB392
:102420006B7880F835306B7803B3AB7880F8363052
:10243000AB78DBB1EB7880F83730EB78B3B12B7940
:1024400080F838302B798BB16B7980F839306B7923
:1024500063B1AB7980F83A30AB793BB1EB7980F876
:102460003B30EB7913B12B7A80F83C30DDF82880D3
:102470000025B8F1020F28BF4FF0020804F1040B49
:10248000584684F83D506564C4F82C80C4F84080F8
:10249000FFF7E6F804F11800FFF7E2F8C8F10303CC
:1024A000A564A361246184F84C50646250463946A7
:1024B0004A46FFF7BBF9206006B13460FFF7DCF94C
:1024C000424B434D1A6801321A602A68002A3DD0F7
:1024D000DFF83481D8F800305BB33E4A3E4FE36A00
:1024E00016683C683D484FF0010903EB830E09FA7A
:1024F00003FA4AEA0403594600EB8E0006EB09048E
:102500003B601460FFF7B0F8FFF7D6F9D8F8003059
:1025100063B12B680A9EDB6A9E4207D9304B4FF0AD
:1025200080521A60BFF34F8FBFF36F8F0120BDE859
:10253000F88F2B680A9EDB6A9E4228BF2C60CCE78E
:10254000284840F22A21FDF7EDFF50E72C601B6878
:10255000012B17D0DFF8B080BFE75046FFF754F8E3
:102560004FF0FF30BDE8F88F4FEA8B00FEF7EEFF2B
:1025700082460028F4D03EE71A4840F22921FDF7B0
:10258000D1FF30E71548DFF88490174FDFF87880E7
:10259000FFF75AF81548FFF757F81548FFF754F8B2
:1025A0004846FFF751F83846FFF74EF81148FFF755
:1025B0004BF81148FFF748F81048FFF745F8104A64
:1025C000104BC2F800901F6087E700BF1425002061
:1025D000C0240020E42400201825002080240020AE
:1025E00004ED00E0DC390000FC24002094240020ED
:1025F000A8240020C4240020582400206C2400209B
:102600004C240020E024002050240020E824002056
:102610002DE9F8434FF4C870FEF798FF06460028EE
:1026200078D05020FEF792FF0446002800F0818009
:10263000002544214C224523492004F1040884F854
:10264000351084F8362084F83730266384F8340057
:1026500084F83850404684F83D50E562256465644E
:10266000FEF7FEFF06F5C67604F11800FEF7F8FF48
:1026700026F0070603232A46A361A564404984F88F
:102680004C50304624616462FFF7D0F82060FFF7B9
:10269000F3F83C4B3C4F1A6801321A603A68002A42
:1026A00041D03A4E33681BB93B68DB6A03B93C60E2
:1026B000E36A374A374D38482C684FF0010903EB7D
:1026C000830E09FA03F91368414649EA040900EB4D
:1026D0008E005C1C1460C5F80090FEF7C5FFFFF784
:1026E000EBF8336803B13B6800F0C6FC012810D159
:1026F0004FF0BF0383F31188BFF36F8FBFF34F8F8A
:10270000264B0121002231601A60BDE8F843FFF733
:1027100031B908B1BDE8F883214840F24C61BDE809
:10272000F843FDF7FFBE3C601B68012B06D0174E37
:10273000BEE73046BDE8F843FEF766BF1648DFF84F
:102740008490184D114EFEF77FFF1748FEF77CFF6F
:102750001648FEF779FF4846FEF776FF2846FEF753
:1027600073FF1348FEF770FF1248FEF76DFF124823
:10277000FEF76AFF114A124BC2F800901D6097E7FE
:10278000092B000014250020C02400205024002024
:10279000E42400201825002080240020DC240020D0
:1027A000DC390000FC24002094240020A824002010
:1027B000C4240020582400206C2400204C24002035
:1027C000E0240020E8240020024B1A6801321A603D
:1027D000704700BFBC240020014B1868704700BF41
:1027E000DC2400202DE9F04F4B4B1B6883B0002BFD
:1027F00053D14A4B1A6801321A601F68002F5AD011
:10280000474A019213689F426ED3464EDFF83091DB
:10281000DFF83081444D00242CE0424A1368DB6825
:10282000D3F80CA0DAF804200AF1040B97425846BA
:102830006ED3FEF741FFDAF828200AF118000AB13A
:10284000FEF73AFFDAF82C002A68012303FA00FEAB
:1028500000EB80004EEA0202594609EB80002A6034
:10286000FEF702FFD8F80010DAF82C20CB6A9A4263
:1028700028BF012433681B68002BCED1019A4FF08A
:10288000FF331360D8F80030DB6A03EB830359F899
:102890002330022B28BF012404E0244B1A680132A4
:1028A0001A600024224B1B68002B18BF012420460D
:1028B00003B0BDE8F08F1B4E33681B6813BB1D4A85
:1028C00031681D4B1068306011601A68154901327B
:1028D0001A6033681B686BB9114A01924FF0FF33DD
:1028E000136013689F4290D2DFF85490DFF8548051
:1028F0000024C7E70B680A4ADB680192DB685B6863
:1029000013607FE70D4840F2A571FDF70BFED6E797
:10291000019B1A60B6E700BFBC240020DC24002025
:102920001C0000204C240020182500201025002029
:102930001C250020E0240020D8240020DC390000E1
:1029400080240020C02400202DE9F84F364C236855
:10295000002B55D0FEF790FF2368013B23602368CE
:10296000002B47D1314B1B68002B43D0DFF8D4B08C
:102970002F4FDFF8D490DFF8D480DA4620E0DAF881
:102980000C30DC68251D04F11800FEF795FE284682
:10299000FEF792FEE36A3A6806FA03FC03EB830053
:1029A00029464CEA020309EB80003B60FEF75CFE1F
:1029B000D8F80030E16ADB6A994224BF1D4A1660EC
:1029C000DBF800300126002BD9D11B4C23686BB1FA
:1029D00023685BB10125FFF705FF08B1154B1D60AA
:1029E0002368013B23602368002BF4D1114A13684C
:1029F000012B0BD00024FEF75FFF2046BDE8F88FC7
:102A00000E4840F28961FDF78DFDA3E70C4B4FF0B6
:102A100080521A60BFF34F8FBFF36F8F0124FEF710
:102A20004BFF2046BDE8F88FBC2400201425002071
:102A3000182500201C25002010250020DC3900006E
:102A400004ED00E0C424002080240020C0240020E5
:102A5000F8B5044600282ED0224D2B68002B3AD121
:102A60002B68214F214E01332B603B6830680430C6
:102A70001C44FEF721FE48B932681D4BD26A196822
:102A8000012000FA02F221EA02021A6033683A6871
:102A90005C609442154B17D3164A106819680431CC
:102AA000FEF7F0FD144B1A68944238BF1C60FFF724
:102AB0004BFF00B1F8BD114B4FF080521A60BFF3CD
:102AC0004F8FBFF36F8FF8BD0D4A1068196804313E
:102AD000FEF7D8FDEBE70B4840F29F31FDF722FDF2
:102AE000BEE700BFBC240020DC240020C02400205E
:102AF000182500204C2400201C00002004ED00E0DC
:102B0000E0240020DC39000080B5184E184F194C25
:102B1000DFF86490BA46B04606E023683D680133AA
:102B20002360FFF711FF2DB93368002BF5D1FEF7B5
:102B3000D7FDF9E7FEF7A0FEDAF80C30DD68281DB6
:102B4000FEF7BAFDD9F80030013BC9F80030D8F8DB
:102B50000030013BC8F80030FEF7AEFE286BFEF7F0
:102B600053FD2846FEF750FDDEE700BF5424002049
:102B700058240020BC24002014250020164B1B687C
:102B800070B5F3B91549164A0B601468B4FA84F4A9
:102B9000E4B2C4F11F04A6003319124D55F82330D6
:102BA0009BB1321905EB820202F1080153685B68A0
:102BB00053608B4204BF5B6853600B4ADB68136051
:102BC00070BD064B01221A6070BD084840F6C40172
:102BD000FDF7A8FCE5E700BFBC2400201C25002071
:102BE0001825002080240020C0240020DC390000AB
:102BF00070B505460E4600283AD0204C216828467C
:102C00001831FEF73FFD20680430FEF755FD48B946
:102C100022681B4BD26A1968012000FA02F221EAED
:102C200002021A60731C1CD0164B144A18682168E3
:102C30001B6834189C424C600BD3134B1868116806
:102C40000431FEF71FFD114B1A68944238BF1C6017
:102C500070BD0F4B18681168BDE870400431FEF775
:102C600011BD21680B480431BDE87040FEF7FCBC83
:102C7000094840F6D601FDF755FCBEE7C024002008
:102C800018250020DC2400204C2400201C000020FB
:102C9000E02400206C240020DC39000070B50546DB
:102CA0000E46002831D01C4C216828461831FEF70A
:102CB000DBFC20680430FEF7FFFC48B92268174BA4
:102CC000D26A1968012000FA02F221EA02021A60AF
:102CD000134B114A186821681B6834189C424C60D9
:102CE0000BD3104B186811680431FEF7CBFC0E4B68
:102CF0001A68944238BF1C6070BD0C4B186811688C
:102D0000BDE870400431FEF7BDBC094840F65511DE
:102D1000FDF708FCC7E700BFC024002018250020ED
:102D2000DC2400204C2400201C000020E024002093
:102D3000DC390000F8B5C368DC68002C2CD004F145
:102D400018052846FEF7B8FC164B1B68EBB9251D85
:102D50002846FEF7B1FC144AE36A166813480127B7
:102D60009F4003EB8303294600EB830047EA0605F7
:102D70001560FEF779FC0E4BE26A1B68DB6A9A422B
:102D800008D90C4B01201860F8BD29460A48FEF707
:102D90006BFCF0E70020F8BD084840F68F11FDF706
:102DA000C1FBCCE7BC240020182500208024002093
:102DB000C02400201C250020C4240020DC39000091
:102DC00010B5044630B1064A064B12681B6884E809
:102DD0000C0010BD044840F6EF11FDF7A3FBF2E72D
:102DE000D8240020DC240020DC390000F8B504469B
:102DF0000D4620B3002D2DD0FEF73EFD2B6818495F
:102E0000581C0A6821D0174E20683768B84260689D
:102E100001D0824202D2171ABB4204D80125FEF724
:102E20004BFD2846F8BD9B1A18443668096828608F
:102E3000002526606160FEF73FFD2846F8BD0A4880
:102E400040F6F911FDF76EFBD4E70025FEF734FDDF
:102E50002846F8BD044840F6FA11FDF763FBCBE7BE
:102E6000DC240020D8240020DC390000014B0122A2
:102E70001A6070471C250020054B1B6833B1054BB9
:102E80001B68002B14BF00200220704701207047F0
:102E900050240020BC240020F8B50446C0B1204DC9
:102EA000C36A2A68D26A934212D28269002A04DB7A
:102EB0002A68D26AC2F1030282611A4E626903EB88
:102EC000830306EB83039A4203D02B68DB6AE36239
:102ED000F8BD271D3846FEF7EFFBF8B9E36A03EBB0
:102EE000830256F82220CAB90F4A0120116800FA5D
:102EF00003F321EA030313602B681568DB6AE362BE
:102F000001249C4003EB830044EA0503394606EBA9
:102F100080001360BDE8F840FEF7A6BB024AEBE76D
:102F2000C02400208024002018250020F8B5044685
:102F300040B1436CB3B1E16A226C013B91426364DE
:102F400000D00BB10020F8BD261D3046FEF7B4FBC3
:102F500078B9E36A174803EB830250F8222002B3E2
:102F6000154A08E0154840F64F51FDF7DBFA636C4F
:102F7000E1E71048104A236CD2F800E0E362012533
:102F800005FA03FCC3F1030703EB8303314600EBAF
:102F900083004CEA0E06A7611660FEF765FB284623
:102FA000F8BD054A0125116805FA03F321EA030378
:102FB0001360E0E78024002018250020DC390000A1
:102FC000044B1A681AB11A68516C013151641868BF
:102FD000704700BFC02400202DE9F047224EDFF8E3
:102FE000949084B0B0460CE0DB68DC681F68251D57
:102FF0002846FEF761FB636A20469847E369012B88
:103000000BD0336818491A68002AEDD1174A1068A6
:103010000860136004B0BDE8F087A3693B44BB427D
:103020004FF0000A17D8D9F8003073B1CDF804A0DA
:1030300002970394FFF720FF52465346D9F8000049
:1030400001A9FEF761FD0028DBD1094840F2F22119
:10305000FDF768FAD5E763602461D8F800002946D7
:10306000FEF710FBCDE700BF2025002054250020EF
:10307000F039000050250020F0B5204C85B0FEF757
:10308000FBFB2568CDB1FEF717FC23686BB100236D
:1030900002228DE80C000293039319481949642217
:1030A000FFF796F908B105B0F0BD17484FF48771E6
:1030B000FDF738FA002005B0F0BD144F144E384625
:1030C000FEF7C2FA3046FEF7BFFA124A124B1760FB
:1030D0000A202A460C211E60FEF7CEFC206018B1A3
:1030E0000E49FFF7E9F8CEE707484FF44471FDF7C2
:1030F00019FA20680028C6D0F2E700BF502500204A
:1031000079310000103A0000F03900002425002039
:10311000382500202025002054250020083A0000F2
:1031200030B5144D2C6885B004B305290191029285
:1031300003900BDCFFF7A0FE02280FD000222868C6
:10314000134601A9FEF7E0FC05B030BD1A46204643
:1031500001A90023FEF78EFE05B030BD2868089A4D
:1031600001A90023FEF7D0FC05B030BD204605B014
:1031700030BD00BF502500202DE9F04F894D8A4F0A
:103180008A4C89B0A9463B681A68D2F1010B38BF56
:103190004FF0000BBBF1000F50D1DB681E68FFF74A
:1031A00013FBFFF719FB29688842824648D3C9F808
:1031B0000000BBF1000F01D156454BD9CAEB060107
:1031C0002068FFF7ADF8FFF7BFFB38B9784A4FF03A
:1031D00080531360BFF34F8FBFF36F8F4FF0000822
:1031E000012600221346206805A9FEF7D5FE002817
:1031F000C9D0059B002BF4DBDDF81CA0DAF8142005
:103200001AB10AF10400FEF757FAFFF7E5FA296848
:10321000884283461BD30599C5F800B00929E0D838
:1032200006FA01F111F4047F62D111F0C70F35D114
:103230008B06D6D55046FEF7E7F9D2E70026AEE773
:10324000FFF7CAFEC9F800A0FFF77EFBC6E7FFF74D
:10325000C3FEE0E7FFF778FB3968C968D1F80C8056
:1032600008F1040108460391FEF726FAD8F81C007D
:103270000399012804D0D8F8243040469847ADE798
:10328000D8F81800C8F8108033189A45C8F80430E8
:1032900041D2454B1868FEF7F5F9ECE70699DAF8E4
:1032A0001830CAF810A058185845CAF8040050D869
:1032B000C1EB0B02934269D8DAF8242050469047BC
:1032C000DAF81C20012A8CD1DAF81830069ACDF8E9
:1032D000008000211A4450460B46FFF721FF0028CA
:1032E0007FF47FAF334840F29621FDF71BF978E772
:1032F0000699CAF81810002935D059448B45CAF8E8
:103300000410CAF810A028D32B4A0AF1040110684F
:10331000FEF7B8F965E7C6EB0A0398423DD8216885
:10332000224B81B10393CDF814B00696CDF81C80E2
:10333000FFF7A2FD039B5A46186805A95B46FEF7F6
:10334000E3FB002897D11B484FF4C871FDF7EAF85A
:1033500091E7594501D98142AED90AF10401386893
:10336000FEF790F93DE7134840F2AD21FDF7DAF89A
:10337000DAF81810CAF810A00BEB01005845CAF88B
:103380000400EAD800293FF42CAFBDE70A4B0AF14C
:1033900004011868FEF776F923E7074A1068FEF77C
:1033A00071F968E74C2500202025002050250020D9
:1033B00004ED00E0F0390000542500200748804764
:1033C0000749084A084B9B1A40F30580043BC8583C
:1033D000D0503FF7FBAF054800470000F53500002F
:1033E0008C3A0000000000209000002055010000F1
:1033F000FEE7FEE7FEE7FEE7FEE7FEE7FEE7FEE7A5
:10340000FEE7FEE7FEE7FEE7FEE7FEE7FEE7FEE794
:10341000FEE7FEE7FEE7FEE7FEE7FEE7FEE7FEE784
:10342000FEE7FEE7FEE7FEE7FEE7FEE7FEE7FEE774
:10343000FEE7FEE7FEE7FEE7FEE7FEE7FEE7FEE764
:10344000FEE7FEE7FEE7FEE7FEE7FEE7FEE7FEE754
:10345000FEE7FEE72A4AD36A03F47053B3F5805FB0
:103460002AD0B3F5005F24D0B3F5006F11D0D36834
:1034700003F4E063B3F5007F3FD020D9B3F5806F4C
:1034800039D0B3F5A06F34D0B3F5407F25D00021FB
:1034900001E01C4B19681A4B1B4A18685B68C0F3A3
:1034A00082300130B1FBF0F003F00F03D840106020
:1034B0007047164B1968EEE74FF40041EBE773B124
:1034C000B3F5807FE3D1124B124AD96C124BB1F1A4
:1034D000985F34BF11461946DDE71049DBE70C4B16
:1034E0000F4AD96C0F4BB1F1985F34BF11461946A2
:1034F000D1E70D49CFE70D49CDE70D49CBE700BF37
:1035000000800C4024000020AC250020200000207A
:10351000B081E00FC0CF6A0040B56400809FD50045
:1035200040420F00804F1200003FAB01406F40014E
:10353000C0D8A700234AD36A03F47053B3F5805F61
:103540001DD0B3F5005F17D0B3F5006F11D0D3686D
:1035500003F4E063B3F5007F32D013D9B3F5806F85
:103560002CD0B3F5A06F27D0B3F5407F18D0002042
:103570007047154B18687047144B186870474FF424
:103580000040704773B1B3F5807FF0D1104B114A02
:10359000D86C114BB0F1985F34BF10461846704795
:1035A0000E4870470A4B0E4AD86C0E4BB0F1985F2C
:1035B00034BF1046184670470B4870470B48704799
:1035C0000B48704700800C402400002020000020A1
:1035D000B081E00FC0CF6A0040B56400809FD50085
:1035E00040420F00804F1200003FAB01406F40018E
:1035F000C0D8A700034BD3F8882042F47002C3F868
:103600008820704700ED00E04FF40040704700BF95
:103610004FF47A70704700BF014B1868704700BFC5
:1036200020000020012838B51BD80F4B13F830407C
:1036300003EBC002052C556801D80F2D04D90B48A7
:1036400040F22221FCF76EFF04EBC404A40004F155
:10365000804404F5C044012303FA05F5A561002068
:1036600038BD4FF0FF3038BD683A0000183A00000E
:103670004FF07E632DE9F003186810B9BDE8F00340
:1036800070472749274B4A6C42F400524A64D3F8EA
:10369000202142F00402C3F82021D3F8202122F493
:1036A0004072C3F82021D3F8B82022F47062C3F826
:1036B000B820D3F8B820102042F48062C3F8B820B4
:1036C0000A460862D36A9906FCD5174BDA68D2011C
:1036D00021D4D868154ADFF86080DFF86090144D77
:1036E000144C4FF0604140F0807002274FF4807618
:1036F0004FF00F0CD860C8F800900120C2F810C03D
:10370000C2F8F070C2F80463C1F8B05FC1F8804E2F
:10371000BDE8F00370470120BDE8F003704700BF2B
:1037200000800C4000600040F0ED00E0000004E08C
:1037300055CEACC509000100001000E0FF130140A8
:103740000028B8BF4042704708B5074B044613B184
:103750000021AFF30080054B1868836A03B19847D6
:10376000204600F03DF800BF000000007C3A000059
:1037700070B50E4B0E4DED1AAD1000241E46AC4236
:1037800004D056F8242090470134F8E700F02AF8D6
:10379000084D094BED1AAD1000241E46AC4204D072
:1037A00056F8242090470134F8E770BD88000020C7
:1037B000880000208C0000208800002010B5002325
:1037C000934203D0CC5CC4540133F9E710BD0244EA
:1037D0000346934202D003F8011BFAE7704700004A
:1037E000FEE700BFF8B500BFF8BC08BC9E467047B6
:1037F000F8B500BFF8BC08BC9E4670474C65643104
:10380000000000004C656432000000002E2E2F6581
:103810006D6C69622F656D5F62757274632E6300F3
:103820002E2E2F656D6C69622F656D5F62757274E7
:10383000632E68002E2E2F656D6C69622F656D5F9B
:10384000636D752E630000002E2E2F656D6C69620E
:103850002F656D5F6C63642E630000003F000600FF
:103860005B004F0066006D007D0007007F006F0069
:1038700077007C0039005E00790071004000000094
:1038800001010507070304020302040605060D0EE5
:103890000E0E0D0D0D0D0E0E0E0E0D0D0101050778
:1038A000070304020302040605060F1010100F0F91
:1038B0000F0F101010100F0F01010507070304026E
:1038C000030204060506111212121111111112122F
:1038D0001212111101010507070304020302040675
:1038E0000506131C1C1C131313131C1C1C1C131384
:1038F00000010507060203010302040604051D1E5C
:103900001E1E1D1D1D1D1E1E1E1E1D1D0001050748
:10391000060203010302040604051F2020201F1FC6
:103920001F1F202020201F1F01010507070304027D
:10393000030204060506212222222121212122221E
:103940002222212107050201030604232323232326
:103950002323070502010306042424242424242409
:10396000070502010306042525252525252507052C
:103970000201030604262626262626260001070223
:103980000627272727270000000000000000131249
:1039900011100F0E0D0C0000000021252426000040
:1039A00001010000003000000100000000000000E4
:1039B000010000002E2E2F4672656552746F732F22
:1039C000706F72742E6300002E2E2F467265655242
:1039D000746F732F71756575652E63002E2E2F46DB
:1039E00072656552746F732F7461736B732E63000D
:1039F0002E2E2F4672656552746F732F74696D6534
:103A000072732E6300000000546D725100000000BC
:103A1000546D722053766300433A5C53696C69635A
:103A20006F6E4C6162735C53696D706C696369742D
:103A30007953747564696F5C76325C646576656C25
:103A40006F7065725C73646B735C65666D33325C5A
:103A500076322F656D6C69622F696E632F656D5FBD
:103A60006770696F2E68000004000000020000000B
:103A700004000000030000004300000028000020B4
:043A80000000000042
:083A8400D0C6FF7F0100000025
:103A8C00640000002800000000000000140000008A
:103A9C000100000020230000AAAAAAAAFFFFFFFF32
:103AAC0000800000006CDC02000000000000000040
:103ABC0000000000000000000000000000000000FA
:103ACC000000000000000000783A00000000000038
:103ADC0000000000000000000000000000000000DA
:103AEC0000000000000000000000000000000000CA
:103AFC0000000000000000000000000000000000BA
:103B0C000000000000000000250100000101000081
:04000003000033BD09
:00000001FF
