:1000000000800020691A00009F1A0000A11A000059
:10001000A31A0000A51A0000A71A00009D1A0000EC
:100020009D1A00009D1A00009D1A0000A91A0000E8
:10003000AB1A00009D1A0000AD1A00002503000055
:1000400065130000B31A0000B51A0000B71A0000CB
:10005000B91A0000BB1A0000BD1A0000BF1A000048
:10006000C11A0000C31A0000C51A0000C71A000018
:10007000C91A0000CB1A0000CD1A0000CF1A0000E8
:10008000D11A0000D31A0000D51A0000D71A0000B8
:10009000D91A0000DB1A0000DD1A0000DF1A000088
:1000A000E11A0000E31A0000E51A0000E71A000058
:1000B000E91A0000EB1A000049030000EF1A0000E3
:1000C000F11A0000F31A0000F51A0000F71A0000F8
:1000D000F91A0000FB1A0000FD1A0000FF1A0000C8
:1000E0000000000000000000000000000000000010
:1000F0000000000000000000000000000000000000
:1001000010B5054C237833B9044B13B10448AFF351
:1001100000800123237010BD70000020000000004B
:100120004C21000008B5064B1BB106480649AFF349
:1001300000800648036813B1054B03B1984708BD1A
:10014000000000004C21000074000020700000201E
:1001500000000000154B002B08BF134B9D46A3F574
:10016000803A00218B460F461348144A121A01F0B8
:10017000C3FE0F4B002B00D098470E4B002B00D036
:1001800098470020002104000D000D48002802D0EF
:100190000C48AFF3008001F089FE2000290000F038
:1001A00013F801F06FFE00BF00000800008000207F
:1001B0000000000000000000700000209C000020F3
:1001C000000000000000000010B501F0EFFD1C4829
:1001D00000F0F8FA1B4BA3FB00129209013AB2F1AE
:1001E000807F2CD2184B19495A6000240722E02046
:1001F00081F823009C6001211A60154800F0FEFE82
:1002000001F06CFD204601F085FD204600F006F966
:1002100000F0AEF8642000F057F900F01BF8002061
:1002200001F09EFD012001F09BFD4FF47A7000F07B
:1002300081F81D2000F05CF800F046F9EFE7FEE7DA
:1002400020000400D34D621010E000E000ED00E05B
:100250001081020010B52148214C012100F0CEFE92
:100260002048012100F0CAFE0320002104220123BE
:1002700001F0C4F801210A460320002301F0BEF872
:10028000032002210422002301F0B8F803200422F5
:100290000123014601F0B2F8204601F085FB124827
:1002A000012100F0ABFE2046104901F0ADFA636D6C
:1002B00023F4E06343F480736365626D052042F0CC
:1002C0000B0241F6F97304216265E0600A46A364FB
:1002D00003200023BDE8104001F090B800D20200D6
:1002E00000C400401081020000120200241F000020
:1002F00008B50A4B082240F40041C3F880200848A2
:1003000001F0ACFB064A13699B06FCD5044801F0DA
:100310009FFB024B0822DA6708BD00BF0060004067
:1003200000C40040024B1A6801321A60704700BFD7
:1003300094000020034A116813685B1A8342FBD3C0
:10034000704700BF9400002008B5002001F058FA63
:10035000054B064A02219961D96921F00201D96150
:10036000136803B1984708BD000008408C000020C6
:1003700010B5294C00202146024601F06FF92146B4
:100380000120002201F06AF921460220002201F03A
:1003900065F921460320002201F060F9214604207E
:1003A000002201F05BF921460520002201F056F9F8
:1003B00021460620002201F051F9214607200022A3
:1003C00001F04CF900200246FF2101F0AFF90120B5
:1003D000FF21002201F0AAF90220FF21002201F0F2
:1003E000A5F90320FF21002201F0A0F90420FF213C
:1003F000002201F09BF90520FF21002201F096F96F
:100400000620FF21002201F091F90720FF210022A0
:10041000BDE8104001F08AB900F00FF010B50121DD
:100420000446224800F0EAFD2148032100F044FE82
:100430004021204800F002FC012000F079FF01215A
:100440001D4800F0DBFD1D4B1D489A6A00229A6290
:1004500001F034F80820012101F06EF8102001218C
:1004600001F06AF88020012101F066F84FF48070F5
:10047000012101F061F84FF40070012101F05CF8F6
:1004800034B9FFF775FF0D4A536E002BFCD110BD38
:100490004FF4402001F0AAF94FF4803001F03EF80B
:1004A000084BDA6F42F00802DA67EAE7004304001B
:1004B0000200060030000C0000340E0000A00840CE
:1004C0008020000000800C402DE9F84F42F20E73AE
:1004D0009842064600F3A9805A4B9842B8BF1E4680
:1004E00080F2A880304601F0C9FC4FF001090646B1
:1004F000554A556E544B002DFBD14FF0010BC3F8FC
:1005000060B0584678212A4601F010F9022078217F
:100510002A4601F00BF9032078212A4601F006F95A
:10052000042078212A4601F001F9052078212A4685
:1005300001F0FCF8062078212A4601F0F7F80720A0
:1005400078212A4601F0F2F8404CDFF80881404F4C
:10055000AA4696FBFBF287FB0231D317C3EBA1033C
:1005600003EB8303A2EB4303B9F1000F58D19BB215
:1005700038F8135094F8CB1094F8C400EB074BD420
:10058000AA0794F8CC1094F8C50041D46B0794F8EE
:10059000CD1094F8C60037D42A0794F8CE1094F8FA
:1005A000C7002DD4EB0694F8CF1094F8C80023D4DC
:1005B000AA0694F8D01094F8C90019D46B0694F8E0
:1005C000D11094F8CA000FD40AF1010A0BEB8B0B7F
:1005D000BAF1040F4FEA4B0B04F10E04B9D11A4BD8
:1005E00000221A66BDE8F88F012200F0B1FFEBE7A8
:1005F000012200F0ADFFE1E7012200F0A9FFD7E7FB
:10060000012200F0A5FFCDE7012200F0A1FFC3E722
:10061000012200F09DFFB9E7012200F099FFAFE74A
:10062000BAF1030FA3D11023A2E74FF0000942F261
:100630000F765DE7002EA8BF4FF00009BFF658AF58
:1006400050E700BF19FCFFFF00A00840601F00003A
:10065000676666663C1F0000FEE700BF204A214B2C
:1006600090425B680AD903F00702023A23F00703BD
:10067000012A94BF43F0050343F004031A4A1B49BF
:1006800002448A4211D803F00702023A032A23F0F7
:10069000070305D8012101FA02F212F00B0F19D15C
:1006A00043F001030F4A53607047114A9042F9D852
:1006B00003F00702023A032A23F00703F2D80121CC
:1006C00001FA02F212F00B0F064A18BF43F00203C0
:1006D00053607047034A43F003035360704700BF01
:1006E0000048E80100000C40FFDB0BFFFF23F40093
:1006F0000024F40000F00F00013808B5042851D898
:10070000DFE800F01323324103002C4BDB6A03F4D3
:100710006033B3F5803F41D0B3F5003F40D0B3F52F
:10072000004F0CBF0820012008BD244BDB6A03F4F6
:100730007053B3F5805F33D0B3F5005F2ED0B3F5BF
:10074000006F0CBF0420052008BD1C4B986A00F008
:100750000300022823D003282BD0012820D09B6A35
:10076000DA030ED5092008BD144A936A03F00C037E
:10077000082B13D00C2B1CD0042B11D0936ADB0256
:10078000F0D4012008BD0D4B1B6813F0805312D02C
:10079000B3F1805F0CBF0820012008BD022008BD16
:1007A000032008BD064840F28751FFF755FF00209F
:1007B00008BD062008BD072008BD00BF00800C4012
:1007C0009420000000F47810B0F5602F08B500F018
:1007D000FF8016D8B0F5C02F00F0E7803AD8B0F50A
:1007E000003F00F0B280B0F5802F00F0518100286A
:1007F00000F0B980C2484FF49D61FFF72DFF002043
:1008000008BDB0F5B01F00F02C8146D8B0F5901FA0
:1008100000F08980B0F5A01F00F0AF80B0F5801F18
:10082000E8D1B84A936A03F00303022B00F0448135
:10083000032B00F0A681012B00F09281B14B9B6A43
:10084000180C01D001F040FAAE4B9B6E03F003038D
:10085000D84008BDB0F5202F4DD0B0F5402F00F0A6
:10086000D480B0F5002FC5D1A64A936A03F00303E4
:10087000022B00F02A81032B00F07881012B00F07D
:100880007281A04B9B6A180C01D001F01DFA9D4BA0
:100890009B6EC3F30313D84008BDB0F5D01F13D02F
:1008A000B0F5E01F00F0CF80B0F5C01FA2D1964890
:1008B000FFF720FF072807D0082854D090484FF4AE
:1008C000CA71FFF7C9FE9AE78E4B5B6903F4E063D8
:1008D000B3F5007F00F07A8140F2DE80B3F5C06F9F
:1008E00000F07881B3F5E06F00F07281B3F5407FDE
:1008F00085D1864808BD834A936A03F00303022B1F
:1009000000F0D780032B00F00781012B00F0F4806A
:10091000936A180C01D001F0D7F97A4B9B6EC3F3A0
:100920000323D84008BD774A936AC3F38103022B9F
:1009300000F09380032B00F0D180012B00F0B580F4
:10094000936A180D3FF45CAF3EE001F049F96D4B3E
:100950001A689B68C2F382320132B0FBF2F003F0F6
:100960000F03D84008BD01F03BF9664B1B68C3F389
:1009700082330133B0FBF3F008BD624A936AC3F3DC
:100980008103022B00F0A780032B00F0DF80012BF6
:1009900000F0D980936A1B0D40F024810020594B50
:1009A0001B6F03F00303D84008BD564A936A03F057
:1009B0000303022B51D0032B00F09080012B74D045
:1009C000936A180C3FF41CAFBDE8084001F07CB9F5
:1009D0004C4A936A03F00303022B79D0032B00F0F7
:1009E000A580012B00F0AC80936A180C01D001F0B7
:1009F0006BF9444B9A6EDB6FC2F3013203F00703CD
:100A0000D0400133B0FBF3F008BD3E4A936A03F0D7
:100A10000303022B53D0032B00F0CE80012B00F0F8
:100A2000C880936A1B0C40F0E0800020354B1022F8
:100A30009B6EB2FA82F2D2B2C2F11F02C3F301334B
:100A40001344D84008BD3248FFF754FE03282CD089
:100A500008284DD002287FF4D2AEBDE8084001F04E
:100A600037B9284A936AC3F38103022B2AD0032B98
:100A700000F09580012B00F08F80936A180D01D053
:100A800001F022F91F4B1B6FC3F30113D84008BDBF
:100A9000BDE8084001F034B8002B00F09D80B3F5AC
:100AA000807F7FF4ACAE1B4808BDBDE8084001F074
:100AB00007B901F00DF930E701F00AF9C4E601F0D9
:100AC00007F9B3E701F004F9DCE701F001F9DEE62C
:100AD00001F0FEF88DE701F0FBF860E75368D905F7
:100AE00002D413685A0079D501F00AF8800808BDCD
:100AF000BDE8084001F074B801F0E2F80DE700BF6E
:100B00009420000000800C400400180040420F00B8
:100B100005231C00C0D8A7005368D90502D4136868
:100B20005A0075D500F0ECFF8008F6E65368D90549
:100B300002D413685A0073D500F0E2FF800858E72A
:100B400001F0BEF855E701F0BBF828E75368DB0574
:100B500002D41368580057D500F0D2FF80081EE772
:100B600001F0AEF870E601F0ABF890E65368DB05F3
:100B700003D42D4B1B6858004ED500F0C1FF8008F0
:100B800085E65368DB0503D4274B1B6858002FD537
:100B900000F0B6FF800857E601F092F872E753685C
:100BA000D90502D413685B0026D500F0A9FF8008A0
:100BB00068E701F085F839E75368DB0502D413686C
:100BC00058001DD500F09CFF80082FE7174808BD8E
:100BD000174808BD174808BD174808BD00F090FF2A
:100BE000400808BD01F070F8D9E601F06DF81DE786
:100BF00000F086FF400827E600F082FF400841E74A
:100C000000F07EFF400811E700F07AFF4008C6E6DA
:100C100000F076FF400880E600F072FF400836E6FC
:100C200000F06EFF4008E4E600800C40C0CF6A0090
:100C3000406F4001003FAB01809FD50038B5C0F345
:100C40000313013B0C46042B00F2CB80DFE803F0DA
:100C50002B3C7AA303004C1E072C04D9AD4840F26C
:100C60003B31FFF7F9FCAC4B5B6803F00702052A48
:100C70000AD8012101FA02F212F02C0F40F0DC80B8
:100C800012F0130F40F01A81A349A44A4B60136875
:100C900023F4E03343EA8434146000F031FFBDE80C
:100CA0003840FFF7DBBC4D1EB5F5007F80F0248196
:100CB000B4FA84F4994B9A68E4B2C4F11F0422F0A8
:100CC0000F0222439A6038BDB1F5007F00F20E8119
:100CD000914B5B6803F00702052A0AD8012101FA4B
:100CE00002F212F02C0F40F0AC8012F0130F40F023
:100CF000E080894A51205360FFF764FD884B8949A1
:100D0000894AB0FBF4F0984294BF002301230B60A2
:100D10001360631EB3F5004F03D37E48BB21FFF77A
:100D20009BFCB4FA84F47D4B5A68E4B2C4F11F040E
:100D300022F00F0222435A6000F0E2FEBDE8384084
:100D4000FFF78CBC794B984200F01C817ED9784B20
:100D5000984200F0F380774B984240F0B480082925
:100D600000F23C816D4A536DD90740F19480631EB7
:100D7000B3F5004F03D36748BB21FFF76DFCB4FA0E
:100D800084F1664B9A6EC9B2C1F11F0122F00302D1
:100D90000A439A6638BD684B984230D003F5043355
:100DA000984225D1082900F29B805C4A536DD907EF
:100DB00010D5631EB3F5004F76D2B4FA84F1574BC9
:100DC0001A6FC9B2C1F11F0122F0300242EA0112CA
:100DD0001A6738BD136D5B06EBD5136D5B06F9D44E
:100DE000E7E74C4840F2EB31BDE83840FFF734BC50
:100DF000484840F2E531BDE83840FFF72DBC0829EE
:100E000068D8464A536DDD070FD5631EB3F5004F12
:100E100045D2B4FA84F1414B1A6FC9B2C1F11F0136
:100E200022F003020A431A6738BD136D5806ECD549
:100E3000136D5806F9D4E8E723F0070343F00503E0
:100E400022E723F0070343F0050352E7A3F5043339
:100E5000984238D1B1F5004F00F2C6802F4A536D49
:100E6000DD0714D5631EB3F5004F03D32948BB211A
:100E7000FFF7F2FBB4FA84F1284B9A6EC9B2C1F1C4
:100E80001F0122F0F00242EA01129A6638BD136D8A
:100E90005807FCD4E6E7136D5B07FCD467E71D48F1
:100EA000BB21FFF7D9FBB4E71A48BB21FFF7D4FBFE
:100EB00083E723F0070343F004031AE723F0070353
:100EC00043F00403E0E6134840F2BE31BDE8384089
:100ED000FFF7C2BB0F484FF47271FFF7BDFB90E7FD
:100EE0000C4840F2D731FFF7B7FB5EE7094840F204
:100EF0005631FFF7B1FBEBE6064840F24E31FFF703
:100F0000ABFBB5F5004FFFF4D3AE0248BB21FFF7B2
:100F1000A3FBCDE69420000000000C4000800C40B4
:100F200000366E0178009043A000904330240A0000
:100F300030000C003004100040051400A1F1100333
:100F4000702B45D82B4A536DDD0717D5631EB3F5BB
:100F5000004F03D32848BB21FFF77EFBB4FA84F48B
:100F6000244B10219A6EB1FA81F1E4B2C9B2091B87
:100F700022F4405242EA01329A6638BD136D580796
:100F8000FCD4E3E7B1F5004F1CD81A4A536DD907DA
:100F900014D5631EB3F5004F03D31748BB21FFF7E9
:100FA0005BFBB4FA84F1134B9A6EC9B2C1F11F0115
:100FB00022F4706242EA01229A6638BD136D5B0723
:100FC000FCD4E6E70C4840F29231FFF745FBDCE742
:100FD000094840F2A131FFF73FFBB3E706484FF461
:100FE0006C71FFF739FBBDE603484FF46171FFF701
:100FF00033FB33E700800C409420000030B5C0F391
:101000000323013B83B00446052B32D8DFE803F00D
:101010001B171F2E031D1C4A10201C4D6B6DDB0778
:10102000C4F3043404D522449200116003B030BDEF
:101030002B6D1842F7D02B6D1842F9D1F3E7144A03
:10104000C4F30434EFE7134AFAE7134AF8E7134806
:101050000191FFF7B7FB124B0199984211D9114D3D
:101060001148124A01232B600360E9E7104A01206E
:10107000D3E7104840F23E4103B0BDE83040FFF7EF
:10108000EBBA0A4ADCE700BF0003E41000800C4022
:101090002002E4104000E410C003E410200004002B
:1010A00000366E0178009043A00090430002E410E7
:1010B000C002E4109420000038B500F00F04631E55
:1010C000042B38D8DFE803F0291A1A10030003298B
:1010D0003ED0082962D0022950D08E4840F29F614C
:1010E000BDE83840FFF7B8BA07292BD008293ED110
:1010F000894B1A6842F080521A6038BD01390829BC
:1011000000F2E880DFE811F091009500A200E6000F
:10111000E600AE00E600E6007B000239072900F297
:10112000D280DFE811F07C00C500AF004200D000A3
:10113000D000D000C900774840F2A761BDE8384030
:10114000FFF78ABA744B1A6822F080521A6038BDD1
:10115000714A40231362D36A6F4C1906FBD500F025
:1011600043F960236362E36A9B03FCD538BD694899
:101170004FF4CE61BDE83840FFF76EBA664A4FF4CF
:1011800080731362D36A644C9D05FBD500F02CF983
:1011900040236362E36AD803FCD538BD5E4A20234E
:1011A0005362D36A1B04FCD538BD012401230222FB
:1011B00059490B62CB6A1A42FCD000F015F9574B23
:1011C0005B6803F00702052A0DD8012101FA02F23B
:1011D00012F02C0F40F0858012F0130F03D023F093
:1011E000070343F004034D494B4A4B60546200F03F
:1011F000FBF800F085FCBDE83840FFF72FBA4FF44C
:1012000080114FF480330022022C6FD0424A936A3F
:1012100023F4801323F00C030B43936238BD0424A2
:101220004FF480734FF40072C2E700210B460A4668
:10123000EAE7394A4FF480731362D36A9805FCD504
:1012400000F0D2F8082100230222DDE7324A4023D1
:101250001362D36A1906FCD500F0C6F804210023F6
:101260000122D1E72E4B01251D6000F049FC2D4BDA
:10127000984245D92C4A2D4B15600C211D60032244
:101280000023C1E700F00CFD264B9842224B1A6860
:101290003AD942F0804242F060021A601B6CDC06D0
:1012A00002D5224B01221A600224042308227FE780
:1012B0000324402380227BE7164840F2F551FFF7D4
:1012C000CBF9032472E7134840F2FA51BDE83840E5
:1012D000FFF7C2B90F4840F24561BDE83840FFF75B
:1012E000BBB923F0070343F005037CE70A48816A92
:1012F00021F48031134321F003011943816238BD89
:101300000C21002303227FE722F0600242F020023A
:101310001A60C9E79420000000800C4000000C40D7
:101320001008904300366E0178009043A00090436F
:10133000802810B504460BD8084B9A6D120706D4C6
:10134000DA6F04F0070422F007021443DC6710BDD3
:10135000034840F2D471FFF77FF9EDE700800C40BD
:10136000942000001D4A1E4B126841F20C012DE929
:10137000F04759580A402ED4996BDFF86890984688
:1013800002EA010422EA010A022704B30025012629
:10139000E20706FA05F316D5D8F80820C9F8003098
:1013A00002EB05132846DB686BB11A7AD3F800C04C
:1013B000111C82F0010218BF01211A72BCF1000F4A
:1013C00001D05A68E047640805F10105E0D1013F0A
:1013D00002D1BDE8F087FEE75446D6E700300C4066
:1013E00000200C4008300C40024A034BD26A1A809D
:1013F000704700BF00800C40900000200528F8B521
:1014000004460D4616461F462DD80F292BD8E2005C
:1014100056B1002F3CD013199B0003F1804303F514
:10142000C0430121A94019611119890001F18041CE
:10143000072D01F5C0411BD8AB0048684FF00F0CD9
:101440000CFA03FC20EA0C0006FA03F303434B609A
:1014500046B9224427BB174B92001344012202FADB
:1014600005F55D60F8BD1448CC21FFF7F5F8CEE72F
:1014700005F18043083B88689B004FF00F0C0CFA85
:1014800003FC20EA0C0006FA03F303438B60DFE75A
:101490001119084B89000B440121A9405960C3E789
:1014A000920002F1804202F5C042012303FA05F5E1
:1014B0001561F8BD10600040A82000002DE9F84338
:1014C000144B04465D6800B3D4F80C90D4F8048043
:1014D00094F808C0677A268A0E4B2178186825F49C
:1014E000830222F01F0249EA0804224342EA0C0266
:1014F0003A43324320F0010018605A6019B11A686B
:1015000042F001021A60BDE8F88303484321FFF767
:10151000A3F8D9E700A00840BC200000054B054A0D
:101520005B68B0F5803F23F4803308BF43F4803319
:101530005360704700A00840044B9A6819B922EA2A
:1015400000009860704710439860704700A0084002
:10155000072870B504460D4616460FDC272D07DC1C
:10156000072C4FD8DFE804F0181F272F363E46100F
:101570002A484FF48871FFF76FF8F1E7274840F2E7
:101580000911FFF769F8E9E71F2DD4BF244B254B5C
:101590002B449B001E6070BD1F2D3ADC224B2B4458
:1015A0009B001E6070BD1F2DD4BF204B204B2B44D1
:1015B0009B001E6070BD1F2DD4BF1E4B1E4B2B44C5
:1015C0009B001E6070BD1F2D23DD1C4B2B449B0018
:1015D0001E6070BD1F2DD4BF194B1A4B2B449B00AE
:1015E0001E6070BD1F2DD4BF174B184B2B449B00A2
:1015F0001E6070BD1F2DD4BF154B164B2B449B0096
:101600001E6070BD054840F28B11BDE87040FFF7C9
:1016100023B8114B2B449B001E6070BDBC20000002
:10162000C006C510E005C5100002C5102002C51097
:101630008002C5104002C510A002C510C002C5102E
:101640006006C5108005C5108006C510A005C51030
:10165000A006C510C005C5106002C510072870B5EA
:1016600004460D46164607DC072C53D8DFE804F085
:10167000141C242C343E480A2A4840F2A511FEF7D7
:10168000EBFFF1E7284BD3F8D8202E4022EA0505DE
:101690003543C3F8D85070BD234B1A6C2E4022EA54
:1016A000050535431D6470BD1F4B5A6C2E4022EA60
:1016B000050535435D6470BD1B4B9A6C2E4022EAD4
:1016C000050535439D6470BD174BDA6C2E4022EA48
:1016D00005053543DD6470BD134BD3F8CC202E4097
:1016E00022EA05053543C3F8CC5070BD0E4BD3F844
:1016F000D0202E4022EA05053543C3F8D05070BDF6
:10170000094BD3F8D4202E4022EA05053543C3F80F
:10171000D45070BD03484FF4F371BDE87040FEF73C
:101720009BBF00BFBC20000000A00840072870B588
:1017300004460D46164611DC072C0ED8DFE804F0EF
:10174000141C242C343E4804264BD3F8C0202E40D1
:1017500022EA05053543C3F8C05070BD224840F267
:10176000FF11FEF779FFE7E71E4B1A6D2E4022EAC4
:10177000050535431D6570BD1A4B5A6D2E4022EA92
:10178000050535435D6570BD164B9A6D2E4022EA06
:10179000050535439D6570BD124BDA6D2E4022EA7A
:1017A00005053543DD6570BD0E4BD3F8B4202E40E2
:1017B00022EA05053543C3F8B45070BD094BD3F890
:1017C000B8202E4022EA05053543C3F8B85070BD55
:1017D000044BD3F8BC202E4022EA05053543C3F85C
:1017E000BC5070BD00A00840BC200000034B5A68EC
:1017F00022F4E01210435860704700BF00A0084078
:101800004FF0864318607047604B98422DE9F041D5
:1018100004460D4600F0958003F58063984200F081
:10182000A28003F58063984275D0594840F2622146
:10183000FEF712FF574B9C426DD003F580639C422C
:1018400069D0534840F22E31FEF706FF002340F6E0
:10185000AA6041F2050141F6F972E060236061601F
:10186000A3606361E364A2646365A365B5F810C017
:1018700095F80E802268A97C287D2B7BAE686F6866
:101880004CF0010C1FFA8CFCB8F1000F4CEA02027C
:101890000CBF4FF0000C4FF4806C42EA0C02226047
:1018A000226800290CBF00211021002841EA020211
:1018B0000CBF00214FF000510A4343F480532260D3
:1018C0006360E6B117B3731E03EB4707B7FBF6F689
:1018D000B601403E304B26F0FF029A4204D92C4814
:1018E0004FF4F271FEF7B8FE2C4B6A7B3340636114
:1018F0000AB11023E3602B78E360BDE8F08124484F
:1019000040F2B511FEF7A8FE002FDCD12448FEF707
:1019100059FF0746D7E7234A002340F6AA6641F25B
:10192000050041F6F9719442E66023606060A360AF
:101930006361E364A1646365A36597D10023E365F4
:1019400094E7002340F6AA6041F2050141F6F972DE
:10195000E06023606160A3606361E364A264636527
:101960002365A36582E7002340F6AA6041F20501E2
:1019700041F6F972E06023606160A3606361E36433
:10198000A2646365A3650023E3656FE700C00040C0
:10199000D020000000E00040C0FF1F0000FF1F003B
:1019A0001081020000C80040274B984210B5044641
:1019B00038D003F58063984221D003F580639842C4
:1019C0001DD003F5C053984208D003F580639842B8
:1019D00004D01E4840F22E31FEF73EFE002340F6B2
:1019E000AA6041F2050141F6F972E060236061608E
:1019F000A3606361E364A2646365A36510BD002313
:101A000040F6AA6041F2050141F6F972E0602360F8
:101A10006160A3606361E364A2646365A3650023FE
:101A2000E36510BD002340F6AA6041F2050141F6CE
:101A3000F972E06023606160A3606361E364A264A3
:101A400063652365A36510BD00C00040D020000081
:101A50000369DB05FCD5406A80B2704703695B0609
:101A6000FCD5C163704700BF074880470749084A53
:101A7000084B9B1A40F30580043BC858D0503FF7F1
:101A8000FBAF054800470000AD1C000058210000D6
:101A9000000000207000002055010000FEE7FEE776
:101AA000FEE7FEE7FEE7FEE7FEE7FEE7FEE7FEE70E
:101AB000FEE7FEE7FEE7FEE7FEE7FEE7FEE7FEE7FE
:101AC000FEE7FEE7FEE7FEE7FEE7FEE7FEE7FEE7EE
:101AD000FEE7FEE7FEE7FEE7FEE7FEE7FEE7FEE7DE
:101AE000FEE7FEE7FEE7FEE7FEE7FEE7FEE7FEE7CE
:101AF000FEE7FEE7FEE7FEE7FEE7FEE7FEE7FEE7BE
:101B00002A4AD36A03F47053B3F5805F2AD0B3F541
:101B1000005F24D0B3F5006F11D0D36803F4E06305
:101B2000B3F5007F3FD020D9B3F5806F39D0B3F53E
:101B3000A06F34D0B3F5407F25D0002101E01C4BCD
:101B400019681A4B1B4A18685B68C0F38230013071
:101B5000B1FBF0F003F00F03D84010607047164B54
:101B60001968EEE74FF40041EBE773B1B3F5807FFE
:101B7000E3D1124B124AD96C124BB1F1985F34BFCA
:101B800011461946DDE71049DBE70C4B0F4AD96CCB
:101B90000F4BB1F1985F34BF11461946D1E70D499B
:101BA000CFE70D49CDE70D49CBE700BF00800C40E2
:101BB000040000209800002000000020B081E00F09
:101BC000C0CF6A0040B56400809FD50040420F003E
:101BD000804F1200003FAB01406F4001C0D8A7000A
:101BE000234AD36A03F47053B3F5805F1DD0B3F575
:101BF000005F17D0B3F5006F11D0D36803F4E06332
:101C0000B3F5007F32D013D9B3F5806F2CD0B3F584
:101C1000A06F27D0B3F5407F18D000207047154B38
:101C200018687047144B186870474FF400407047AD
:101C300073B1B3F5807FF0D1104B114AD86C114BC2
:101C4000B0F1985F34BF1046184670470E48704791
:101C50000A4B0E4AD86C0E4BB0F1985F34BF104659
:101C6000184670470B4870470B4870470B48704741
:101C700000800C400400002000000020B081E00F34
:101C8000C0CF6A0040B56400809FD50040420F007D
:101C9000804F1200003FAB01406F4001C0D8A70049
:101CA000014B1868704700BF04000020034BD3F8B5
:101CB000882042F47002C3F88820704700ED00E0ED
:101CC0004FF40040704700BF4FF47A70704700BF78
:101CD000014B1868704700BF0000002008B50B4892
:101CE0000121FFF78BF90A480121FFF787F904204A
:101CF000024602210023FFF781FB04200246032154
:101D00000023FFF77BFB002008BD00BF108102000D
:101D100000D20200012838B51BD80F4B13F8304011
:101D200003EBC002052C556801D80F2D04D90B48D0
:101D300040F20B21FEF790FC04EBC404A40004F174
:101D4000804404F5C044012303FA05F52561002011
:101D500038BD4FF0FF3038BD34210000E4200000D2
:101D6000012838B51BD80F4B13F8304003EBC002E5
:101D7000052C556801D80F2D04D90B4840F22221BB
:101D8000FEF76AFC04EBC404A40004F1804404F5EB
:101D9000C044012303FA05F5A561002038BD4FF0CA
:101DA000FF3038BD34210000E42000004FF07E6396
:101DB0002DE9F003186810B9BDE8F0037047274912
:101DC000274B4A6C42F400524A64D3F8202142F077
:101DD0000402C3F82021D3F8202122F44072C3F872
:101DE0002021D3F8B82022F47062C3F8B820D3F8C9
:101DF000B820102042F48062C3F8B8200A46086276
:101E0000D36A9906FCD5174BDA68D20121D4D86879
:101E1000154ADFF86080DFF86090144D144C4FF0E5
:101E2000604140F0807002274FF480764FF00F0C35
:101E3000D860C8F800900120C2F810C0C2F8F07055
:101E4000C2F80463C1F8B05FC1F8804EBDE8F0038A
:101E500070470120BDE8F003704700BF00800C40D0
:101E600000600040F0ED00E0000004E055CEACC59D
:101E700009000100001000E0FF1301400028B8BF76
:101E80004042704708B5074B044613B10021AFF339
:101E90000080054B1868836A03B19847204600F01C
:101EA00033F800BF000000004821000070B50E4B61
:101EB0000E4DED1AAD1000241E46AC4204D056F86B
:101EC000242090470134F8E700F020F8084D094B32
:101ED000ED1AAD1000241E46AC4204D056F8242062
:101EE00090470134F8E770BD6800002068000020CA
:101EF0006C0000206800002002440346934202D098
:101F000003F8011BFAE77047FEE700BFF8B500BF12
:101F1000F8BC08BC9E467047F8B500BFF8BC08BCCA
:101F20009E46704705000000006CDC0240420F0036
:101F30000D01010000000000000000003F0006004D
:101F40005B004F0066006D007D0007007F006F00A2
:101F500077007C0039005E007900710040000000CD
:101F600001010507070304020302040605060D0E1E
:101F70000E0E0D0D0D0D0E0E0E0E0D0D01010507B1
:101F8000070304020302040605060F1010100F0FCA
:101F90000F0F101010100F0F0101050707030402A7
:101FA0000302040605061112121211111111121268
:101FB00012121111010105070703040203020406AE
:101FC0000506131C1C1C131313131C1C1C1C1313BD
:101FD00000010507060203010302040604051D1E95
:101FE0001E1E1D1D1D1D1E1E1E1E1D1D0001050782
:101FF000060203010302040604051F2020201F1F00
:102000001F1F202020201F1F0101050707030402B6
:102010000302040605062122222221212121222257
:10202000222221210705020103060423232323235F
:102030002323070502010306042424242424242442
:102040000705020103060425252525252525070565
:10205000020103060426262626262626000107025C
:102060000627272727270000000000000000131282
:1020700011100F0E0D0C0000000021252426000079
:1020800001000000030040000C0000000000000000
:10209000000000002E2E2F656D6C69622F656D5F4C
:1020A000636D752E630000002E2E2F656D6C6962C6
:1020B0002F656D5F6770696F2E6300002E2E2F6590
:1020C0006D6C69622F656D5F6C63642E6300000048
:1020D0002E2E2F656D6C69622F656D5F7573617251
:1020E000742E6300433A5C53696C69636F6E4C6194
:1020F00062735C53696D706C69636974795374754C
:1021000064696F5C76325C646576656C6F7065726D
:102110005C73646B735C65666D33325C76322F651D
:102120006D6C69622F696E632F656D5F6770696F93
:102130002E680000040000000200000004000000FF
:102140000300000043000000080000200000000021
:0821500004E0FF7F0100000024
:1021580000800000006CDC020000000000000000AD
:102168000000000000000000000000000000000067
:1021780000000000000000004421000000000000F2
:102188000000000000000000000000000000000047
:102198000000000000000000000000000000000037
:1021A8000000000000000000000000000000000027
:1021B80000000000000000002501000001010000EF
:0400000300001A6976
:00000001FF
