:1008000000100020350F0000670F0000690F000086
:10081000650F0000650F0000650F0000650F000008
:10082000650F0000650F0000650F00006B0F0000F2
:10083000650F0000650F00006D0F00006F0F0000D6
:10084000710F0000730F0000750F0000770F00009C
:10085000790F0000B50F00007D0F00007F0F000032
:10086000810F0000830F0000850F0000870F00003C
:10087000890F00008B0F00008D0F00008F0F00000C
:10088000910F0000000000000000000000000000C8
:100890000000000000000000000000000000000058
:1008A0000000000000000000000000000000000048
:1008B0000000000000000000000000000000000038
:1008C0000000000000000000000000000000000028
:1008D0000000000000000000000000000000000018
:1008E0000000000000000000000000000000000008
:1008F00000000000000000000000000000000000F8
:1009000010B5064C2378002B07D10548002802D0EB
:10091000044800E000BF0121217010BD6C000020E0
:10092000000000009812000008B5084B002B03D00F
:100930000748084900E000BF07480168002903D0C4
:10094000064A002A00D0904708BDC04600000000BB
:1009500098120000700000206C00002000000000D1
:10096000164B002B00D1144B9D46402292029A1A3E
:10097000924600218B460F461348144A121A00F083
:1009800061FC0F4B002B00D098470E4B002B00D082
:1009900098470020002104460D4600200C49002203
:1009A000002300F0EFFB00F027FC2046294600F072
:1009B000E7F800F0F3FBC04600000800001000203C
:1009C00000000000000000006C0000205301002027
:1009D000CD11000080B500AFBD4680BD80B582B0AE
:1009E00000AF021C3960FB1D1A700949FB1D1A7803
:1009F000131CDB009B189B00CB1818335A683B680C
:100A0000DA4001231340181CBD4602B080BDC04629
:100A10000060004090B583B000AF021C3960FB1D40
:100A20001A70FB1D1B78052BFFD80948FB1D1A788F
:100A30003B6801210C1C9C40231C191C131CDB006F
:100A40009B189B00C31810335960BD4603B090BD7E
:100A50000060004090B583B000AF021C3960FB1D00
:100A60001A70FB1D1B78052BFFD80948FB1D1A784F
:100A70003B6801210C1C9C40231C191C131CDB002F
:100A80009B189B00C31810331960BD4603B090BD7E
:100A90000060004080B500AF054B181C012100F03C
:100AA00035F9044B181C012100F030F9BD4680BD1A
:100AB000108102000072020080B500AF0220012107
:100AC0000422012300F074F90120072104220123EC
:100AD00000F06EF9012008210422012300F068F9DA
:100AE00001200B210422012300F062F901200D21D5
:100AF0000122012300F05CF901200E2104220123D0
:100B000000F056F9BD4680BD80B582B000AF01202F
:100B10000B21FFF79FFFFB1D00221A701EE0012032
:100B20000E21FFF777FF01200D21FFF757FF031C70
:100B3000002B05D1FB1D1B780E4A0121D15404E086
:100B4000FB1D1B780B4A0021D15401200E21FFF719
:100B500081FFFB1DFA1D127801321A70FB1D1B78F4
:100B6000272BDCD901200B21FFF754FFBD4602B033
:100B700080BDC046BC00002080B500AFBD4680BD32
:100B800080B586B000AFFFF725FFFFF783FFFFF7C3
:100B900093FF00237B6107E03D4A7B69D318002265
:100BA0001A707B6901337B617B69092BF4DDFFF7E8
:100BB000ABFF00233B6128E03B1C0F3300221A707F
:100BC0000023BB6014E03A69BB68D318314AD35C98
:100BD0001A1CBB68111C99400B1CD9B23B1C0F336B
:100BE0003A1C0F3212788A181A70BB680133BB6046
:100BF000BB68072BE7DD264A3B69D3183A1C0F3246
:100C000012781A703B6901333B613B69042BD3DDD9
:100C100000237B6025E000233B601CE01C4A7B68CE
:100C2000D3181B78DBB21A1C3B681A41012313400E
:100C300007D07B68DA003B68D318174A0121D154EA
:100C400006E07B68DA003B68D318134A0021D154D0
:100C50003B6801333B603B68072BDFDD7B6801337A
:100C60007B607B68042BD6DDFFF786FF0B4B1A7881
:100C7000074BDA72094B5A78054B1A73074B9A786F
:100C8000034B5A73054BDA78014B9A738FE7C046D2
:100C9000E4000020BC0000209C0000209800002000
:100CA00080B586B000AFF860B9607A60FB681B68F9
:100CB0007B617A68012313407B60BB680122101CB2
:100CC0009840031CDB437A691A40BB687968081CAA
:100CD0009840031C1A43FB681A60BD4606B080BDED
:100CE00080B582B000AF7860074B5A6D0123134086
:100CF00006D1C046044B1B6D7A681340FAD100E060
:100D0000C046BD4602B080BD00800C4080B586B0B4
:100D100000AF78600A1CFB1C1A7000233B617B68E3
:100D20001A0A0F231340062B30D89A00194BD318F8
:100D30001B689F46184B7B6112E0184B7B610FE0EC
:100D4000174B7B610CE0174B7B6101233B6107E094
:100D5000154B7B6110233B6102E0144B7B61C04665
:100D60007B681A0B1F231340FB603B69002B03D0E9
:100D70003B69181CFFF7B4FFFB1C1B787969FA6804
:100D8000081C111C1A1CFFF78BFF00E0C046BD4673
:100D900006B080BD7412000008800C4044800C40F6
:100DA00040800C4058800C4060800C4078800C40A3
:100DB000B0B584B000AFB9607B603B1C0F33011C41
:100DC00019703B1C0E331A703B1C0F331B78052B1C
:100DD000FFD83B1C0E331B78002B25D07B68002BE3
:100DE00011D052483B1C0F331A78BB6801210C1CF0
:100DF0009C40231C191C131CDB009B189B00C31870
:100E00001033196010E049483B1C0F331A78BB6857
:100E100001210D1C9D402B1C191C131CDB009B1871
:100E20009B00C31810335960BB68072B25D83F4877
:100E30003B1C0F331A783D4C3B1C0F3319780B1CAD
:100E4000DB005B189B00E3185B68B96889000F241E
:100E5000251C8D40291CC94319403B1C0E331C78AE
:100E6000BB689B00251C9D402B1C1943131CDB00F9
:100E70009B189B00C31859602AE02C483B1C0F3379
:100E80001A782A4C3B1C0F3319780B1CDB005B18BB
:100E90009B00E31808331B68B968254C09198900C1
:100EA0000F24251C8D40291CC94319403B1C0E33BF
:100EB0001C78BB681E4D5B199B00251C9D402B1C9C
:100EC0001943131CDB009B189B00C31808331960DF
:100ED0003B1C0E331B78002B25D17B68002B11D0D7
:100EE00012483B1C0F331A78BB6801210C1C9C4034
:100EF000231C191C131CDB009B189B00C318103308
:100F0000196010E009483B1C0F331A78BB680121B7
:100F10000D1C9D402B1C191C131CDB009B189B00F7
:100F2000C31810335960BD4604B0B0BD0060004026
:100F3000F8FFFF3F064880470649074A074B9B1AC0
:100F400003DD043BC858D050FBDC054800470000D7
:100F5000950F0000A4120000000000206C0000208B
:100F600061090000FEE7FEE7FEE7FEE7FEE7FEE7B9
:100F7000FEE7FEE7FEE7FEE7FEE7FEE7FEE7FEE749
:100F8000FEE7FEE7FEE7FEE7FEE7FEE7FEE7FEE739
:100F9000FEE7C04680B500AFBD4680BD80B582B0DB
:100FA00000AF786039607B683A681A63BD4602B06A
:100FB00080BDC04680B586B000AF694B9B6A3B617F
:100FC0003A690423134052D0654BDB69FB60FB6830
:100FD0005A083B1C0B331A703B1C0B331A781F2327
:100FE00013400122111C99400B1C7B60FB68102BE5
:100FF00008D15C4B01221A70594BDB695A4B012214
:101000001A702EE0FB68112B23D1564B01221A7067
:10101000534BDB69554B1B78DBB2632B21D8544B08
:1010200000221A604E4B534A1278D2B2013A4F490D
:101030008A5CD2B2111C4E4A12688A184E498A5CE8
:10104000D2B25A624D4B01221A70474B01221A70DC
:1010500007E0444B00221A70414BDB69424B0022EF
:101060001A703F4B181C0421FFF798FF23E03A69E0
:10107000202313401FD03C4B1B78002B1BD03F4B31
:101080001B7801225340DBB2002B14D0394B1B7864
:10109000DBB2092B0FD8374B1B78DBB21A1C304B55
:1010A000DB69D9B2314B9954324B1B78DBB2013337
:1010B000DAB2304B1A70314B1B78002B35D02C4BE9
:1010C0001B685A1C2A4B1A6000237B6127E0244BC3
:1010D0009A6A0823134019D0214B264A1278D2B2BB
:1010E000013A22498A5CD2B2111C214A12688A183C
:1010F00021498A5CD2B25A621D4B1B685A1C1C4B98
:101100001A60174B181C0821FFF748FF144B9A6A06
:1011100080235B02134007D17B6901337B617A69CD
:10112000174B9A42D3DD00E0C0463A6980235B0248
:10113000134012D00A4A80235B02101C191CFFF7CF
:101140002DFF094B00221A700C4B00221A70054B20
:1011500000221A70064B00221A60BD4606B080BD00
:1011600000A00040960000208800002048010020D8
:101170008C00002094000020E4000020900000205B
:101180009F86010010B5044C002C02D000E000BF87
:1011900000E0201C10BDC04600000000094B10B547
:1011A000041C002B03D0002100E000BF01E000F090
:1011B0000DF805480068816A002900D08847201C86
:1011C00000F04AF8000000009412000038B5084B07
:1011D000084C1D1CE01A8410002C06D0A1006A18CF
:1011E000043A13689847013CF6E700F03DF838BD33
:1011F000680000206C00002070B50E4B0E4D0024DE
:10120000E81A85101E1CAC4204D0A1007258904709
:101210000134F8E700F022F80849094A0E1C541A74
:10122000A5100024AC4204D0A300F058804701343C
:10123000F8E770BD64000020640000206400002016
:101240006800002000B58218031C934202D0197078
:101250000133FAE700BD000000B5FEE7F8B5C0466F
:10126000F8BC08BC9E467047F8B5C046F8BC08BC40
:101270009E4670478C0D0000340D00003A0D0000B2
:10128000400D0000460D0000500D00005A0D0000FA
:0C129000430000000000002000000000EF
:08129C00C4F6FF7F0100000011
:1012A400000000000000000000000000000000003A
:1012B400000000000000000000000000000000002A
:1012C4009012000000000000000000000000000078
:1012D400000000000000000000000000000000000A
:1012E40000000000000000000000000000000000FA
:1012F40000000000000000000000000000000000EA
:0C130400000000002909000001090000A1
:0400000300000F35B5
:00000001FF
