:1008000000100020ED0D00001F0E0000210E000062
:100810001D0E00001D0E00001D0E00001D0E00002C
:100820001D0E00001D0E00001D0E0000230E000016
:100830001D0E00001D0E0000250E0000270E0000FA
:10084000290E00002B0E00002D0E00002F0E0000C0
:10085000310E0000330E0000350E0000370E000090
:10086000390E00003B0E00003D0E00003F0E000060
:10087000410E0000430E0000450E0000470E000030
:10088000490E000000000000000000000000000011
:100890000000000000000000000000000000000058
:1008A0000000000000000000000000000000000048
:1008B0000000000000000000000000000000000038
:1008C0000000000000000000000000000000000028
:1008D0000000000000000000000000000000000018
:1008E0000000000000000000000000000000000008
:1008F00000000000000000000000000000000000F8
:1009000010B5064C2378002B07D10548002802D0EB
:10091000044800E000BF0121217010BD6C000020E0
:1009200000000000680F000008B5084B002B03D042
:100930000748084900E000BF07480168002903D0C4
:10094000064A002A00D0904708BDC04600000000BB
:10095000680F0000700000206C0000200000000004
:10096000164B002B00D1144B9D46402292029A1A3E
:10097000924600218B460F461348144A121A00F083
:10098000C9FA0F4B002B00D098470E4B002B00D01C
:1009900098470020002104460D4600200C49002203
:1009A000002300F057FA00F08FFA2046294600F0A5
:1009B000C7F800F05BFAC0460000080000100020F5
:1009C00000000000000000006C000020D0000020AB
:1009D0009D0E000080B500AFBD4680BD90B583B0D0
:1009E00000AF021C3960FB1D1A70FB1D1B78052B24
:1009F000FFD80948FB1D1A783B6801210C1C9C405C
:100A0000231C191C131CDB009B189B00C3181033FC
:100A10005960BD4603B090BD0060004090B583B002
:100A200000AF021C3960FB1D1A70FB1D1B78052BE3
:100A3000FFD80948FB1D1A783B6801210C1C9C401B
:100A4000231C191C131CDB009B189B00C3181033BC
:100A50001960BD4603B090BD0060004080B500AF96
:100A6000054B181C012100F0ADF8044B181C0121A6
:100A700000F0A8F8BD4680BD10810200007202009F
:100A800080B500AF022001210422012300F0ECF820
:100A9000012007210422012300F0E6F801200821AB
:100AA0000422012300F0E0F801200B21042201239D
:100AB00000F0DAF801200D210122012300F0D4F822
:100AC00001200E210422012300F0CEF8BD4680BD96
:100AD00080B582B000AF01200821FFF77FFF1F2300
:100AE0007B6019E001200821FFF778FF134A7B683B
:100AF000D3181B78002B04D001200721FFF78EFFAD
:100B000003E001200721FFF769FF01200821FFF71B
:100B100085FF7B68013B7B607B68002BE2DA01206C
:100B20000821FFF75BFF02200121FFF757FF02209A
:100B30000121FFF773FFBD4602B080BD8800002091
:100B400080B500AFFFF746FFFFF788FFFFF798FF7C
:100B5000FFF7BEFFFCE7C04680B586B000AFF86087
:100B6000B9607A60FB681B687B617A680123134077
:100B70007B60BB680122101C9840031CDB437A6930
:100B80001A40BB687968081C9840031C1A43FB682C
:100B90001A60BD4606B080BD80B582B000AF7860F7
:100BA000074B5A6D0123134006D1C046044B1B6D01
:100BB0007A681340FAD100E0C046BD4602B080BD5D
:100BC00000800C4080B586B000AF78600A1CFB1C2A
:100BD0001A7000233B617B681A0A0F231340062B0F
:100BE00030D89A00194BD3181B689F46184B7B616D
:100BF00012E0184B7B610FE0174B7B610CE0174B49
:100C00007B6101233B6107E0154B7B6110233B6156
:100C100002E0144B7B61C0467B681A0B1F23134014
:100C2000FB603B69002B03D03B69181CFFF7B4FF46
:100C3000FB1C1B787969FA68081C111C1A1CFFF749
:100C40008BFF00E0C046BD4606B080BD440F0000EB
:100C500008800C4044800C4040800C4058800C4080
:100C600060800C4078800C40B0B584B000AFB960B3
:100C70007B603B1C0F33011C19703B1C0E331A7038
:100C80003B1C0F331B78052BFFD83B1C0E331B7806
:100C9000002B25D07B68002B11D052483B1C0F3312
:100CA0001A78BB6801210C1C9C40231C191C131CC6
:100CB000DB009B189B00C3181033196010E04948F3
:100CC0003B1C0F331A78BB6801210D1C9D402B1C67
:100CD000191C131CDB009B189B00C31810335960B0
:100CE000BB68072B25D83F483B1C0F331A783D4C77
:100CF0003B1C0F3319780B1CDB005B189B00E318BF
:100D00005B68B96889000F24251C8D40291CC943E4
:100D100019403B1C0E331C78BB689B00251C9D4072
:100D20002B1C1943131CDB009B189B00C318596034
:100D30002AE02C483B1C0F331A782A4C3B1C0F33FB
:100D400019780B1CDB005B189B00E31808331B6849
:100D5000B968254C091989000F24251C8D40291CD0
:100D6000C94319403B1C0E331C78BB681E4D5B19F0
:100D70009B00251C9D402B1C1943131CDB009B185A
:100D80009B00C318083319603B1C0E331B78002BE3
:100D900025D17B68002B11D012483B1C0F331A78E9
:100DA000BB6801210C1C9C40231C191C131CDB007C
:100DB0009B189B00C3181033196010E009483B1CB6
:100DC0000F331A78BB6801210D1C9D402B1C191C88
:100DD000131CDB009B189B00C31810335960BD46E1
:100DE00004B0B0BD00600040F8FFFF3F06488047F8
:100DF0000649074A074B9B1A03DD043BC858D050ED
:100E0000FBDC0548004700004D0E0000740F000099
:100E1000000000206C00002061090000FEE7FEE7F2
:100E2000FEE7FEE7FEE7FEE7FEE7FEE7FEE7FEE79A
:100E3000FEE7FEE7FEE7FEE7FEE7FEE7FEE7FEE78A
:100E4000FEE7FEE7FEE7FEE7FEE7C04680B500AF3F
:100E5000BD4680BD10B5044C002C02D000E000BFA0
:100E600000E0201C10BDC04600000000094B10B57A
:100E7000041C002B03D0002100E000BF01E000F0C3
:100E80000DF805480068816A002900D08847201CB9
:100E900000F04AF800000000640F000038B5084B6D
:100EA000084C1D1CE01A8410002C06D0A1006A1802
:100EB000043A13689847013CF6E700F03DF838BD66
:100EC000680000206C00002070B50E4B0E4D002411
:100ED000E81A85101E1CAC4204D0A100725890473D
:100EE0000134F8E700F022F80849094A0E1C541AA8
:100EF000A5100024AC4204D0A300F0588047013470
:100F0000F8E770BD64000020640000206400002049
:100F10006800002000B58218031C934202D01970AB
:100F20000133FAE700BD000000B5FEE7F8B5C046A2
:100F3000F8BC08BC9E467047F8B5C046F8BC08BC73
:100F40009E467047440C0000EC0B0000F20B0000C2
:100F5000F80B0000FE0B0000080C0000120C000053
:0C0F600043000000000000200000000022
:080F6C00F4F9FF7F0100000011
:100F7400000000000000000000000000000000006D
:100F8400000000000000000000000000000000005D
:100F9400600F0000000000000000000000000000DE
:100FA400000000000000000000000000000000003D
:100FB400000000000000000000000000000000002D
:100FC400000000000000000000000000000000001D
:0C0FD400000000002909000001090000D5
:0400000300000DEDFF
:00000001FF
