:1008000000100020E91600001B1700001D17000053
:100810001917000019170000191700001917000018
:100820001917000019170000191700001F17000002
:1008300019170000191700002117000023170000E6
:100840002517000027170000291700002B170000AC
:100850002D1700002F17000031170000331700007C
:100860003517000037170000391700003B1700004C
:100870003D1700003F17000041170000431700001C
:10088000451700000000000000000000000000000C
:100890000000000000000000000000000000000058
:1008A0000000000000000000000000000000000048
:1008B0000000000000000000000000000000000038
:1008C0000000000000000000000000000000000028
:1008D0000000000000000000000000000000000018
:1008E0000000000000000000000000000000000008
:1008F00000000000000000000000000000000000F8
:1009000010B5064C2378002B07D10548002802D0EB
:10091000044800E000BF0121217010BD78000020D4
:1009200000000000D822000008B5084B002B03D0BF
:100930000748084900E000BF07480168002903D0C4
:10094000064A002A00D0904708BDC04600000000BB
:10095000D82200007C000020780000200000000069
:10096000164B002B00D1144B9D46402292029A1A3E
:10097000924600218B460F461348144A121A01F082
:1009800035F80F4B002B00D098470E4B002B00D0B2
:1009900098470020002104460D4600200C49002203
:1009A000002300F0C3FF00F0FBFF2046294600F0C3
:1009B000BFF900F0C7FFC04600000800001000208B
:1009C000000000000000000078000020F00000207F
:1009D0007519000080B500AFBD4680BD80B582B0FE
:1009E00000AF021C3960FB1D1A700949FB1D1A7803
:1009F000131CDB009B189B00CB1818335A683B680C
:100A0000DA4001231340181CBD4602B080BDC04629
:100A10000060004090B583B000AF021C3960FB1D40
:100A20001A70FB1D1B78052BFFD80948FB1D1A788F
:100A30003B6801210C1C9C40231C191C131CDB006F
:100A40009B189B00C31810335960BD4603B090BD7E
:100A50000060004090B583B000AF021C3960FB1D00
:100A60001A70FB1D1B78052BFFD80948FB1D1A784F
:100A70003B6801210C1C9C40231C191C131CDB002F
:100A80009B189B00C31810331960BD4603B090BD7E
:100A90000060004080B500AF054B181C012100F03C
:100AA000EBFA044B181C012100F0E6FABD4680BDAC
:100AB000108102000072020080B500AF0220012107
:100AC0000422012300F05AFC012007210422012303
:100AD00000F054FC012008210422012300F04EFC08
:100AE00001200B210422012300F048FC01200D21EC
:100AF0000122012300F042FC01200E2104220123E7
:100B000000F03CFCBD4680BD80B582B000AF012046
:100B10000821FFF77FFF1F237B6019E001200821D8
:100B2000FFF778FF134A7B68D3181B78002B04D09B
:100B300001200721FFF78EFF03E001200721FFF7C7
:100B400069FF01200821FFF785FF7B68013B7B607F
:100B50007B68002BE2DA01200821FFF75BFF02200F
:100B60000121FFF757FF02200121FFF773FFBD4668
:100B700002B080BDA000002080B582B000AF01208F
:100B80000B21FFF767FFFB1D00221A701EE00120FA
:100B90000E21FFF73FFF01200D21FFF71FFF031C70
:100BA000002B05D1FB1D1B780E4A0121D15404E016
:100BB000FB1D1B780B4A0021D15401200E21FFF7A9
:100BC00049FFFB1DFA1D127801321A70FB1D1B78BC
:100BD000272BDCD901200B21FFF71CFFBD4602B0FB
:100BE00080BDC046C000002080B58AB000AF0023A1
:100BF0007B6224E0391D164A7B6A081C111C1A1CF2
:100C000000F0FEFE3B1D181C00F02AF9114B181CC9
:100C100000F026F9104A7B6AD3181B78002B04D009
:100C20000E4B181C00F01CF903E00D4B181C00F0D3
:100C300017F9092000F0FEF87B6A01337B627B6ABA
:100C4000272BD7DD0A2000F0F5F8BD460AB080BD9D
:100C5000382200003C220000C0000020402200009A
:100C60004422000080B582B000AF00237B6012E018
:100C70007A680C4B9A4203D105200221FFF7EAFE65
:100C80007A68094B9A4203D105200221FFF7C2FE80
:100C90007B6801337B607A68024B9A42E8DDBD468F
:100CA00002B080BDC0D4010060EA000080B582B00F
:100CB00000AFFFF761FFFFF797FF1B4B1B78013376
:100CC000DAB2194B1A70184B1B78202B02D1164B35
:100CD00000221A7000237B6013E0134B1B781A1C50
:100CE0007B689A4205D1114A7B68D31801221A7099
:100CF00004E00E4A7B68D31800221A707B68013327
:100D00007B607B681F2BE8DDFFF7FEFE00233B6066
:100D100004E0FFF7A7FF3B6801333B603B68002B13
:100D2000F7DDBD4602B080BD94000020A000002089
:100D300080B500AFFFF74EFEFFF7ACFEFFF7BCFE3D
:100D400000F036F8054B181C00F08AF8044B181C0C
:100D500000F086F8FFF7AAFFFCE7C0464822000033
:100D60006022000080B582B000AF021CFB1D1A702B
:100D7000084AFB1D1B78191C1F230B400121081C6E
:100D80009840031C191CC0235B00D150BD4602B023
:100D900080BDC04600E100E080B582B000AF786061
:100DA00039607B683A689A64BD4602B080BDC0462F
:100DB00090B587B000AF1A4B181C012100F05CF908
:100DC000032007210422012300F0D8FA0320062182
:100DD0000122002300F0D2FA3B1C124A13CA13C3AB
:100DE00013CA13C3104A3B1C101C191C00F008FC4A
:100DF0000D4B0E4A5A650C4A0D4B101C191CFFF77F
:100E0000CBFF0820FFF7AEFF0920FFF7ABFF064B33
:100E1000181C052100F0DAFBBD4607B090BDC046A6
:100E2000003202006822000000C4004003020000FB
:100E3000FF1F000080B582B000AF021CFB1D1A70BE
:100E4000C046064B1A6940231340FAD0034BFA1DE3
:100E500012785A63BD4602B080BDC04600C400404F
:100E600080B584B000AF78600023FB603B1C0B337F
:100E700096221A7014E0FB687A68D3181B78002B4E
:100E800015D0C0460C4B1A6940231340FAD00A4BC8
:100E9000FA6879688A1812785A63FB680133FB6034
:100EA0003B1C0B331A78FB689A42E4DC00E0C04636
:100EB000BD4604B080BDC04600C4004080B586B0C9
:100EC00000AFF860B9607A60FB681B687B617A6884
:100ED000012313407B60BB680122101C9840031C57
:100EE000DB437A691A40BB687968081C9840031C88
:100EF0001A43FB681A60BD4606B080BD80B582B05B
:100F000000AF1A4B5A69E023DB00134080229200A5
:100F1000934216D080229200934206D8002B16D01E
:100F20008022520093420FD017E0C02292009342D9
:100F300004D0E022D20093420CD00EE00C4B7B6038
:100F40000EE00C4B7B600BE00B4B7B6008E00B4B27
:100F50007B6005E00A4B7B6002E000237B60C046BB
:100F60007B68181CBD4602B080BDC04600800C40A6
:100F700040420F00C0CF6A00C0D8A700809FD500B4
:100F8000406F400190B583B000AFFC1C0E4B181CA5
:100F900000F058F9031C2370FB1C1B78072B06D0AC
:100FA000082B09D100F0EEFB031C7B6007E0FFF784
:100FB000A5FF031C7B6002E000237B60C0467B68CA
:100FC000181CBD4603B090BD0400180080B584B065
:100FD00000AF78601C4B9A6A7B685B00DA400323A1
:100FE0001340012B05D014D3022B07D0032B0AD0BA
:100FF00021E000F031FC031CFB601FE000F03CFC32
:10100000031CFB601AE000F09FFB031C5B08FB6005
:1010100014E00D4B9A6A7B6804339B00111CD94085
:101020000B1C002B04D000F01FFC031CFB6005E030
:101030000023FB6002E00023FB60C046FB68181C35
:10104000BD4604B080BDC04600800C4080B582B073
:1010500000AF7860074B5A6D0123134006D1C0469C
:10106000044B1B6D7A681340FAD100E0C046BD46C0
:1010700002B080BD00800C4080B586B000AF7860C3
:101080000A1CFB1C1A7000233B617B681A0A0F23A1
:101090001340062B30D89A00194BD3181B689F4673
:1010A000184B7B6112E0184B7B610FE0174B7B61A3
:1010B0000CE0174B7B6101233B6107E0154B7B6123
:1010C00010233B6102E0144B7B61C0467B681A0B26
:1010D0001F231340FB603B69002B03D03B69181CA6
:1010E000FFF7B4FFFB1C1B787969FA68081C111C18
:1010F0001A1CFFF7E3FE00E0C046BD4606B080BD07
:101100008022000008800C4044800C4040800C404D
:1011100058800C4060800C4078800C4080B584B0D2
:1011200000AF78607A68F8239B0313408022120393
:1011300093424CD080221203934213D88022920211
:1011400093422AD080229202934202D8002B1FD0D1
:101150006DE08022D20293422ED0C022D20293426E
:101160002FD064E0A0225203934246D0A022520323
:10117000934204D890225203934238D057E0C022C1
:101180005203934249D0D022520393424AD04EE0B8
:1011900000F0F8FA031CFB604CE000F0F3FA031CCB
:1011A000FB60274B9B681A1C0F231340FA68111C25
:1011B000D9400B1CFB603DE000F0C6FA031CFB604D
:1011C00038E00020FFF702FF031CFB6032E0002044
:1011D000FFF7FCFE031CFB60194B9B6E1A1C0F23D0
:1011E0001340FA68111CD9400B1CFB6022E001205F
:1011F000FFF7ECFE031CFB601CE00120FFF7E6FE9E
:10120000031CFB600E4B1B6F1A1C03231340FA6870
:10121000111CD9400B1CFB600CE0FFF7B3FE031C54
:10122000FB6007E0FFF76AFE031CFB6002E000239F
:10123000FB60C046FB68181CBD4604B080BDC046BC
:1012400000800C4080B584B000AF78603B1C0F3349
:1012500001221A707A680F231340BB60BB68022B0F
:1012600030D002D8012B06D078E0032B50D0042BCD
:1012700000D178E072E0404BDA6AF0239B01134022
:101280008022520193420DD080229201934204D0D9
:101290008022120193420AD00EE03B1C0F3302223F
:1012A0001A700EE03B1C0F3303221A7009E03B1C3E
:1012B0000F3304221A7004E03B1C0F3305221A700E
:1012C000C04651E02C4B9A6A03231340022B08D0EE
:1012D000032B0BD0012B0ED13B1C0F3303221A70B2
:1012E00015E03B1C0F3302221A7010E03B1C0F3339
:1012F00006221A700BE0204B9A6A80235B0213408F
:1013000004D03B1C0F3309221A7000E0C0462BE0CA
:10131000194B9A6A0C231340082B08D00C2B0BD0C6
:10132000042B0ED13B1C0F3303221A7015E03B1C1B
:101330000F3302221A7010E03B1C0F3306221A7082
:101340000BE00D4B9A6A80235B03134004D03B1CD7
:101350000F3309221A7000E0C04605E03B1C0F3332
:1013600000221A7000E0C0463B1C0F331B78181C8B
:10137000BD4604B080BDC04600800C40B0B584B00E
:1013800000AFB9607B603B1C0F33011C19703B1C24
:101390000E331A703B1C0F331B78052BFFD83B1CF8
:1013A0000E331B78002B25D07B68002B11D05248C0
:1013B0003B1C0F331A78BB6801210C1C9C40231C7A
:1013C000191C131CDB009B189B00C31810331960F9
:1013D00010E049483B1C0F331A78BB6801210D1CF3
:1013E0009D402B1C191C131CDB009B189B00C31871
:1013F00010335960BB68072B25D83F483B1C0F337F
:101400001A783D4C3B1C0F3319780B1CDB005B1822
:101410009B00E3185B68B96889000F24251C8D4088
:10142000291CC94319403B1C0E331C78BB689B0028
:10143000251C9D402B1C1943131CDB009B189B0093
:10144000C31859602AE02C483B1C0F331A782A4CE9
:101450003B1C0F3319780B1CDB005B189B00E31857
:1014600008331B68B968254C091989000F24251C0D
:101470008D40291CC94319403B1C0E331C78BB68A6
:101480001E4D5B199B00251C9D402B1C1943131CF2
:10149000DB009B189B00C318083319603B1C0E33FC
:1014A0001B78002B25D17B68002B11D012483B1CE8
:1014B0000F331A78BB6801210C1C9C40231C191C9B
:1014C000131CDB009B189B00C3181033196010E03D
:1014D00009483B1C0F331A78BB6801210D1C9D4045
:1014E0002B1C191C131CDB009B189B00C31810330A
:1014F0005960BD4604B0B0BD00600040F8FFFF3F3A
:1015000080B586B000AFF860B9607A601A1CFB1C29
:101510001A70BB68002B05D12A4B181CFFF7FEFD83
:10152000031CBB60FB1C1B78402B0ED004DC002B83
:1015300005D0202B06D013E0602B0ED010E0102336
:101540007B610EE008237B610BE0BB68181C062161
:1015500000F09CF906237B6103E004237B6100E03B
:101560002CE0BB689A007B6979684B435B08D31811
:101570003B617B697A6853433869191C00F086F92E
:10158000031C3B613B69043B3B613B699B013B6145
:101590003A690D4B13403B61FB681B686022191CC4
:1015A00091430A1CFB681A60FB681A68FB1C1B78D5
:1015B0001A43FB681A60FB683A695A61BD4606B077
:1015C00080BDC04610810200C0FF1F0080B584B0FE
:1015D00000AF78600A1CFB1C1A70FB1C1B78DB43F5
:1015E000FB60FA6805231340FB60FB685A007B68C8
:1015F000DA60FB1C1A787B68DA60BD4604B080BDF7
:1016000080B582B000AF786039607B68181C00F04C
:1016100033F83B689B7C002B06D07B681B688022DC
:10162000D2051A437B681A603B68DB7C002B07D02D
:101630003B681B7D10221343DBB21A1C7B689A6542
:101640003B685B7B1A1C3B681B8A1A433B68DB893F
:101650001A437B685A603B6859683B689A683B68E4
:101660001B7B7868FFF74CFF3B681B781A1C7B6874
:10167000DA60BD4602B080BD80B582B000AF786050
:101680007B68154ADA607B6800221A607B68134A1F
:101690005A607B6800229A607B6800225A617B68EE
:1016A0000022DA647B680E4A9A647B6800225A65DD
:1016B0007A680C4B9A4202D17B6800221A657B68DB
:1016C00000229A657A68074B9A4202D17B68002211
:1016D000DA65BD4602B080BDAA0E0000051000000C
:1016E000F91F000000C40040064880470649074A29
:1016F000074B9B1A03DD043BC858D050FBDC054860
:101700000047000051180000E42200000000002003
:101710007800002061090000FEE7FEE7FEE7FEE733
:10172000FEE7FEE7FEE7FEE7FEE7FEE7FEE7FEE791
:10173000FEE7FEE7FEE7FEE7FEE7FEE7FEE7FEE781
:10174000FEE7FEE7FEE7C04680B582B000AF00F0DE
:1017500019F8031C7B60094B5B681A1C0F231340AC
:101760007A68111CD9400B1C7B60054B7A681A60A3
:101770007B68181CBD4602B080BDC04600800C408E
:10178000E800002080B582B000AF294BDA6AF02370
:101790009B0113408022520193420CD0802292017F
:1017A000934204D080221201934208D00BE0214BD7
:1017B0001B687B6036E080231B027B6032E01E4B9F
:1017C0001B687B602EE01A4BDA68E023DB001340D5
:1017D00080229200934218D080229200934206D831
:1017E000002B18D080225200934211D016E0C02264
:1017F0009200934206D08022D20093420ED10F4B2A
:101800007B600EE00E4B7B600BE00E4B7B6008E0D4
:101810000D4B7B6005E00D4B7B6002E000237B609D
:10182000C046C0467B68181CBD4602B080BDC0469D
:1018300000800C400400002000000020406F4001A8
:10184000809FD500C0D8A70040B56400804F12002B
:1018500080B500AFBD4680BD80B500AF80231B02C0
:10186000181CBD4680BDC04680B500AFFA239B0062
:10187000181CBD4680BDC04680B500AF024B1B683A
:10188000181CBD4680BDC04604000020002934D08D
:101890000123002210B488422CD301242407A14242
:1018A00004D2814202D209011B01F8E7E400A142FF
:1018B00004D2814202D249005B00F8E7884201D39A
:1018C000401A1A434C08A04202D3001B5C08224372
:1018D0008C08A04202D3001B9C082243CC08A042E3
:1018E00002D3001BDC082243002803D01B0901D0CF
:1018F0000909E3E7101C10BC7047002801D0002044
:10190000C04307B4024802A14018029003BDC0467C
:10191000190000000029F0D003B5FFF7B9FF0EBC95
:101920004243891A1847C0467047C04610B5044C58
:10193000002C02D000E000BF00E0201C10BDC0461B
:1019400000000000094B10B5041C002B03D000213F
:1019500000E000BF01E000F00DF805480068816A72
:10196000002900D08847201C00F058FC000000002F
:10197000A022000038B5084B084C1D1CE01A84104A
:10198000002C06D0A1006A18043A13689847013C5D
:10199000F6E700F04BFC38BD740000207800002012
:1019A00070B50E4B0E4D0024E81A85101E1CAC427B
:1019B00004D0A100725890470134F8E700F030FCE1
:1019C0000849094A0E1C541AA5100024AC4204D040
:1019D000A300F05880470134F8E770BD7000002084
:1019E00070000020700000207400002000B58218F4
:1019F000031C934202D019700133FAE700BD0000C6
:101A00000EB400B59CB01DAB02A904CB822202909B
:101A10000861920009488A81012288604861504229
:101A2000074AC88110681D9A019300F063F8029973
:101A300000230B701CB008BC03B01847FFFFFF7FEA
:101A40006C000020F7B501919168071C141C002957
:101A500040D190239289D80002423BD02568216969
:101A600063696E1A58000096C6180098F50FAB19F6
:101A700001305D10A84201DB009D0235381C530582
:101A80000FD5291C00F004FB061E13D02169009A13
:101A900000F054FBA7891649802239401143A181E7
:101AA00011E02A1C00F053FB061E0CD1381C2169E2
:101AB00000F0A6FA0C203860A58940263543A581A0
:101AC0000124604213E0009B6561F018ED1A266165
:101AD0002060A560A668002E08DD694627680A799F
:101AE0003A70A3680137013B2760A3600020FEBD68
:101AF0007FFBFFFFF0B5A1B0049007938B890E1C0C
:101B0000171C19060FD53269002A0CD1402100F0AC
:101B1000BFFA30603061002803D1049C0C26266097
:101B2000D6E04020706108AD002120243023696197
:101B30006C76AB763C1C2278002A04D1E01B069020
:101B400019D003970FE0252AF8D00134F3E7039961
:101B5000321C09780498FFF775FF039A013203924B
:101B6000013000D1AFE003990698CB1B8342EEDB36
:101B70000D9F3A180D922178002900D1A3E0012091
:101B80006A4600234742633201342B60EB606F608A
:101B9000AB601370AB65504F2178381C052200F004
:101BA000C1FA002807D0C71B2B680120B840184392
:101BB00028600134EFE72B68D90603D56846202159
:101BC000633001701A0703D56A462B2763321770FA
:101BD00021782A2901D00B9B0EE0079A1068111D6D
:101BE0000791002801DB0B9004E0022247421343D7
:101BF000EF602B60013409E020783038092804D8E0
:101C00000A277B4301341B18F6E70B9323782E2B0E
:101C100018D161782A2909D1079B02341A68191D45
:101C20000791002A0DDA012042420AE00134002225
:101C300020783038092804D80A277A43013412184A
:101C4000F6E70992254F2178381C032200F06AFA42
:101C5000002806D02B68C21B4021914019432960FF
:101C6000013421781E4806222976671C00F05AFAB2
:101C7000002817D01B4800280BD12868079C072391
:101C8000C10501D5E41800E007349C4308340794EB
:101C900014E007AA00920498291C321C124B00E0A1
:101CA00000BF07E007AC00940498291C321C0E4BBF
:101CB00000F08CF8059005994A1C04D00D99059AFE
:101CC0008C180D9436E7B589690601D40D9801E0AA
:101CD0000127784221B0F0BDA4220000AA22000012
:101CE000AE22000000000000451A0000F7B5151CE8
:101CF00001930A698B6800900C1C934200DA131C54
:101D0000201C2B6043300178002901D001332B6067
:101D10002668B00602D52F6802372F602268062693
:101D200016401CD0261C4336377822683E1C731E92
:101D30009E4192061CD5A319181C40303021271C47
:101D4000C17045373A784133DA70023610E0617E6F
:101D50000098019A089FB847013006D00136E36821
:101D60002868191A8E42F2DBDCE7012040422CE0A1
:101D70000027B7420ADAE119433109780098019A3D
:101D8000089B98470130F0D00137F2E72B682568AF
:101D900006212940E6680025042903D1F01AC7432B
:101DA000FD170540A2682669B24201DD931BED18BC
:101DB0000027AF4208DAA17E0098019A089EB0473A
:101DC0000130D2D00137F4E70020FEBDF0B50D1C84
:101DD0008BB0433507930590069204950A7E0C1C40
:101DE000109B6E2A00D1A8E012D8632A24D009D80B
:101DF000002A00D1B1E0582A00D0C1E045310A7074
:101E00007D4D51E0642A1FD0692A00D0B8E01BE064
:101E1000732A00D1A5E009D86F2A2BD0702A00D0F0
:101E2000AEE00A68202616430E6038E0752A21D0FD
:101E3000782A00D0A4E032E018680E1C051D1D6051
:101E40000368423633709EE026681F68300606D469
:101E5000750604D5381D186000203D5E02E03D1D6A
:101E60001D603D68644B002D3BDA04992D226D42C4
:101E70000A7036E027681E683D0605D4780603D54B
:101E8000351D1D60358802E0311D196035685A4BDB
:101E9000207E039308276F281ED00A271CE0271CEA
:101EA00045377820554D38701A682668111D0395FE
:101EB0001960300603D4750601D5158800E0156851
:101EC000F00702D520231E4326601027002D03D1E2
:101ED0002668202086432660261C43360022327066
:101EE00001E003930A276168A160002903DB2068F1
:101EF000042398432060002D02D1049E00290ED0B7
:101F0000049E281C391CFFF705FD039A013E515C15
:101F1000281C3170391CFFF7B9FC051EF1D1049B58
:101F20009A1B2261082F33D12768F80730D56068E3
:101F300090422DDC013262602AE008681E6849691F
:101F4000050606D4450604D5351D1D603368198085
:101F500003E0321D1A603768396000202061049E5A
:101F600016E01E68311D19603668301C00F028F933
:101F700065682061A84200D925612369636004E097
:101F8000261C4236327001212161049F00223A70E2
:101F900007990598009109AA211C069BFFF7A6FE48
:101FA00001300CD0351C2269AB1B93420ADA297828
:101FB0000598069A079FB84701350130F3D10122F1
:101FC000504217E02668B10705D4099BE0689842A3
:101FD00010DA181C0EE00025E7680998391A8D42BE
:101FE000F3DA617E0598069A079EB0470130E6D085
:101FF0000135F1E70BB0F0BDB5220000C6220000AC
:1020000030B5002940D004390B68002B00DAC9181C
:102010001E4A1368141C002B02D14B60116033E080
:1020200099420FD20D684A199A4205D110682B18AF
:1020300055680B604D6000E04B60216024E08A42EF
:1020400003D8131C5A68002AF9D11D685C198C4208
:102050000BD10C682D1958191D60904214D11168CC
:1020600052686C181C605A600EE08C4202D90C2138
:10207000016009E008680D18954203D114685268A0
:10208000001908604A60596030BDC04698000020C1
:1020900070B50323CD1C9D430835061C0C2D01D2C1
:1020A0000C2501E0002D2DDB8D422BD31C4A13683B
:1020B000111C1C1C002C12D02068421B0CD40B2AB3
:1020C00002D92260A41815E0A34202D166680E600E
:1020D0001CE065685D6019E0231C6468EAE7301C59
:1020E000291C00F05BF8421C0CD0C41C03218C435B
:1020F000844201D1256009E0211A301C00F04EF81D
:102100000130F7D10C243460002008E0201C0B3093
:102110000722211D9043431A01D05D42E55070BD56
:102120009800002000B5C9B28218904204D003780C
:102130008B4202D00130F8E7002000BD10B500232B
:10214000934203D0CC5CC4540133F9E710BDF8B519
:10215000061C0C1C151C002904D1111CFFF798FF4C
:10216000041C18E0002A03D1FFF74AFF2C1C12E0E0
:1021700000F02DF8A8420ED2301C291CFFF788FF72
:10218000071E07D0211C2A1CFFF7D8FF301C211C7A
:10219000FFF736FF3C1C201CF8BD000038B5074C8B
:1021A0000023051C081C236000F01CF8431C03D10D
:1021B0002168002900D0296038BDC046EC0000200D
:1021C0000023C25C0133002AFBD1581E704704393A
:1021D0000B6800B5181F002B02DAC8581918081F21
:1021E00000BD00000A4A00B51368002B0CD0181877
:1021F0006946884202D81060181C00BD054B0C22AD
:1022000001201A604342F7E7034B1360EFE7C04633
:102210009C000020EC000020F000002000B5FEE74C
:10222000F8B5C046F8BC08BC9E467047F8B5C04635
:10223000F8BC08BC9E467047256400003A000000C8
:10224000232300002000000046726F6E742070612E
:102250006E6E656C20737461727475702E2E2E0014
:10226000646F6E650A0000000000000000000000BE
:1022700000C2010000050000001000000000000086
:10228000F8100000A0100000A6100000AC10000024
:10229000B2100000BC100000C61000004300000097
:1022A00008000020232D302B2000686C4C00656650
:1022B0006745464700303132333435363738394197
:1022C00042434445460030313233343536373839AD
:0C22D000616263646566000000000000AD
:0822DC0084E6FF7F0100000011
:1022E40000366E01008000000000000000000000C5
:1022F40000000000000000000000000000000000DA
:1023040000000000000000009C220000000000000B
:1023140000000000000000000000000000000000B9
:1023240000000000000000000000000000000000A9
:102334000000000000000000000000000000000099
:102344000000000000000000000000000800002061
:08235400290900000109000045
:04000003000016E9FA
:00000001FF
